:0200000270008C
:10200000000001205D230700452307004723070048
:10201000492307004B2307004D2307000000000061
:10202000000000000000000000000000554F070005
:102030005123070000000000532307005523070029
:10204000572307005723070057230700572307008C
:10205000572307005723070057230700572307007C
:10206000572307005723070057230700572307006C
:10207000572307005723070057230700572307005C
:10208000197107005723070057230700572307003C
:1020900057230700572307000DA007005723070009
:1020A000572307005723070057230700572307002C
:1020B000572307005723070000000000000000001E
:1020C000572307005723070057230700572307000C
:1020D000696A070057230700572307000000000024
:1020E00000000000000000000000000000000000F0
:1020F00000000000000000000000000000000000E0
:1021000000000000000000000000000000000000CF
:1021100000000000000000000000000000000000BF
:1021200000000000000000000000000000000000AF
:10213000000000000000000000000000000000009F
:10214000000000000000000000000000000000008F
:10215000000000000000000000000000000000007F
:10216000000000000000000000000000000000006F
:10217000000000000000000000000000000000005F
:10218000000000000000000000000000000000004F
:10219000000000000000000000000000000000003F
:1021A000000000000000000000000000000000002F
:1021B000000000000000000000000000000000001F
:1021C000000000000000000000000000000000000F
:1021D00000000000000000000000000000000000FF
:1021E00000000000000000000000000000000000EF
:1021F00000000000000000000000000000000000DF
:10220000314932480A1A02D0072291438D4630499B
:1022100030480A1A06D00722914381F30988022226
:1022200082F314882C482D492D4A00F03CF82D48A3
:102230002D492E4A00F037F82D482E492E4A00F03D
:1022400032F82E482E492F4A00F02DF82E482F49FB
:102250002F4A00F028F82F482F49304A00F023F881
:102260002F483049304A00F01EF8304830490022EB
:1022700000F024F82F483049002200F01FF82F4AC0
:1022800090471F481F49884205D00268043003B4B4
:10229000904703BCF7E700208646EC46002000216B
:1022A000274A9047FEE7884207D0521A05D00378A4
:1022B00001300B700131013AF9D17047884202D0E8
:1022C00002700130FAE770470000012000F800209A
:1022D000000001200000012084DE07007C5900205E
:1022E000D0590020B8230700B82307006CA50700C9
:1022F00084DE07007C5900207C5900206CA6070072
:102300006CA607006CA607006CA607006CA6070069
:102310006CA607006CA607006CA6070082DE07000B
:10232000D8DE0700D0590020D0590020D059002015
:10233000DCA10020DCA10020DCA100208523070017
:10234000B1520700FEE7FEE7FEE7FEE7FEE7FEE725
:10235000FEE7FEE7FEE7FEE700F002B8FFF7FCBF8E
:102360000F484FF00701884385460E4880470E48C6
:10237000016841F470010160BFF34F8FBFF36F8FAD
:10238000FFF73EBF09480A490A4A884207D0521A55
:1023900005D0037801300B700131013AF9D1704753
:1023A000000001204172070088ED00E058A60700F8
:0823B000685900207C5900204F
:1023B8007047000007B5044B0093044A402300F01F
:1023C80032F803B05DF804FBD9230700D159002087
:1023D8002DE9F84388461446B2B10F4B0F4E03253A
:1023E800002743F00109224608EB0701002004F00A
:1023F80005F80744241A48B933782BB14FF47A40CA
:10240800C847013D02D13570BDE8F8830123337018
:10241800002CE8D1F8E700BF70A60700D0590020CB
:10242800704704F01BB8F0B595B01D46164608462F
:102438000C4601F054FD1A9B0D93CDE90865002563
:102448002B46082205A920460A958DF82C500C9594
:1024580001F06CFD079B0293069B03939DF81430D3
:102468008DF8115003F00302012A1DD1BDF8142084
:10247800059DC3F3C203C2F383168DF81030B20072
:1024880008230EA9204601F051FDC5F3952508AB98
:102498000093324602AB0EA9284600F009FC2046FC
:1024A80001F021FD15B0F0BD022AF8D1BDF8165093
:1024B800C3F3C203C5F389158DF810300827082D1A
:1024C8002E4628BF08263B4632460EA9204601F074
:1024D8002DFDAD1B08AB02AA31460EA8374400F00B
:1024E8004BFC002DEBD1DAE708B5FFF79AFF074858
:1024F800042100F049FB002803DA0549412000F0D7
:10250800CBFD044B01225A7108BD00BF18A6070075
:1025180084A607007C590020037813F0040216D023
:1025280003F00303012B03D0022B09D001207047CD
:102538000A6800880232C0F3831002440A60F5E793
:102548000B684288023303EB92130B60EEE71046E8
:10255800704700002DE9F04FDFF844A189B00F461D
:1025680000230446861C0DF10F0015468DF80F3028
:1025780000F026FDDAF800103960DAE90132464F3A
:10258800134401335B1AA7F10409A7F10808B34201
:102598001CD30020002D7BD004F00F039B0143F0D7
:1025A800050363F30F00DAF80020DAF80830134067
:1025B800033332444AF823009DF80F00CAF800207C
:1025C80000F02EFD012009B0BDE8F08F012138464A
:1025D80000F054FE484600F06CFE404600F069FEEC
:1025E800DAF80400DAF808B0049000EA0B000330C7
:1025F8000AEB800004A9FFF78FFF049B0246F8B995
:102608000BEA03010AEB810103F1020CC86805908B
:10261800013303EA0B0B0AEB8B0B00F003000128D4
:10262800DBF80C10CDF810C02AD002280BD01B49BB
:1026380001924FF4BF7000F02FFD019A93460CE011
:102648000BEA0300D3E7BDF81630C3F3891303334D
:102658004FEA114B0CEB93030493404600F02CFE19
:1026680010B1049BCAF804305946384600F006FEFB
:10267800DAE901231344DAF8002001339B1A86E7CC
:10268800BDF81430C3F383134FEA114B6344E3E7F7
:10269800A40544F0060086E7006B00200BA707009E
:1026A800E45A00200B4B0C4840F2FF3210B59A60F8
:1026B8000022C3E9002203F580539A6183F82020A1
:1026C8005A6101F0C5FB044610B9044801F042FC08
:1026D800204610BDE45A0020F0A5070090A7070087
:1026E80030B50A4C71B10A4A0A49121BD2080023B4
:1026F8009A4201D1002030BD31F82350854202D0E2
:102708000133F5E7034654F83300F4E780A50700E2
:10271800F0A5070068590020094B013903EBC000F8
:10272800032909D8DFE801F00A02040604207047EB
:102738000079704740797047002070470220704741
:1027480080A50700034BD3E90030C31A584258410B
:10275800704700BFE45A00202DE9F04786B0FFF724
:10276800F1FF0746002840F0FF80804C04F58056B2
:10277800B061BFF34F8F6368A56802932B400333A2
:1027880004EB830002A9FFF7C7FE029B10B1B269F0
:10279800002A62D005EA0302991C013304EB820285
:1027A8002B4004EB8303D268DB68049302F0030335
:1027B800022B0392029163D1BDF80E306C48C3F32B
:1027C8008918B8F1500FC14628BF4FF0500909F1D8
:1027D800080169F38F13C1F30901ADF80E3001F058
:1027E8004FFB0746002800F0AB8001F078FB002380
:1027F800082203A9384601F085FB029925EA01025F
:102808000132B9EB820F4FEA820332D95FFA89F9B4
:102818005BB32940DDB2A9EB050903315FFA89FAF8
:10282800A946544D04EB810108234A46384601F075
:1028380069FB3DB109F10803DBB252462946384627
:1028480001F060FB029B08F1030803EB9803029375
:10285800B369002B4DD135695EE0226893428DD370
:102868006260384606B0BDE8F08742491D469A4680
:10287800DAE72940033108234A4604EB8101DEE701
:10288800012B5DD1BDF80C303948C3F383110629FB
:1028980028BF062161F38913023101F00F01890075
:1028A800ADF80C3001F0ECFA0746002848D001F0EA
:1028B80016FB0023082203A9384601F023FB4FF03A
:1028C8000008BDF80C20C2F383124FEA8803904534
:1028D80003F10803BCD202994A1C29400331029231
:1028E80004EB81010422384601F00CFB08F10108D1
:1028F800E7E7384601F0F7FAFFF724FF80F0010018
:10290800C7B2AEE7EB685B7923B12B6839461B6821
:1029180028469847EB681D68002DF3D1384601F02A
:10292800E2FA0DF107008DF8075000F049FBB36992
:102938000BB9029B63609DF8070000F071FBDBE7B1
:10294800346954B90C4B0D480D49C01AC00800042D
:1029580040F0020000F076F8CEE7236820469B6836
:102968009847E3681C68ECE700277AE7E45A0020F8
:10297800F0A50700F05A002080A5070080A50700F1
:102988007AA707002DE9F74F284E04460F469146CF
:1029980001A901221846D6F808A09846FFF7DAFDE3
:1029A80078B3019D0023A81C434503EB000233D1F3
:1029B8001F48002100F027FC80F3100B1D4B1E4A16
:1029C8004FEA14499B1AB9EBD30F04D31B4940F2C1
:1029D800A31000F061FB6B1C03EA0A03E40006EB9A
:1029E800830304F0380449EA0B4005EA0A0544F079
:1029F8000104D860033544EA881343EA872346F87C
:102A080025300F4B93F820301BB1FFF7A5FE0028A7
:102A1800FBD103B0BDE8F08F0AEA020206EB82029E
:102A280059F82310D1600133BEE700BFE45A0020F3
:102A3800006B0020F0A5070080A507000BA7070082
:102A4800E46A002000231A46FFF79CBF07B501235C
:102A5800019201AAFFF796FF03B05DF804FB07B5E2
:102A6800CDE9002302236A46FFF78CFF03B05DF827
:102A780004FB1FB5CDE90123069B039301AA032399
:102A8800FFF780FF05B05DF804FB1FB5CDE9002313
:102A9800069B0293079B03936A460423FFF772FF82
:102AA80005B05DF804FB7FB5CDE90123089B0393CE
:102AB800099B04930A9B059301AA0523FFF762FF6C
:102AC80007B05DF804FB00002DE9F3472B4D0446E1
:102AD800D01C8946164601A900228008AF68FFF776
:102AE80039FDA8B3DDF80480AB6808F10200019055
:102AF800013338401B1AB6EB830F00F103004FEA8D
:102B0800830A05EB80002ED83246494607F07CFC44
:102B18001B48002100F077FB80F3100008F1010347
:102B28003B4007EA0807220C05EB8303033742EA18
:102B38000040E400D86004F0380455F8273044F029
:102B4800020444EA865203F47C131A4345F827200A
:102B58000C4B93F820301BB1FFF7FEFD0028FBD18A
:102B680002B0BDE8F0875246494607F04DFCA6EB97
:102B78000A0209EB0A0105F10C00C7E7E45A002034
:102B8800006B0020E46A002030B50E4C2269034631
:102B98000020114629B9D968087142B923610A6031
:102BA80030BDC9680D79854206D00968F2E7D26858
:102BB80014680C601360F3E701300A28E9D14FF07C
:102BC800FF30EDE7E46A002038B5084B01251C69A1
:102BD80083F8205004B938BDE3685D712368204646
:102BE8005B689847E3681C68F4E700BFE46A002064
:102BF80030B5C38885B004460D4633B1144A0092F7
:102C08001449154A284600F001FC217A05291DD0EF
:102C1800637A4BB1A088FFF77FFD104B104953F83A
:102C28002020284600F0F2FB227A0E4BA08853F8A9
:102C3800222003920021FFF753FD039A0A49034615
:102C4800284605B0BDE8304000F0E0BB05B030BD17
:102C5800BCA70700A4A707009CA707002CA807008B
:102C680011D6070050A80700C1A7070007B50346FB
:102C78000846197A052911D05B7A2BB1094A0A4905
:102C8800019000F0C3FB01980849019000F0BEFBD9
:102C9800019803B05DF804EB00F0A6BB002AF8D059
:102CA800F2E700BFBCA7070011D60700B9A70700C5
:102CB8002DE9F04385B01F460C9D002395F80C9034
:102CC8002B7306460C46904629463846FFF790FF78
:102CD800B8F1060F09D8DFE808F00412181F2833E6
:102CE80040003146284600F091FB0022294638462C
:102CF800FFF7BCFF85F80C9005B0BDE8F0832268AB
:102D08003146284600F082FBEFE7D4E9002331463C
:102D1800284600F07BFBE8E7A36800933146D4E936
:102D28000023284600F072FBDFE7E3680193A368FD
:102D380000933146D4E90023284600F067FBD4E726
:102D480023690293E3680193A36800933146D4E9A9
:102D58000023284600F05AFBC7E7636903932369F9
:102D68000293E3680193A36800933146D4E90023F2
:102D7800284600F04BFBB8E708292DE9F74F8046B5
:102D88000E4617461C463DD800251B7B2573214659
:102D980010460193FFF72CFFDFF88CA0DFF88CB00A
:102DA800AE4232D918F805205946204600F02EFBCD
:102DB8000135082DF4D11B49DFF874A0DFF874B091
:102DC800204600F023FB4FF000094E4524D918F89F
:102DD80009507E2D1ED8284607F0D4FA002814BFC3
:102DE8002A462E225946204600F010FB09F1010917
:102DF800B9F1080FE9D1012221463846FFF736FF1D
:102E0800019B237303B0BDE8F08F5146204600F0C4
:102E1800FDFACDE72E22E5E75146204600F0F6FA06
:102E2800E4E700BFD5A70700D1A70700CBA7070095
:102E3800D3A70700D7A707004B1C30B5DB00044613
:102E480012F003009BB20DD1074D2A601A44074BBC
:102E58001A60074B1870074B1870074B1C80074BFC
:102E6800198030BD0720FCE7A86B0020A46B002068
:102E7800A06B0020B06B0020AC6B0020AE6B002074
:102E88002DE9F743DFF8BC80B8F800308B420646DE
:102E98000D46174647D300240DF107008DF807406B
:102EA80000F08EF8224B234A23481B78008892F8BA
:102EB80000C084455FFA8CF138BF4C1CDBB238BFC8
:102EC800E4B2A34228D014781178CBB2884286BFE6
:102ED8000133DBB2002313709DF8070000F0A0F85F
:102EE8004FF6FF739C4220D0144B1B6843F8347094
:102EF80003EBC4099EB195B1114BB8F800001B68EB
:102F08002A46314604FB003007F07EFAA9F804503F
:102F1800002003B0BDE8F0834FF6FF74DCE7002023
:102F2800A9F80400F5E70920F3E70420F1E700BF5A
:102F3800B06B0020A06B0020AE6B0020A86B0020B7
:102F4800A46B0020AC6B002070B5104C104D22789B
:102F58002B789A4200D170BD0E480F4A2378126828
:102F680006880E4802EBC301006852F833208988AE
:102F780003FB060090470A4922780988D3B2914298
:102F880086BF0133DBB200232370E0E7B06B00207B
:102F9800A06B0020AC6B0020A86B0020A46B002065
:102FA800AE6B0020EFF30583C3F308032BB9EFF3EF
:102FB8001480C04300F001007047012070470000F2
:102FC80070B50446FFF7EEFF012803D010494320EF
:102FD80000F062F8EFF3108672B60E4A906801238B
:102FE80098B993600C4B0D4DD3F8801029401160AF
:102FF800C3F88050D3F8841051604FF0FF32C3F803
:103008008420207006B962B670BD2370FAE700BF4D
:1030180064A80700B46B002000E100E0FC06FFBDD7
:1030280010B50446FFF7BEFF012803D00949512017
:1030380000F032F8084B9A685AB154B9EFF310818E
:1030480072B6064A18681060586850609C6001B9EA
:1030580062B610BD64A80700B46B002000E100E070
:1030680030B53AB11368DB430A4D0144814204D1BB
:10307800D84330BD4FF0FF33F6E710F8012B53402B
:10308800082213F0010418BF2C46013A84EA5303BE
:10309800F7D1EBE72083B8ED07B5ADF80000019153
:1030A8006A46002144F2020002F0D4F803B05DF849
:1030B80004FB10B561B1B2FBF3F403FB1424A4B212
:1030C80044B9C0E9001484608281C381204610BDE0
:1030D8000E20FCE70920FAE782B050E8022FC188E9
:1030E800B2EB324F4FF0000317BF92B241EA0141F1
:1030F80042EA014104E04268B2EB324F08BF0123C3
:1031080040E80212002AE8D18DF807309DF8073010
:10311800002B0CBF1120002002B0704737B550E8D3
:10312800013F9DB2C48925448489A54228BF2D1B2F
:103138000489A54202BFBFF32F8F002207E0C5EA2A
:10314800030540E80154002CE9D14FF001028DF845
:1031580003200193019A0A609DF8031001F0FF0310
:1031680021B1006810FA82F003B030BD1846FBE7C1
:103178000A884B889A4209D150E8012FC2EA0242D4
:1031880040E80123002BF7D1012070470020704749
:1031980037B550E8023F1FFAA3F5C488A54202BF1D
:1031A800BFF32F8F00220DE0C48925448489A542EE
:1031B80028BF2D1BC3EA054540E80254002CE8D17E
:1031C8004FF001028DF803200193019A0A609DF8DF
:1031D800031001F0FF0321B1006800EB124003B0B7
:1031E80030BD1846FBE70A884B889A4209D150E857
:1031F800022FC2EA224240E80223002BF7D1012025
:1032080070470020704710B5034653E8000F0A4680
:1032180043E8002494F0000FF7D110BD10B5034621
:1032280053E8000F40EA010243E8002494F0000F3D
:10323800F6D110BD10B5034653E8002F42EA01004D
:1032480043E8000494F0000FF6D110BD10B5034612
:1032580053E8000F00EA010243E8002494F0000F4D
:10326800F6D110BD10B5034653E8002F02EA01005D
:1032780043E8000494F0000FF6D110BD10B50346E2
:1032880053E8002F02EB010043E8000494F0000F1C
:10329800F6D110BD10B5034653E8002FA2EB01008C
:1032A80043E8000494F0000FF6D110BD0121FFF7A8
:1032B800B5BF0121FFF7BEBF0021FFF7C7BF00213F
:1032C800FFF7D0BF10B50446002834D003681BB9F7
:1032D8001A49FF20FFF7E0FE636823B917494FF446
:1032E8008070FFF7D9FEA36823B9144940F2011092
:1032F800FFF7D2FEE36823B910494FF48170FFF756
:10330800CBFE238A23B90D4940F20310FFF7C4FE10
:10331800D4E9012321689B1ADBB20A60013BDBB2C6
:10332800FF2B226802D10020107110BD1168481CC3
:1033380010600B70F2E70E20F7E700BFDAA807006D
:1033480037B5044620B913494FF49270FFF7A4FE2D
:1033580000250DF107008DF80750FFF731FE2268B0
:103368006368116899420ED9481E106011F8013C33
:10337800E568218A01FB0355A36811791B1ADBB2A2
:10338800994238BF13719DF80700FFF749FE284698
:1033980003B030BDDAA8070037B50C46054620B99A
:1033A800104940F24710FFF777FE24B90D494FF452
:1033B800A470FFF771FE00230DF107008DF80730A8
:1033C800FFF7FEFD2A681368591C1160E968641A42
:1033D800298AB4FBF1F41C709DF80700FFF720FE62
:1033E80003B030BDDAA8070010B5044618B906497D
:1033F8003120FFF751FEA2682AB16369216820696C
:1034080098470023A36010BD42A907000EB433B546
:10341800059D044618B911494220FFF73DFE63692E
:103428001BB90E494320FFF737FE23681BB90B4928
:103438004420FFF731FE63681BB908494520FFF7B0
:103448002BFE35B106AB01AA29462046019300F0B0
:1034580079F802B0BDE8304003B0704742A90700D0
:103468000A2938B504460D4602D10D21FFF7F8FFA9
:10347800A3682268591CA160D554D4E901329A4244
:1034880004D32046BDE83840FFF7AEBF38BD000082
:103498002DE9F84F9846DDE90A43154682460F465E
:1034A8000A464FF00109AA420FD2C14538BFC146AA
:1034B80013F0010B01D16CB900240126B8F1010FFA
:1034C8001BD908F1FF386E43F8E709F10109B2FB8F
:1034D800F5F2E8E79B070ED5B8F1000F0CBF3026D0
:1034E8002026A145E9D2013C31465046FFF7B8FFF6
:1034F800002CF6D1E0E72026F3E7B7FBF6F39D4270
:10350800E1D9DFF83C80B7FBF6F3504618F8031012
:1035180006FB1377FFF7A4FF3346AB42B6FBF5F67D
:10352800F1D2BBF1000F02D00CB1A14501D3BDE827
:10353800F88F20215046013CFFF792FFF4E700BFC7
:1035480005AA07002DE9F74F88461746054620B912
:10355800AF4940F25220FFF79FFD6B6923B9AC4990
:103568004FF41570FFF798FD2B6823B9A84940F26E
:103578005520FFF791FD6B6823B9A54940F2562005
:10358800FFF78AFDB8F1000F00F03E8118F8011B23
:1035980049B92B7B002B00F03781284603B0BDE8E2
:1035A800F04FFFF721BF252940F0B780002698F893
:1035B80000302D2B424608F1010823D0302B24D0AF
:1035C8002B2B25D000242A2B02F1010123D13B68A3
:1035D8001A1D1B683A601C440A4613782E2B26D104
:1035E80001324FF0000A104610F8011BA1F1300C0F
:1035F800BCF1090F1DD80A2303FB0A13A3F1300AF3
:103608000246F0E746F00106D1E746F00206CEE7AB
:1036180046F00406CBE711F8013CA3F13000092875
:10362800DBD80A2202FB0434303C0A46CBE74FF0D1
:10363800000A12F8011B01F0FB0068289046F8D038
:10364800782909D86F290CD8632962D022D825296E
:1036580063D0582900F0888098F80030002B95D165
:1036680097E770390829F7D801A353F821F000BF6C
:10367800EB3707006136070061360700813707001E
:10368800613607005F3707006136070061360700BB
:1036980071370700642901D06929DDD13A68D2F869
:1036A8000090111D89EAE9723960A2EBE9724FF0C6
:1036B800010B092A35DCD34538BFD3462CB1B9F103
:1036C800000F01DB720700D5013CB30702D5BAF140
:1036D800000F03D0F00701D44CBB0024B9F1000F50
:1036E8002DDAC9F100092D212846FFF7B9FE06F0A9
:1036F8000302022A04D1BAF1000F01D11CBB002435
:10370800CDE9004653460A2249462846FFF7C0FE3F
:10371800A2E73B681A1D19783A602846FFF7A0FE11
:103728009AE70A230BF1010BB2FBF3F2C1E7A345B9
:10373800D4D220212846013CFFF792FECCE771073E
:10374800D5D52B21D0E7A345DAD230212846013C34
:10375800FFF786FED2E73968CDE900460A1D3A60D0
:1037680053460A220968D0E739680A1D3A60CDE94C
:10377800004653461022F5E73B681A1D3A6016F0DA
:103788000106D3F8009024D1B9F1000F03D04846C0
:1037980006F0B8FE0646B4421DD809F1FF3919F8FB
:1037A800011F00293FF458AF2846FFF759FEF6E7F6
:1037B80028460136FFF754FE19F806100029F7D1FC
:1037C800A642BFF449AF20212846013CFFF748FE36
:1037D800F6E70026F0E720212846013CFFF740FEE7
:1037E800D9E73B681A1D3A60302128461C68FFF764
:1037F80037FE78212846FFF733FE00220823CDE95B
:1038080000322146102280E703B0BDE8F08F00BFE8
:10381800A0A9070070B50D461646044618B9084910
:103828005520FFF739FC1DB905495620FFF734FC30
:103838002B68256031462046BDE87040184700BF18
:1038480015AA07002DE9F041DDF818800E46174645
:103858001D46044618B922498820FFF71DFC1FB9E8
:103868001F498920FFF718FC23681BB91C498A20C7
:10387800FFF712FC45BB1A498B20FFF70DFCB20776
:1038880003D017499120FFF707FCBB0703D0144961
:103898009220FFF701FCE3689E4204D322696B1E65
:1038A8003344934203D90E499320FFF7F5FB23686D
:1038B800CDF81880D3F80CE03A462B46314620461E
:1038C800F446BDE8F041604763685A68B5FBF2F317
:1038D80002FB1353002BD2D001498E20CDE700BF45
:1038E80015AA07002DE9F0410D4616461F46044665
:1038F80018B919499E20FFF7CFFB23681BB9164951
:103908009F20FFF7C9FB1EB91349A020FFF7C4FB8E
:1039180063681B68013B2B4203D00F49A320FFF7C4
:10392800BBFBE3689D4207D363681A686B1E02FB02
:1039380006332269934203D90749A520FFF7ACFB58
:103948002368D3F810E032463B4629462046F44621
:10395800BDE8F041604700BF15AA070070B550B92F
:103968000E4D0F4C0026641B1423B4FBF3F4B44231
:1039780008D1002010E00368002BF1D0BDE87040AA
:10398800DB6918472B6813B901361435EFE7DB6993
:10399800284698470028F7D070BD00BF6859002016
:1039A8007C590020014B43600020704790AA070013
:1039B8000846704700207047024B1868003818BF47
:1039C80001207047C06B002008B50248FFF777FC5C
:1039D800002008BDC06B002008B510461A4606F046
:1039E80013FD002008BD00002DE9F041804686B097
:1039F80011480F4616461D46FFF758FC0446C8B93D
:103A0800AA083146384600F0B3FC0B48FFF757FCCC
:103A1800D8F8083053B101228DF800200C9A05928D
:103A2800CDE90147CDE9036568469847204606B0C9
:103A3800BDE8F0811124F9E7C06B00202DE9F043BF
:103A4800814687B014480E4615469846FFF72EFC67
:103A58000446F0B90746BD4215D10F48FFF72FFCC1
:103A6800D9F808305BB102228DF800200022CDE998
:103A78000126CDE90325CDF81480684698472046ED
:103A880007B0BDE8F08306EB073000F043FC0137D0
:103A9800E1E71124F3E700BFC06B002029DF70477E
:103AA80028DF704770B503689E6886B004460D46E7
:103AB8006EB114220021684606F0CFFCA368059376
:103AC800237901952BB1012B0DD06846B04706B07C
:103AD80070BD01238DF8003023690293E3680393D6
:103AE80063690493F1E702238DF80030E3681B0350
:103AF8000293F5E70846704700207047024B187A92
:103B0800003818BF01207047B06D0020034B187AA9
:103B18000122B0FA80F05A7440097047B06D002055
:103B280008B510461A4606F06FFC002008BD0000D4
:103B380008B514220021044806F08FFC0348FFF75B
:103B4800CBFA002008BD00BFB06D0020A06D00209A
:103B580010B5094C094B43602046FFF7A7FB48B94D
:103B680006F036FA064920741C2306484FF4EE7214
:103B7800FFF79FFA002010BDB06D0020BCAA070017
:103B8800C46B0020A06D002038B5224D224C2B7A42
:103B98003BB922492248FFF7FBFA206008B9686060
:103BA80038BD022324682B72237973B1012B22D0EC
:103BB80020460321FFF776FF00232B726B6017491D
:103BC8001748BDE83840FFF70EBBD4E90523D21AE1
:103BD800142AD4E9031028BF14229208012A38BFF6
:103BE800012219441844FFF759FF50B11128DFD1B9
:103BF80001232B72D4E7D4E903031844FFF750FFDD
:103C0800F3E72B7C002BCBD1BDE83840022000F035
:103C180009B800BFB06D0020C86D0020C46D002039
:103C2800A06D002038B5224C237A002B3FD0022B00
:103C380009D103282ED01F4B00221B68E2601A7995
:103C48003AB1012A20D0637C6BBBBDE83840FFF74E
:103C58009BBFD3E905128D1A142D94BF5219143243
:103C68009A619142EFD102284FF0000308BF19462C
:103C78002372104B18BF0D211868FFF713FF0E4968
:103C88000E48FFF7B0FADEE71A6901321A615B697C
:103C98009A42E7E7E3680133082B01D8E360D2E7EB
:103CA8000023E360DFE7BDE8384006F081B938BD9E
:103CB800B06D0020C86D0020C46D0020A06D0020EC
:103CC800831E012B01D8FFF7ADBF704700F0FD033D
:103CD800012B08D1044B00225A74421E5042504115
:103CE8001874FFF751BF7047B06D002010B5064C2F
:103CF800201DFFF7DBFA28B9637C1BB9BDE810402B
:103D0800FFF742BF10BD00BFB06D00202DE9F341A1
:103D180080460D46104801A916461F46FFF7FEF9D2
:103D28000446B0B118220021043006F096FB2D0B92
:103D38000123237101A90848C4F80080A760E56041
:103D48006661FFF715FAFFF7D1FF002002B0BDE862
:103D5800F0810420FAE700BFA06D00202DE9F341AF
:103D680080460F460F4801A916461D46FFF7D6F9AB
:103D78000446A8B118220021043006F06EFB089B07
:103D8800A36001A9C4E903670648C4F80080656117
:103D9800FFF7EEF9FFF7AAFF002002B0BDE8F081B7
:103DA8000420FAE7A06D00202DE9F74F99469DF809
:103DB8003030009388469346064618B92349B62002
:103DC800FFF76AF9F28871794A43043A4A4505D8F7
:103DD8001E490192C420FFF75FF9019ADBF80070D1
:103DE800B6F806A007EB0901914209F1040488BF5F
:103DF800A2EB0907B4FBFAF5CBF800700AFB1544EF
:103E080045B9AAEB040BBB4528BFBB462FB903B085
:103E1800BDE8F08F3668013DF2E7009B043408EBFB
:103E2800050034445A466BB12146A7EB0B0706F050
:103E3800EBFABA455D443668D3464FF0000428BF14
:103E4800BB46E3E701462046EFE700BFE8AA0700C4
:103E5800FFF738BAF8B546790146721E05460023C1
:103E680093422D6803D30024A64202D8F8BD01333B
:103E7800F6E70F682846FFF78FFA01343946F3E76B
:103E88002DE9F843068ACD1C0746FFF759FA043E88
:103E980035440446B5FBF6F5F0B14FF48073EDB246
:103EA8008380C680013D076081464FF00008A84521
:103EB80012D23846FFF744FA064648B1637901330F
:103EC800637108F10108C9F8000007608146EEE750
:103ED8002046FFF7BFFF34462046BDE8F88301219E
:103EE8000430FFF7CBB910B5012104460430FFF7C1
:103EF800D1F9C0B220B92046BDE81040FFF7AABFEB
:103F080010BD00001FB5144603920022009203AAB8
:103F1800FFF74AFF039BA34203D00349F620FFF7AC
:103F2800BBF804B010BD00BFE8AA07001FB51446CF
:103F380003920122009203AAFFF736FF039BA342D4
:103F480004D003494FF48070FFF7A6F804B010BD01
:103F5800E8AA0700836800225A60C3E904229A602D
:103F6800DA601A607047000038B50D46044618B983
:103F780009495020FFF790F81DB907495120FFF76C
:103F88008BF82B686A686360934208BF002325603A
:103F980008BF636038BD00BF50AB070010B50446CA
:103FA80018B90B496320FFF777F823681BB908494C
:103FB8006420FFF771F8636843B12268916852681A
:103FC8000B449342636004BF0023636010BD00BFCD
:103FD80050AB070010B50D49A1F59472914201D874
:103FE80000200FE08C1AE30F03EBE4035B1002EBF5
:103FF800C30452F83330834205D802D204F10802D0
:10400800ECE7606810BD2146E8E700BFC8B00700CC
:1040180008B5FFF7DFFF024B002808BF184608BDA8
:104028008BAF07002DE9F04FC9B008AA01F1400590
:1040380014464B780E781B0443EA0663CE78334364
:104048008E78043143EA06238D4244F8043BF0D1CC
:104058001024916B16464FEAF14383EA714383EAD1
:104068009123716A366852F8045F31440B444FEA71
:10407800B54181EAF51181EAD50101340B44402CA0
:10408800D363E6D1D0E914E30093836D0193C36D44
:104098000293036E0393436E0493836E0593C36E7A
:1040A8000693DDE9057BDDE9031CDDE901592B4BAE
:1040B800009E079374464FF00008079B53F8042BA3
:1040C80007934FEAF12383EAB11383EA716A08ABD5
:1040D80053F828301A440AEB020327EA010A01EAD6
:1040E8000C028AEA02021A444FEA743A86EA050385
:1040F8005A4423408AEAB40A06EA050B83EA0B0B02
:104108008AEAB45A08F10108DA44B8F1400F02EB20
:104118000903BB465244A94619D172440265009A64
:1041280022444265019A32448265029A2A44C26551
:10413800039A1A44049B02660B444366059B634436
:104148008366069B3B44C36649B0BDE8F08F67466B
:1041580035468C46264619461446AEE7C8B00700D1
:1041680030B5E0B10F4A104900240025C0E91245D6
:10417800C0E914120D4C0E4A0E4DC0E916420E4A03
:10418800C0E918520D4A826602F17452A2F5230260
:104198000023A2F692420364C266184630BD0E2080
:1041A800FCE700BF85AE67BB67E6096A72F36E3C41
:1041B8003AF54FA57F520E518C68059BABD9831FEA
:1041C80070B5F0B1DAB900201CE00C468D18002655
:1041D800AC42F8D0036C14F8012BC2540133402BC5
:1041E8000364F5D10146FFF71DFFD0E9123213F53C
:1041F800007342F10002C0E912320664E8E70029C0
:10420800E3D10E2070BD70B50D4616460446002851
:1042180076D0002974D0036C8022591C372BE254C5
:1042280008443FD8C3F13702002106F016F9D4E953
:104238001223216C0820E1FB0023C4E9122312BADF
:10424800E26323FA00F284F83B3084F83A201A0C2F
:104258001B0E214684F8392084F838302046FFF7B1
:10426800E1FE691E6EB30023E26EDA4001F8012F09
:10427800A26EDA400A71626EDA400A72226EDA4081
:104288000A73E26DDA400A74A26DDA400A75626D4B
:10429800DA400A76226DDA400833202B0A77E3D118
:1042A800002070BD4029C3F13F024FF0000188BFD4
:1042B800002206F0D2F821462046FFF7B3FE382246
:1042C800B2E71823226DDA4001F8012F626DDA4057
:1042D8000A71A26DDA400A72E26DDA400A73226E40
:1042E800DA400A74626EDA400A75A26EDA400A761B
:1042F800E26EDA40083B13F1080F0A77E2D1CFE704
:104308000E20CEE7024AD2F80034002BFBD07047CB
:1043180000E001400A4908B50223C1F80435BFF39B
:104328006F8FBFF34F8FC1F80805FFF7EBFF00232E
:10433800C1F80435BFF36F8FBFF34F8F08BD00BFBF
:1043480000E0014010B5094C0123C4F80435BFF35F
:104358006F8FBFF34F8F0160FFF7D4FF0023C4F8BE
:104368000435BFF36F8FBFF34F8F10BD00E00140DE
:1043780070B50E4E01231546C6F80435BFF36F8F8E
:10438800BFF34F8F0024AC4207D10023C6F8043591
:10439800BFF36F8FBFF34F8F70BD51F8243040F8D3
:1043A8002430FFF7AFFF0134EDE700BF00E0014024
:1043B80043689B68184708B5436808305A7900F085
:1043C800E9FE002008BD2DE9F0410C469CB00846E6
:1043D8001F460392FFF7ECFFD4F80480039998F87E
:1043E8000550BD4228BF3D4606462A4604A800F0AF
:1043F800B5FE98F8052022990CA800F0CBFE00968F
:104408000CAB2A4604A904F1080001F0FBFD0028C2
:1044180048F2425018BF00201CB0BDE8F0810023CC
:10442800C0E902328B881A44B1F9063002611A4495
:10443800C0E9001142610888003818BF01207047A0
:104448004268118838B50346002937D0148A02F12A
:10445800100141602CB9C2680168FFF7E0FF2046EF
:1044680038BD9078118900F03005302D14D1947C36
:1044780004F03004302C1BD190881969091A19618D
:104488000021908AB2F9162008441969014419617B
:10449800114459610120E3E700F0F004202C07D112
:1044A80050894143002DECD1986801309860E8E7C5
:1044B80000F0C000802808BF0421F3E70846CFE7D2
:1044C80070B5466804460D4663681A88AA4204D146
:1044D8009B7803F00F03082B07D12046FFF7B0FFA6
:1044E8006368B342F0D1002070BD0120FCE7436847
:1044F8001A44426011B101399A4201D10120704732
:1045080013F8010B01F8010FF6E770B54568AA78B2
:1045180002F00F06082E86B003461FD103691C68F7
:1045280000260CB906B070BD236862689D682673C2
:1045380029466846FFF773FF6368049304F10C0388
:104548000593AB7803F0C003802B08BF231D684692
:1045580008BF0493FFF7D9FFA468E2E712F0C0018F
:1045680022D102F0300010280CD15A691170072EA0
:10457800EC6818690BD10146204606B0BDE87040CA
:1045880000F01AB89006F2D55B691980CAE72A8943
:10459800214624B106B0BDE8704005F035BF06B02D
:1045A800BDE8704005F059BF8029BBD100690021E2
:1045B80092060160B6D5E7E77FB50A460146684628
:1045C800FFF72DFF30B16846FFF79FFF6846FFF7FA
:1045D80037FFF7E707B05DF804FB836810B50446BA
:1045E8000BB9002010BD0368012298470028F8D0B5
:1045F800A368013BA360F5E72DE9F3410F460DF1F0
:1046080007018046FFF7E9FF054620B9002528463F
:1046180002B0BDE8F0819DF907309DF80740002BF6
:1046280013DA04F07F0407260DF107014046FFF76F
:10463800D4FF0028EAD09DF8072002F07F03B3409A
:104648001C43130606F1070601D43C60DFE7232E5E
:10465800EAD1DBE730B5044685B01546A9B902684A
:10466800114B9A4211D0102D06D82A466946204689
:10467800FFF7F0FF05B030BD102269462046FFF76E
:10468800E9FF0028F6D0103DEDE7A368AB4201D260
:104698000020EFE723682A46204698470028F7D0ED
:1046A800A268521BA260E5E7F7440700F7B50E467B
:1046B80001A907461546FFF79FFFA0B1019A511CB3
:1046C8004FF0000404D2B37803F0C003802B01D16B
:1046D800204608E033898B42FAD329463846FFF74B
:1046E800B9FF019BEC5403B0F0BD73B50D4601A9A9
:1046F80006461446FFF780FF98B1019AB2F5803F4D
:1047080011D2AB7803F0C003802B02F102010AD06A
:104718002B898B4207D32146304621F8022BFFF71D
:1047280099FF02B070BD0020FBE7000010B5034CF4
:1047380082600022C0E90041C26010BDF744070052
:104748002DE9F341002580460E462F462C460DF1F3
:1047580007014046FFF741FFC0B19DF807C0A4F12B
:1047680020030CF07F02C4F1200102FA03F322FABD
:1047780001F10B43A2401CF0800F45EA020547EA0D
:10478800030704F1070404D1C6E9005702B0BDE8E5
:10479800F081462CDBD10020F8E737B50D46694695
:1047A8001446FFF7CDFF70B12B89082B0DD1DDE939
:1047B8000032C4E90032DDE90001914208BF9842A5
:1047C8000CBF0120002003B030BD042B03D1009B97
:1047D80023600022EFE7022B03D1009B23809BB2CA
:1047E800F7E7012B04D1009B237003F0FF03F0E7E8
:1047F8000020E8E737B50D4669461446FFF7A0FFE5
:1048080030B12B89082BDDE9001203D1C4E900126D
:1048180003B030BD042B4FEAE17009D121600B468B
:104828000246824208BF8B420CBF01200020EFE7FE
:10483800022B03D10BB22380DA17F2E7012B02D146
:104848004BB22370F8E70020E2E7F7B51F460023D4
:104858003B700D460B70136001A904461646FFF71E
:10486800CBFE30B9A36813B901233B70002003B015
:10487800F0BD019C002CF7D0E30804F00704336076
:104888002C70F4E713B50446052925D8DFE801F0B4
:10489800030F17242422012201A92046FFF7DAFE7C
:1048A80018B19DF90430002BF5DB02B010BD0822C9
:1048B8000021204602B0BDE81040FFF7CBBE01A999
:1048C800FFF79AFE0028F0D0019A00212046FFF752
:1048D800C1FEEAE70422EBE70020E6E773B50D46E0
:1048E80001A90446FFF788FE064618B90026304697
:1048F80002B070BD94E80F0085E80F0001998A4264
:10490800F4D3A960A3685B1AA360F0E72DE9F0432C
:104918005668B37813F0C00489B007468C4615462C
:1049280003D0402C69D000240CE003F00F0260494A
:1049380003F03003202B51F8228025D006D8E3B1AC
:10494800102B17D0204609B0BDE8F083302BF9D1E1
:104958006B6931881980072A09D12146328928696B
:1049680005F07BFD6B682969D868FFF725FE2A6981
:10497800696840E06B6901221A702A69314643462A
:1049880009B0BDE8F0431847BCF1020FD5F8149000
:1049980024D1042A22D804A9FFF7A0FF044600283E
:1049A800C1D0069B2BB16968B9F800304A899A4290
:1049B80005D8059B7B60069B002BC3D0B3E708890D
:1049C8002A6903FB002204A8C04728B1B9F80030BF
:1049D8000133A9F80030E4E70446EAE7B9F8003003
:1049E80072899A429FD931892A69581C03FB01228E
:1049F800A9F8000031463846C1E7D2F8108046468B
:104A080056F8043B23B909B0BDE8F043FFF73ABFB5
:104A1800022914D104A9FFF761FF002883D0D8F830
:104A280000306968324604A89847044600283FF4D5
:104A38007AAF069B002BF2D1059B7B6082E70129A8
:104A480026D005292CD000297FF46DAF0C460DF136
:104A5800040901340B2C3FF466AF0122494638465D
:104A6800FFF7F8FD00283FF45EAF19F9013B002B72
:104A7800EFDB104B049301ABCDE90534002307931A
:104A88006968D8F80030324604A89847044659E7C0
:104A9800082201A9FFF7DEFD08240028E9D142E732
:104AA80004220DEB0201FFF7D5FD0424F5E700BF52
:104AB800D4B10700F74407002DE9F04F91B0044640
:104AC800002604A8CDE90266FFF7A9FCA3683BBB52
:104AD800DDE9053404A89D78FFF7B2FC0028F7D17A
:104AE80015F0300F03D1059B1B8803B10134002C4E
:104AF80000F0A980630902A90022934240F09C803B
:104B080010AA02EB830304F01F0453F8383CC4F1E5
:104B180020044FF0FF30E040C31A584258410DE0DE
:104B28000DF1030301AA0DF102012046FFF78DFEE6
:104B380038B99DF80330002BCAD1002011B0BDE868
:104B4800F08F019904A8FFF7BBFC002850D1019B06
:104B5800B3427DD3059D059A937803F00F03082B84
:104B68007FD004A8FFF76CFC059B9D42F3D14FF062
:104B7800FF36019FB7426BD3089B9DF802A0D4F87B
:104B880008801D684FF00109A368002D5DD0984585
:104B98009CD12B68D3F800B0BBF1000F08D0534666
:104BA8003A4629462046D8470028C6D0AD68EBE7E4
:104BB800D3F808B0BBF800309F42F7D16A6859466D
:104BC8000AA8FFF72CFC6B680E9305F10C030F93F2
:104BD8009BF8023003F0C003802B04BF2B1D0E93FB
:104BE8000AAA85F80C9051462046FFF78FFEDBE7AE
:104BF800059B9B7813F0300F0FD1069A3F2A0CD8EB
:104C0800510910AB03EB810102F01F02012393400D
:104C180051F8382C134341F8383CE5682DB19DF81C
:104C28000220019904AB2046A8479DF8021004AA67
:104C38002046FFF76BFE10E051F8045B01357FF466
:104C48007DAF013259E7012078E798457FF43EAF00
:104C58009DF802102046FFF715FE00287FF436AFB6
:104C68006BE7168885E737B50C460546114620469A
:104C78000192FFF7A1FC019A2146284603B0BDE83E
:104C88003040FFF719BF70B586B0CE6801920C4668
:104C980002A90546FFF722FE68B1E06858B1A3787B
:104CA800019A03F03003202B314602A805D1FFF703
:104CB800DAFF039B6B6006B070BDFFF7FDFEF8E7F7
:104CC80013B50C466946FFF73BFD60B1DDE90013FB
:104CD8004A0842EAC372C9074FEA530344BFD243A2
:104CE800DB43C4E9002302B010BD37B50D46694661
:104CF8001446FFF7E5FF70B12B89082B0DD1DDE9CC
:104D08000032C4E90032DDE90001914208BF98424F
:104D18000CBF0120002003B030BD042B03D1009B41
:104D28002360DA17EFE7022B03D1BDF900302380A7
:104D3800F7E7012B03D19DF900302370F1E700203C
:104D4800E9E713B504220C460DEB0201FFF782FCDC
:104D580008B1019B236002B010BD1146FFF7F1BFF7
:104D680013B508220C466946FFF774FC18B1DDE953
:104D78000023C4E9002302B010BD1146FFF7F0BFBD
:104D88001F2808B504D9044940F2CD10FEF784F96C
:104D98004FF0A04008BD00BFF8B10700032810B5C8
:104DA800044603D906494120FEF776F9054B1C5DF8
:104DB8002046FFF7E5FF0123A340C0F80C3510BDDE
:104DC80023B207007DB20700032810B5044603D9B3
:104DD80006494720FEF760F9054B1C5D2046FFF7A2
:104DE800CFFF0123A340C0F8083510BD23B2070048
:104DF8007DB2070008B50020FFF7E6FF0120FFF7A6
:104E0800E3FF0220FFF7E0FFBDE808400320FFF7BB
:104E1800DBBFC20738B5044616D51120FFF7B0FF2F
:104E28000325C0F844571220FFF7AAFFC0F84857D7
:104E38001320FFF7A5FFC0F84C571420FFF7A0FF79
:104E4800C0F85057FFF7D6FFA30714D50D20FFF77A
:104E580097FF0C24C0F834470E20FFF791FFC0F8E5
:104E680038470F20FFF78CFFC0F83C471020FFF7AA
:104E780087FFC0F8404738BD38B1054B0360054B84
:104E8800436001230372002070470E20704700BF63
:104E9800C74E0700A14E070069B10B78022B0CD151
:104EA800022804D0032814BF0820112070470323C8
:104EB8000B70002070470E2070470820704710B50F
:104EC8000C4681B10B78012B06D00ED9033B012B80
:104ED80094BF0820112010BD03F0BCFE0028FAD1B1
:104EE80002232370F7E70E20F5E70820F3E7000018
:104EF80070B5144B144A0C21D21AB2FBF1F2816935
:104F080011F8025C044635B900690021914205D1C7
:104F1800012323600EE04FF0FF30F6E71E68AE4233
:104F28000CD1461C07D19D68D4E90001D4E90223BD
:104F3800A847206070BD5E688642F4D001310C330A
:104F4800E4E700BF74A5070080A507001EF0040F62
:104F58000CBFEFF30880EFF30980FFF7C9BF00BF6C
:104F680028B139B10023C1E900301846704748F22A
:104F78001050704748F21350704730B1036848F238
:104F880040508B4208BF0020704748F210507047CD
:104F980028B148F21150914208BF0020704748F2EA
:104FA8001050704770B506460C461D46FFF7D8FFEF
:104FB80050B9B3794AB1AB420AD111462046FFF73E
:104FC800FAF908B9044B236070BD48F21050FBE7AA
:104FD80048F21150F8E700BF7052464D2DE9F047EE
:104FE8000C4606460F492046DDE9088915461F4646
:104FF800FFF7C3FFA0B963685A7949465200404693
:10500800FFF7C6FF60B94DB1CDF820803B462A4670
:1050180021463046BDE8F047FFF7D5B948F21050B1
:10502800BDE8F0877052464D10B5044638B149B115
:105038000B684160984708B9044B236010BD48F2DB
:105048000150FBE748F21050F8E700BF6E5246489F
:10505800F0B4134648B10768094EB7420AD161B1A6
:105068002AB14368F0BC5B68184748F201531846F8
:10507800F0BC704748F20253F9E748F21053F6E7DC
:105088006E524648F0B460B107680C4EB7420CD176
:1050980071B143681568DC68A5420CD3F0BC9B6805
:1050A800184748F20150F0BC704748F20250FAE73E
:1050B80048F21350F7E748F21450F4E76E524648A6
:1050C800F7B50446DDE9086715460193FFF7ACFF1D
:1050D80068B9019A29462046FFF7BAFF38B93A4617
:1050E8003146204603B0BDE8F040FFF7CBBF03B020
:1050F800F0BD0000F8B50A4F0A4C0B4EE41B012323
:10510800E40833700025A54203D102233370002040
:10511800F8BD57F8353098470028F9D10135F2E73E
:105128006CA507006CA50700CC6D002038B50D46AE
:10513800044618B908493320FDF7AEFF691E21441B
:105148002046814200D238BD03780A7800F8012B46
:1051580001F80139F5E700BF81B2070070B50D46C7
:105168001446064618B90A494520FDF795FF1DB9AA
:1051780007494620FDF790FF621E3244013DB242C6
:1051880000D270BD15F8013F02F80139F7E700BFFA
:1051980081B2070070B5164604460D46FFF7DEFFDC
:1051A8003246A919A019BDE87040FFF7D7BF38B536
:1051B8000D460446FFF7BAFF29466019BDE8384096
:1051C800FFF7B4BF08B507281BD8DFE800F00412C2
:1051D8001A1A1A041A040120FFF71BFE0020FFF711
:1051E800DDFD0120FFF7DAFDBDE808400220FFF7EA
:1051F800EBBD0120FFF7E8FDBDE808400220FFF7FE
:10520800CDBD08BD08B5FDF7DFFCFDF7A5FA002800
:10521800FBD10D4D642445F001054FF47A40A847B1
:10522800013CFAD1094BD3F8F020D20700D500BED3
:10523800BFF34F8FD968064A01F4E0610A43DA6088
:10524800BFF34F8F00BFFDE7C0B3070000ED00E0DC
:105258000400FA0507B50B46064C07490092641A84
:10526800E40824040246054944F00100FDF701FC66
:10527800FFF7C8FF80A5070080A5070030B3070027
:1052880008B50246054B064806491B1ADB081B04ED
:1052980043F00100FDF7DAFBFFF7B4FF80A5070034
:1052A80080A5070067B3070010B501F0E7FE0022EC
:1052B80010464FF4805101F0AFFA024608B1FFF7EB
:1052C800DFFF1548C0F5FC2101F0A6FA01460028C9
:1052D800F5D11248124CFDF7E5F9FDF705F9114B28
:1052E8001149E41AE408240444F00300FDF7AAFB7A
:1052F8000E4801F03FF90028E1D1FDF72DFA00280A
:10530800FBD10B4944F00100FDF79CFBFDF724FAA3
:105318000028FBD1D3E700BF00200700A96B0700D6
:1053280080A5070080A5070082B30700CD510700BC
:105338008EB307008B1802448B4200D1704713F8D4
:10534800010D02F8010DF7E7C3F10803DB0070B5A2
:1053580001330446002003A55B1920C940CAAD19D2
:1053680020C4184720C940CA754120C420C940CA72
:10537800754120C420C940CA754120C420C940CA0B
:10538800754120C420C940CA754120C420C940CAFB
:10539800754120C420C940CA754120C4404170BD30
:1053A8000000000000000000C3F10803DB0070B536
:1053B8000133002403A500BF5B1920C940CAAD1BF7
:1053C80020C0184720C940CAB54120C020C940CADA
:1053D800B54120C020C940CAB54120C020C940CA33
:1053E800B54120C020C940CAB54120C020C940CA23
:1053F800B54120C020C940CAB54120C06441B4FAB3
:1054080084F0400970BD00BF2DE9F04F08B4F8CA18
:1054180004B451F8042BA3FB028940F8048B4FF025
:10542800000AE4FB629A4FF0000BE5FB62AB4FF019
:10543800000CE6FB62BC4FF0000EE7FB62CE51F8B1
:10544800042B4FF00008E3FB628940F8048BE4FB6F
:10545800629AE5FB62ABE6FB62BCE7FB62CE51F801
:10546800042B4FF00008E3FB628940F8048BE4FB4F
:10547800629AE5FB62ABE6FB62BCE7FB62CE51F8E1
:10548800042B4FF00008E3FB628940F8048BE4FB2F
:10549800629AE5FB62ABE6FB62BCE7FB62CE51F8C1
:1054A800042B4FF00008E3FB628940F8048BE4FB0F
:1054B800629AE5FB62ABE6FB62BCE7FB62CE40F8B2
:1054C800049B40F804AB40F804BB40F804CB40F818
:1054D80004EB0CBC052B00F01E810C68A0F1140035
:1054E800A1F11401A2F1140252F804EB4FF00005E7
:1054F80050F8046BE4FB6E5652F804EB50F8047B4A
:10550800E4FB6E6752F804EB50F8048BE4FB6E780A
:1055180052F804EB50F8049BE4FB6E8952F804EB54
:1055280050F804ABE4FB6E9AA0F1140052F8044B57
:1055380051F804EB4FF0000CE4FB6EC540F804CBC7
:1055480051F804EBE4FB6E5640F8045B51F804EBA9
:10555800E4FB6E6740F8046B51F804EBE4FB6E78EB
:1055680040F8047B51F804EBE4FB6E8940F8048BA7
:1055780051F804EBE4FB6E9AA0E80006062B00F055
:10558800CA800C68A0F11800A1F11801A2F1180254
:1055980052F804EB4FF0000550F8046BE4FB6E562C
:1055A80052F804EB50F8047BE4FB6E6752F804EB06
:1055B80050F8048BE4FB6E7852F804EB50F8049B27
:1055C800E4FB6E8952F804EB50F804ABE4FB6E9AE6
:1055D80052F804EB50F804BBE4FB6EABA0F11800E2
:1055E80052F8044B51F804EB4FF0000CE4FB6EC585
:1055F80040F804CB51F804EBE4FB6E5640F8045B2A
:1056080051F804EBE4FB6E6740F8046B51F804EBC7
:10561800E4FB6E7840F8047B51F804EBE4FB6E89F8
:1056280040F8048B51F804EBE4FB6E9A40F8049BB5
:1056380051F804EBE4FB6EABA0E8000C072B6AD032
:1056480008B40C68A0F11C00A1F11C01A2F11C0215
:1056580052F804EB4FF0000550F8046BE4FB6E566B
:1056680052F804EB50F8047BE4FB6E6752F804EB45
:1056780050F8048BE4FB6E7852F804EB50F8049B66
:10568800E4FB6E8952F804EB50F804ABE4FB6E9A25
:1056980052F804EB50F804BBE4FB6EAB52F804EB91
:1056A80050F804CBE4FB6EBCA0F11C0052F8044B8C
:1056B80051F804EB4FF00003E4FB6E3540F8043B6F
:1056C80051F804EBE4FB6E5640F8045B51F804EB28
:1056D800E4FB6E6740F8046B51F804EBE4FB6E786A
:1056E80040F8047B51F804EBE4FB6E8940F8048B26
:1056F80051F804EBE4FB6E9A40F8049B51F804EB74
:10570800E4FB6EAB40F804AB51F804EBE4FB6EBC71
:10571800A0E8001808BCBDE8F08F002310B51C46AF
:105728005AB2914200DC10BD40F823400133F7E73C
:1057380010B500231A465CB2A14203DCB2FA82F02B
:10574800400910BD50F8234001332243F3E74A11C2
:10575800012350F8220001F01F0103FA01F108406B
:105768007047013910B549B2041D0A06CBB204D4FA
:10577800013954F82120002AF7D001335BB273B104
:1057880003F18042013A50F82220002022B9013B5F
:1057980000EB431318B210BD52080130F6E7184663
:1057A800F9E710B500235CB2A24200DC10BD51F845
:1057B800234040F823400133F5E710B5013A52B2CF
:1057C800130601D5002010BD50F8224051F82230B0
:1057D8009C4205D802F1FF32F2D24FF0FF30F2E7D7
:1057E8000120F0E700EB81010023884200D37047D5
:1057F80051F8042D43EA52030B60D307F5E737B598
:105808001D469DF9183001930446FFF79DFD019B45
:1058180038B91A4621462846FFF7CFFF0128019BD1
:1058280007D02A462146204603B0BDE83040FFF79E
:10583800BBBD03B030BD37B51D469DF91830019387
:105848000446FFF7B1FD019B38B12A4621462046A0
:1058580003B0BDE83040FFF777BD03B030BD2DE998
:10586800F04FB5B004AC9DF9F8501E4680462B4663
:105878002046FFF7C9FD24AB29463046CDE902345E
:10588800FFF76FFFC0EB851004B2002C2146B8BFAC
:1058980004F11F01634241F3471103F01F0314A8E9
:1058A80004F01F0758BF5F42FFF737FF002F08B209
:1058B8002BDD14AB002203EB8001C7F1200E134649
:1058C800AB4217D36B00019314AB03EB85096F1E32
:1058D80034AB012603EB8707002C54DA34AB03EB17
:1058E80086062A4656F8C81C4046FFF75AFF35B0C8
:1058F800BDE8F08F56F823C00CFA07F0024341F8D0
:10590800042B01332CFA0EF2DAE714AB2A4631469F
:1059180003EB8000FFF745FFD4E70FFA82FE5AF841
:10592800C83C53F82EB034AB03EB8202013052F876
:10593800803C0B44BBEB030334BF012200229B4590
:1059480018BF11465CF8C82C42F82E30019B42B2B1
:105958009A42E2DB731A5E42294614A85E41FFF7B9
:1059680041FF34AB03EB8503294653F8802C57F8E5
:10597800803C484643EAC273013C47F8803C24B265
:10598800FFF730FFA8E734AB0020C6F1010C014651
:1059980003EB860A03EB8C0CD8E730B51C4691B0B4
:1059A800054693F900306846FFF72EFDD4F8AC3071
:1059B80069462846984711B030BD13460A46FFF796
:1059C800ECBF2DE9F04793F9006092B00446894690
:1059D8001046314615461F46FFF7AAFE002840F03C
:1059E80091803A46494602A8FFF7E7FF3B4602AADC
:1059F80021460AA8FFF7D1FF02A908463A46FFF751
:105A0800DCFF3B462A4649464846FFF7C6FF07F1F2
:105A180004083A4629462846FFF7CFFF43462A4658
:105A2800214620460096FFF7EAFE43462A462946C5
:105A380028460096FFF7E3FE43462A4621462846B5
:105A48000096FFF7F8FE3B462A4621462046FFF718
:105A5800A4FF43462246214628460096FFF7CFFE7C
:105A6800434600962A4621462046FFF7C8FE23688B
:105A7800DB074AD53346424621462046FFF764FCF9
:105A8800314682462046FFF7ADFE06F18043013BD2
:105A980054F8232042EACA7244F823203A462146A1
:105AA8002846FFF78AFF43460AAA29462846009651
:105AB800FFF7C1FE43460AAA294628460096FFF783
:105AC800BAFE0AA9084643462A460096FFF7B3FEDF
:105AD8003B460AAA21462046FFF75FFF02AA434633
:105AE800104621460096FFF7A6FE32462946204674
:105AF800FFF757FE49462846FFF753FE02A94846D6
:105B0800FFF74FFE12B0BDE8F08731462046FFF799
:105B180069FEC3E72DE9F04115468AB004460E46F2
:105B28001C22002103A804F098FC2F1D95F9008081
:105B380003232A46314620460293FFF73EFF3B46A1
:105B480002AA21462046CDF80080FFF774FE2B46B6
:105B5800324621462046FFF720FFCDF800803B461D
:105B680005F1840221462046FFF749FE0AB0BDE848
:105B7800F08100002DE9F042082288B00C468146E9
:105B8800FFF70FFECB6A03930B6B04934B6B0593E4
:105B98008B6B0693CB6B0793002708236A466946ED
:105BA8006846CDE901770097FFF7CEFB0823054645
:105BB8006A4649464846FFF7C7FB236B0393636B66
:105BC8000493A36B0593E36B0544CDE906376A4656
:105BD800082369466846FFF7B7FB082305446A4669
:105BE80049464846FFF7B0FB236A0093636A01936E
:105BF800A36A0293A36B0693E36B079305440823F8
:105C08006A4649464846CDE904770397FFF79CFB67
:105C1800636A0093A36AA26B0193E36A02930492F6
:105C2800636BE26B0393CDE90523236A07932E1870
:105C380008236A4649464846FFF786FBE36A00930D
:105C4800236B0193636B0293236A0693A36A0793FA
:105C5800351808236A4649464846CDE9047703972C
:105C6800FFF7A2FB236B0093636B0193A36B029373
:105C7800E36B0393636A0693E36A07932E1A082378
:105C88006A4649464846CDE90477FFF78DFB636BC2
:105C98000093A36B0193E36B0293236A0393636AF4
:105CA8000493A36ACDE90537236B0793361A0823B3
:105CB8006A4649464846FFF777FBA36B0093E36BB8
:105CC800CDE90137636A0393A36A0493E36ACDE9D4
:105CD8000537636B0793361A08236A4649464846D0
:105CE800FFF762FB361A0E4C0FD436B90822494624
:105CF8002046FFF762FD01280FD0082322464946B7
:105D08004846FFF751FB361AEFE708232246494673
:105D18004846FFF719FB3618F7D408B0BDE8F082FB
:105D2800CCB3070070B514468AB006460D461A462D
:105D3800214602A80193FFF740FE019B02AA3146C3
:105D48003046FFF72AFE02A9019B22460846FFF7C4
:105D580024FE019B02AA29462846FFF71EFE0AB028
:105D680070BD2DE9F0478AB01446DDF848A05546C5
:105D78001F4615F9046B0096804689462B46024655
:105D8800214602A8FFF757FD02A952460846FFF729
:105D980014FE534602AA41464046FFF7FEFD53460D
:105DA80002AA21462046FFF7F8FD2B464A46394607
:105DB80038460096FFF73FFD5246394602A8FFF7DE
:105DC800FCFD02A92B46424608460096FFF733FD24
:105DD80002A92B46224608460096FFF72CFD2B46C3
:105DE8004246214620460096FFF725FD53462246A7
:105DF80049464846FFF7D1FD2B4602AA41462046B0
:105E08000096FFF718FD5346224639463846FFF7F5
:105E1800C4FD2B464A46394638460096FFF70BFD27
:105E2800324602A92046FFF7BCFC0AB0BDE8F0875D
:105E38002DE9F0479846B3F90230894613F11F015E
:105E480048BF03F13E01DD1D48BF03F10E05EC100C
:105E58004E11944275B228BF144629460746FFF7EB
:105E68005CFC22464946FFF765FAB8F90230B3EB05
:105E7800C40F4FEAC40220D2D21A07EB86010020D1
:105E8800C2F120068F420FD308F124082A4639466A
:105E98004046FFF792FC01280FD02B464246384671
:105EA800BDE8F047FFF780BA51F8044D24FA02F331
:105EB80003430B6004FA06F0E4E7BDE8F08770B529
:105EC800036813F001060546144605D013460A4632
:105ED8000146FFF739FA064621462846FFF782FCB5
:105EE80046B104F18042013A55F8223043F00043AC
:105EF80045F8223070BDF0B50F46A1B006461946E8
:105F0800384615461C46FFF713FC20B13046FFF70C
:105F180004FC21B0F0BD224639466846FFF741FC33
:105F2800294608A8FFF73DFC10A82146FFF7F5FB16
:105F3800012318A81093FFF7F0FB224608A968462A
:105F4800FFF73BFC28B9224610A93046FFF729FC89
:105F5800DFE7009BDA0709D421466846FFF742FCD1
:105F68002246294610A8FFF7AAFFE6E7089BDB07A9
:105F780007D4214608A8FFF735FC2246294618A869
:105F8800F1E7002823461CDD08AA69466846FFF7A2
:105F98000BFA21466846FFF725FC224618A910A8E7
:105FA800FFF70BFC002805DA10A923462A46084605
:105FB800FFF7CAF910A9234618AA0846FFF7F4F90B
:105FC800CEE708A96A460846FFF7EEF9214608A871
:105FD800FFF708FC224610A918A8FFF7EEFB0028D7
:105FE80005DA18A923462A460846FFF7ADF918A985
:105FF800234610AA0846FFF7D7F9BEE700487047BE
:10600800C8B307002DE9F04F2DED028BEDB089469E
:10601800789E05901946B6F9023096F9004013F1BA
:106028001F0748BF03F13E0747F3471707F1FF3B38
:1060380024AB002543F82B506CAB03EB8B0307EE26
:10604800902A4CA896F9012043F8805C43F8605CDC
:10605800FFF770F996F9012054A81144FFF76AF97F
:1060680021464CA8FFF764FB8046002840F0428197
:1060780054A8FFF75DFB0390002840F03D8106F12E
:10608800240A3A464CA95046FFF797FB012840F0EE
:1060980035813A4654A95046FFF78FFB01280690F0
:1060A80040F02C811CAD3B46524654A92846FFF7C8
:1060B80022FF0DF13008039B48F82B3017EE902A89
:1060C800494640463346FFF7B3FE414640465346ED
:1060D8002A460097FFF7C3FB0DF5B87B53462A46BF
:1060E8004CA914A80097FFF7BAFB22465846059911
:1060F800FFF757FBA3000793059B0BEB840903EB02
:1061080084014846FFF74DFB06F14403194634A8BD
:106118000493FFF746FB049BA10059183CA8FFF71E
:1061280040FB331D08EE903A594634AA284600949D
:10613800FFF781FB4B465A463CA934A80096FFF767
:1061480010FE18EE902A234629462846FFF7D3FE6C
:106158002A46494658463346FFF7E4FD039B089311
:10616800049B0993059B39464046CDE90A3BFFF756
:10617800F8FA3946834614A8FFF7F3FA5845B8BF2A
:1061880058461FFA80FB0BF1FF3109B240460491D3
:10619800FFF7DDFA0499B0F1000814A818BF4FF012
:1061A8000108FFF7D4FA002814BF0220002048EAAB
:1061B80000080DF12009224659F8281024A8FFF7F5
:1061C800F0FA0DF1B009A30019444846FFF7E9FABF
:1061D80021462846FFF7A1FA069B2B60ABF102087F
:1061E80024AB08EE105A0FFA88F80493B8F1000FA0
:1061F8002ADA18EE902A18EE101A18EE100A23461A
:10620800FFF779FE18EE102A049833464946FFF73F
:1062180089FD04993A465046FFF7CFFA012805D080
:1062280004993B4652460846FFF7BEF8013C64B263
:106238004CAA230653D5039BB3FA83F040096DB0EB
:10624800BDEC028BBDE8F08F334618EE102A049897
:10625800D6F8A4504946A84741460CA8FFF777FA54
:106268004146B0F1000B14A818BF4FF0010BFFF71F
:106278006EFA002814BF022000204BEA000B08AB7E
:1062880053F82B1031B3224634A8FFF78AFA079B3C
:106298003CA81944FFF785FA18EE102A33463CA9A2
:1062A80034A8FFF73FFD18EE903A0499009434AAF9
:1062B80044A8FFF7C0FA049A00964B463CA934A8B4
:1062C800FFF74FFD18EE101A18EE100A334644AACD
:1062D800FFF763FB08F1FF380FFA88F886E7049B9D
:1062E80052F8241053F824304B4003991943039172
:1062F800013C9EE72846A2E74046A0E703989EE7B0
:106308000369C26893429CBF80681B18013B981AB6
:1063180070472DE9F843D0E902940546A9EB040833
:106328004068904520440F46144404D904F06CF8A2
:10633800EC60BDE8F8834246A4EB090404F064F875
:106348006868224607EB0801F0E72DE9F843C568BD
:106358000646894617464FF000083469B3687068E6
:10636800A54228BFE418013C621B5C1BBC4228BF45
:106378003C46944228BF144649462844224604F025
:1063880043F8B3682544AB4208BF00253F1BA0442F
:10639800A144F560E1D14046BDE8F88310B5114C41
:1063A800114AA2610223C4E90433104BE361A264D9
:1063B8004FF480530E4A0F492362E26400231022EF
:1063C800E01DA3626362E362A3656365E36522651A
:1063D80004F076F80849204604F072F82023A371E7
:1063E80010BD00BFD06D002078B40700586E0020A3
:1063F800486E002081B4070085B4070070B5164BBD
:10640800182400FB04451D4404FB00331646DC6ACF
:10641800012C0ED0022C18D0E4B92846FFF770FFE3
:10642800864204D832462846FFF773FF3446204692
:1064380070BD2846FFF764FF8642344628BF0446ED
:1064480022462846FFF765FFF1E72846BDE8704079
:10645800FFF77BBF0024EAE7D06D0020FFF79EBF5F
:1064680041DF7047014B01221A7070477882002083
:1064780008B5FCF7A9FBFCF76FF90028FBD1BFF3BF
:106488004F8F0549054BCA6802F4E0621343CB609D
:10649800BFF34F8F00BFFDE700ED00E00400FA05F1
:1064A80008B50948094B0A49C01AC008000440F059
:1064B8000400FCF7C7FA074B074800221A70BDE82A
:1064C800084002F081BB00BF80A5070080A5070037
:1064D8008CB40700788200207964070008B5074863
:1064E800074B0849C01AC008000440F00300FCF735
:1064F800A9FABDE80840FFF7D3BF00BF80A5070091
:1065080080A50700A2B40700042810B5044609D8DE
:1065180002280DD812D00B4B1B6893B12046BDE85A
:1065280010401847831F012BF5D8FFF7B9FFF2E792
:1065380005494FF4701000F0F3FAECE702F038FA6E
:10654800E9E710BD7C820020E564070008B506482D
:10655800064B0749C01AC008000440F00400FCF7C5
:1065680071FA002008BD00BF80A5070080A50700BC
:10657800B6B40700F8B5714B714C7249E41AE408D7
:10658800240444F0040605463046FCF75BFA6E4BDB
:106598006E4A1D604FF0A0430020C3F8402702F068
:1065A80029FB002840F0C48000F072FC012800F0AC
:1065B800B880022800F0BE80002840F0B9804FF073
:1065C8008043D3F8005415F480354BD04FF4803213
:1065D800C3F8002405465E4F3B6A012B55D05D4940
:1065E80044F00300FCF72EFA5B493046FCF72AFA20
:1065F8004FF4701400F0A0FD584A20211820FCF731
:106608001BFC08B1FEF73CFE4FF08043D3F81C2575
:1066180002F0F802B02A09D1D3F81C25D20742BFEC
:10662800D3F81C2502F04E02C3F81C25FFF78EFF95
:1066380000287DD120464A4900F072FA494800F006
:1066480055FF002874D148493046FCF7FBF900F0A3
:10665800B9FDFCF779FCFCF77FF80028F7D1FFF7C4
:10666800FFFEF4E7D3F8202502F0F802A82A0AD1A1
:10667800D3F82025D00706D5D3F8202502F05602F6
:10668800C3F82025A7E70125A5E74FF440535A682A
:10669800364B9A420FD17A6B1DB997F86032012BAD
:1066A80009D033484FF4805103F0FEF818B9314946
:1066B80044F0020096E702F0AFFBBA6901461DB943
:1066C80097F8A132012B05D02B4803F0EDF808B953
:1066D8002A49EDE72A493046FCF7B4F94FF0A043C0
:1066E800D3F81035D90301D426497EE74FF080430B
:1066F800D3F81C3513F0B10F01D0234975E702F028
:10670800E5FAA8B9214D2870214802F05DFA2B78E6
:1067180023B920494FF40170FCF7BEFC00F03EF8A5
:1067280001E0FFF7BDFE1C4944F00100FCF78AF9BF
:106738000320F8BD4FF4A0245CE700BF80A5070044
:1067480080A50700D0B407007C8200200C0003005D
:106758004C9A0020E7B4070085B50700587E002052
:10676800E564070011650700F4B50700DBE5B151E2
:10677800AC9C002015B50700ED9C002050B5070023
:1067880078B50700A8B50700C7B5070078820020CC
:106798006D64070004B60700E8B5070037B5184B65
:1067A800184C194D1949E41AE408240444F004006B
:1067B8004FF480520190FCF749F9D5F8802014492C
:1067C8000198FCF743F94FF0FF33C5F88030C5F85E
:1067D8008031C5F88430C5F8843101F0A1FD20B1BD
:1067E8000C4944F00100FCF72DF9FBF7B5FF002830
:1067F800FBD14FF4805003B0BDE8304000F03AB808
:1068080080A5070080A5070000E100E074B6070036
:10681800AAB60700D4B6070070B5C1F30B0434BBA1
:10682800B0F5FE2F23D84B1E1B0B020B03EB1031C8
:1068380001264FF08040914201D2204670BD02F0FF
:106848001F03550906FA03F3032D05D8DFE805F001
:106858000206090CC0F800360132ECE7C0F804362D
:10686800FAE7C0F81036F7E7C0F81436F4E707245B
:10687800E3E7000038B5044627480022C0F5FE21AA
:10688800FFF7CAFF054668B12448254B25491B1A5E
:10689800DB081B0443F001002A46FCF7D7F828461A
:1068A800FEF7EEFC02F0B8FA1F4B9B6903F6FF7384
:1068B80023F47F6323F00F03002219181046FFF713
:1068C800ABFF054668B11548154B18491B1ADB087C
:1068D8001B0443F001002A46FCF7B8F82846FEF7E7
:1068E800CFFCEFF305820023D4E9005483F3148826
:1068F80083F3108883F3118883F31388C2F30802A3
:106908001AB10B496E20FCF7C7FB85F308884FF0D6
:10691800FF339E46204738BD0020070080A50700AA
:1069280080A5070009B707004C9A002040B7070068
:1069380074B7070073B5274B064627481B1ADB08B0
:106948001B040C463246254943F00400FCF77EF848
:10695800B4F1807F39D322498F20FCF79DFB6FF07B
:106968007F41A14228BF21461E4B641AD3F8045523
:10697800631E942B96BF9634746074600D44347B08
:1069880025F07F4598BF963D032C03D914497720FD
:10699800FCF782FB134E04F5A8734FF4F86046F831
:1069A8002350114B43F001039847104BA2001344A6
:1069B80000221A601B680193019B4FF4803303FA8D
:1069C80004F4C6F8044302B070BD952CC7D8044936
:1069D8009020C2E780A5070080A50700F4B707004C
:1069E8000AB8070000400240B0B807004041024022
:1069F8001FB518490B7853BB4FF08043A024D3F838
:106A08001824D2035CBF01229A60134B0022C3F8FA
:106A18000021D3F8000103900398C3F84021D3F86C
:106A2800400102900298C3F84421D3F84401019030
:106A380001980A4880F8244310244460C3F80825C4
:106A4800022001229A601A60C3F804030A7004B095
:106A580010BD00BF848200200040024000E100E039
:106A6800264B2DE9F743D3F8042152B124490A688B
:106A780001320A600022C3F80421D3F804310093DC
:106A8800009B204D204B214C214EDFF89080DFF8F1
:106A98006C90204FED1AED082D0445F0040533687D
:106AA800CBB1002333603368019322464146284620
:106AB800019BFBF7CBFF227B17494FF480339340B0
:106AC800C9F8083322462846FBF7C0FF616851B170
:106AD8002046FFF72FFF0436BE4204F11004DED132
:106AE80003B0BDE8F083A16811B12046FFF722FF8B
:106AF8002368002BEFD09847EDE700BF0040024025
:106B08008082002080A5070080A507008459002006
:106B1800404102404841024097B8070085B8070045
:106B2800F8B5114B114E0446114837681B1ADB089B
:106B38001B043A4643F004000D460E49FBF786FF56
:106B48003A7B4FF4803393400B4AC2F808334CB178
:106B58003668FFF74DFF356021463046BDE8F840FE
:106B6800FFF7E8BEF8BD00BF80A50700A4590020C4
:106B780080A5070085B807000040024070B5074BA4
:106B88001D6804460E46A860FFF732FF2E602146B6
:106B98002846BDE87040FFF7CDBE00BFA8590020C9
:106BA800034A044B1068D3F8043503EB00607047C0
:106BB8008082002000400240014B01221A70704779
:106BC800858200202DE9F341264FFB6A7E6ABC6C62
:106BD800AC2B38D17B6B1C44F61A234B234D244A2B
:106BE80024490096ED1AED082D0445F004082346C3
:106BF8004046FBF73EFFFB6AAC2B06D11C483246E9
:106C0800A4F5804103F0C6FB18B319483246214663
:106C180003F0C0FBE8B11849334622464046FBF76B
:106C28001EFFFBF799FD0028FBD100F0CBFA2046A8
:106C3800314601F057FB044680B1104945F0010088
:106C4800FBF700FF0AE0002CC7D102F0F9F8044670
:106C5800C3E70B494046FBF7F5FE0024204602B087
:106C6800BDE8F0814C9A002080A5070080A50700A8
:106C780000200700B6B80700EBB807004FB90700B7
:106C880018B907002DE9F04F3C4B16463C4A9B1AB1
:106C980087B0DB081B04814205460F46049343F086
:106CA800040B08D137495846FBF7CCFE0024204690
:106CB80007B0BDE8F08F03D233494F20FCF7ECF959
:106CC800C5F30B031BB130495120FCF7E5F97B1BD9
:106CD800B3F5805F4FEA133403D22B495420FCF7F5
:106CE800DBF900F029FA082C28BF082406F6FF79FA
:106CF80023034FEA1939039405930EB93446D6E7AE
:106D0800039B4B453ABFDDF80CA0DDF81480CA465A
:106D18004FF000025146284628BFB04601F09CFAC1
:106D280004460028C3D11949CDF800802B463A46BD
:106D38005846FBF79EFE08F10302234622F00302A1
:106D48003946284601F04AFA04460028AFD1104ACD
:106D5800136B4344136301F03DFFA9EB0A09A6EB4B
:106D680008064544474404460028C6D0049B094900
:106D780043F00100FBF766FE99E700BF80A5070016
:106D880080A5070069B9070078B90700F6B90700B8
:106D98004C9A002017BA07002DE9F74302F060F873
:106DA800314C324BDFF8E4903149D9F84860D9F8D2
:106DB8003080D9F83450E41AE4082404074644F033
:106DC80004000190FBF73EFE06F5005301985A684F
:106DD800284B9A4209D0284944F00100FBF732FEBB
:106DE8000325284603B0BDE8F083D9F83030AB421C
:106DF8001E4404D12149FBF725FE0025F1E7C3B95C
:106E08004FF440521178142982BF1D495269B2FBD0
:106E1800F1F206F5005198BF1A4691F800C0BCF18E
:106E2800140F82BF4969164BB1FBF3F31549FBF701
:106E380016FEA5EB080202F6FF7222F47F6222F02A
:106E48000F02314607EB0800FFF71CFF054628B183
:106E58000D4944F00100FBF7F5FDC2E703B0BDE8BA
:106E6800F04301F0B7BE00BF80A5070080A507006A
:106E780050BA0700DBE5B15175BA0700A9BA070097
:106E880040420F00BBBA0700E4BA07004C9A002042
:106E98002DE9F047624B634D634E6449ED1AED08E6
:106EA8002D0445F004073846FBF7CCFDF36AAA2BFE
:106EB80000F09A800CD8012B22D0A52B00F08880F6
:106EC80045F003005A49FBF7BDFD0020BDE8F087F7
:106ED800AC2BF5D157493846FBF7B4FD564938462F
:106EE800FBF7B0FDFFF758FF0446002800F0868046
:106EF800524945F00100FBF7A5FD4FF0010823E0DA
:106F08004F493846FBF79EFDD6F82490D6F848A09E
:106F180001F082FF346B4B4900EB04083846FBF75D
:106F280091FD316B5144884514BFA9EB040200223E
:106F38004046FFF7A7FE044670B1434945F00100FB
:106F4800FBF780FD4FF00008F36A4049224645F000
:106F58000100FBF784FD13E001F05EFF224649467D
:106F6800FCF77EF8B26A904280462AD13849384602
:106F7800FBF768FD0123C6E90783C6F81890A04609
:106F88003448DFF8F49001F03DFF0023324889F8D7
:106F9800003001F01FFE99F80030044623B92F494C
:106FA8004FF4D170FCF778F88CBBB8F1000F35D0EE
:106FB800336A012B32D138462949FBF743FD0220B9
:106FC80084E70346274945F00100FBF748FDD6E76B
:106FD80025493846FBF736FDFFF7DEFE4FF001087E
:106FE8000446002CCCD0AFE720493846FBF72AFDF1
:106FF800FFF7E8FD4FF000080446F2E7FFF7E2FD6F
:10700800044608B11A4974E74FF00108B8E745F09B
:1070180001001849FBF716FD032057E7012055E743
:1070280080A5070080A507004C9A0020FDBA07003C
:1070380009BC0700B2BB0700C0BB0700DDBB0700E7
:107048001EBB070028BB0700E4BA070022BC0700E4
:1070580043BB0700709A0020C16B070078B907008E
:1070680054BC070058BB0700A0BB0700A9BB07001A
:10707800F3BB0700B0BC07008582002010B50024D0
:10708800D4F8F83F013304D1084940F6F870FDF709
:1070980059F9D4F8FC3F013307D1BDE810404FF44B
:1070A800FC2140F6FC70FDF74DB910BD002007002B
:1070B8000A4AD2F800347BB109480023D2F80815EF
:1070C800D940C90748BF03F5C07103F1010348BFA0
:1070D80042F82100072BF1D1704700BF00000140A2
:1070E8003546526E08B50748074B0849C01AC0080C
:1070F800000440F00300FBF7A5FCBDE80840FFF7DB
:10710800D7BF00BF90A5070080A50700CABC07002D
:1071180007B5084B0022C3F80021D3F800310193CA
:10712800019BFBF751FDFBF717FB0028FBD103B0D0
:107138005DF804FB0000014037B5194D2B784BBBB7
:1071480018481949194B401AC008D3F800240004FC
:1071580040F0030002B3D3F80445154901902246D4
:10716800FBF774FC40F616529442B8BF1446A4F5D7
:107178004864FFF79DFF22460E490198FBF766FC1D
:107188000D492046FFF7FAFC0C4B4FF480321A6089
:1071980001232B7003B030BD0949FBF753FCF7E717
:1071A8008682002090A5070080A507000000014006
:1071B800D8BC0700F1BC0700ED70070000E100E053
:1071C80023BD0700034BD3F800340BB1FFF770BFA2
:1071D800704700BF000001404FF0704393F8E02F64
:1071E800062A10D1D3F8E42F12070CD1D3F8E80FF0
:1071F80000F0F003302B08D000F0E000A0F14003CD
:1072080058425841704700207047012070474FF09E
:10721800704393F8E02F062A0CD1D3F8E42F120715
:1072280008D1D3F8E80F00F0F000A0F1300358427D
:10723800584170470020704708B5FFF7CDFF40B1AF
:107248004FF08053884AD3F82433C3F30423C2F899
:107258004035FFF7DCFF10B1844B854A5A67FFF7CA
:10726800BBFF48B14FF080534FF08042D3F844320F
:10727800C3F34233C2F83C35FFF7C9FF30B17D4A4A
:10728800D2F8FC3023F08073C2F8FC30FFF7A4FF7B
:1072980040B14FF080430022C3F80C21C3F81021FD
:1072A800C3F83825FFF7B3FF20B14FF0804303221E
:1072B800C3F8A025FFF7ABFF60B16F4B0522C3F8F9
:1072C80010260122C3F888260022C3F818263F2278
:1072D800C3F814264FF0704393F8E02F062A50D1D4
:1072E800D3F8E42F11074CD1D3F8E83F03F0F003AB
:1072F800502B46D14FF08052604BD2F80414C3F89B
:107308002015D2F80814C3F82415D2F80C14C3F8C1
:107318002815D2F81014C3F82C15D2F81414C3F891
:107328003015D2F81814C3F83415D2F81C14C3F861
:107338004015D2F82014C3F84415D2F82414C3F821
:107348004815D2F82814C3F84C15D2F82C14C3F8F1
:107358005015D2F83014C3F85415D2F83414C3F8C1
:107368006015D2F83814C3F86415D2F83C14C3F881
:107378006815D2F84014C3F86C15D2F84424C3F841
:107388007025FFF729FF48B14FF080534FF0804236
:10739800D3F8583203F04F03C2F8E43EFFF71CFF5E
:1073A80048B14FF08043D3F80024D20744BF6FF0B0
:1073B8000102C3F800244FF08053D3F83021062A85
:1073C8000AD1D3F83431062B01BF2D4AD2F83C3705
:1073D80043F48063C2F83C37264AD2F8883043F435
:1073E8007003C2F88830BFF34F8FBFF36F8F4FF031
:1073F8001023D3F80022002A03DBD3F80432002B31
:107408002EDA204B0122C3F80425D3F80024002AE1
:10741800FBD04FF010221521C2F80012D3F8002437
:10742800002AFBD04FF010231522C3F80422154B75
:10743800D3F80024002AFBD00022C3F80425D3F88F
:107448000024002AFBD0BFF34F8F0A490E4BCA68AD
:1074580002F4E0621343CB60BFF34F8F00BFFDE738
:107468000A4B0B4A1A6008BD0030014000C00740B3
:107478000DF0ADBA00ED00E00050004000C0004043
:107488000010004000E001400400FA05AC5900205B
:107498000090D00313681F2B10B5144607D900229B
:1074A8000830FCF7B0FE08B92023236010BD48F26D
:1074B8001450FBE70830FCF783BE0830FCF750BED9
:1074C800008800F001007047831F012B10B50446A7
:1074D80002D8002001F05CFC034B1B681BB120465E
:1074E800BDE81040184710BD8882002038B5104B01
:1074F800104C1860104B1149E41AE408240444F0B5
:107508000300FBF79FFA0020FFF7DEFF0C4801F0AD
:1075180005FC054620B9BDE83840094801F0BEB968
:107528000246084944F00100FBF790FA284638BDA6
:107538008882002080A5070080A5070018BF0700E3
:10754800D17407002BBF07006CDF70476DDF7047F1
:1075580072DF704773DF704774DF704775DF7047FD
:1075680076DF70477ADF70477CDF70477DDF7047D2
:107578007FDF704786DF70478FDF704790DF704787
:10758800A8DF7047AADF7047ADDF7047AEDF7047EE
:10759800B0DF7047B1DF7047B5DF704762DF704713
:1075A80066DF704713DF704710B5094B0949044679
:1075B80009481B1ADB081B04224643F00400FBF7AA
:1075C80045FA21460548BDE81040FBF7E5BE00BF77
:1075D80098A5070055BF070080A5070004A6070067
:1075E80070B518228CB00DEB0200002102F035FFB7
:1075F800282308932348244B2449254CC01AC00843
:107608000004012540F004008DF818508DF82D5025
:10761800FBF718FA1623ADF806300023CDE903333B
:107628000593022306222370237159230926A27089
:1076380063710322FE236570E270A3710DF10601E8
:10764800A0190294ADF80C60FFF790FFB8B9BDF827
:10765800063026725A19E271BDF80C200D4C1344FD
:1076680002A906AA2046ADF80C30FFF771FF30B921
:107678002078FFF771FF20782946FFF76BFF0CB0E1
:1076880070BD00BF98A5070080A5070067BF070069
:107698000A930020B0590020F0B50388242B8FB03E
:1076A800044651D80BB90FB0F0BD013B232BFAD8D3
:1076B80001A252F823F000BFB17A0700AF760700A5
:1076C800AF760700AF760700AF760700AF76070002
:1076D800AF760700AF760700AF760700AF760700F2
:1076E800AF760700AF760700AF760700AF760700E2
:1076F800AF76070081770700C5770700697907002B
:107708001D790700C17B0700AF760700AF76070039
:10771800AF760700AF760700AF760700E37B070078
:10772800AF760700AF760700AF760700AF760700A1
:10773800A5790700AF760700037A0700E579070007
:10774800D1780700FF780700503B9AB2062AAAD8DA
:10775800062BA8D801A252F823F000BFF377070040
:10776800BD7A0700E37B0700AF760700AF76070016
:10777800797807002B7A0700AF4BB04DB049B14E6E
:10778800ED1AED082D0445F00400FBF75BF9A3881A
:107798003380AD4B1B680BB101209847AB4930884B
:1077A800FFF7DCFE024600283FF47DAFA84945F00C
:1077B80001000FB0BDE8F040FBF748B9A14B4FF608
:1077C800FF721A80A34B1B685A0704D4FFF708FFFF
:1077D80008B1FDF755FD9C4B1B68002B3FF463AFC8
:1077E80002200FB0BDE8F04018479B4FE288BB88E5
:1077F8009A427FF458AF9948904DFBF7A1FD8E4B04
:10780800ED1AED082D04064638B9954945F00200F1
:107818000FB0BDE8F040FBF715B9F4230093238AB5
:107828009049024645F00400FBF723F9228A04F147
:107838001201304602F0E8FD1822002108A802F0E3
:107848000CFE08238DF82030874B0A93874B099745
:10785800CDE90B3608A8238AADF8343000F0FEFFD6
:1078680000283FF420AF7D483146FBF795FD1AE725
:10787800E288F62A24D8D31E9B0723D0D31F9BB2B5
:10788800013B594201F0030103F0030302F1FF3405
:1078980058BF4B42E31A9CB2674B68487449C01AF8
:1078A800C0080004234640F00400FBF7D8F8654BF5
:1078B80021461888FFF770FE00283FF4F4AE88E0F0
:1078C800F724E9E71446E7E75B4B5C486949C01AC7
:1078D800C008000440F00400FBF7B4F80022A088B8
:1078E80008A9CDE90822FFF749FE00283FF4DBAEDE
:1078F800FDF7C6FCD7E6504B504862895E49C01A6E
:10790800C008E389000440F004000FB0BDE8F0406F
:10791800FBF7A5B8484B494C58494A4DE41AE408C6
:10792800240444F004042046FBF78CF8022308934F
:10793800288806AB08AA42F605210993FFF724FE1A
:1079480008B1FDF79DFCBDF818204D492046FBF70E
:107958007DF8002328881A468521FFF709FEC4E729
:10796800354B36484749C01AC008000440F00400A7
:107978000390FBF767F8628943490398FBF766F8B9
:10798800228942490398FBF761F8A2894049039884
:10799800FBF75CF8E2893F4903980AE7264B274D35
:1079A8003D49ED1AED082D0445F00400FBF74AF8AF
:1079B800244B04F108011888FFF7D0FD044600287D
:1079C8003FF471AE0246354945F00100FBF73EF839
:1079D80020460FB0BDE8F040FDF752BC164B1748E3
:1079E8002F49C01AC008237A00930004637AA27A48
:1079F80040F00400FBF73DF855E60F4B0F482949C6
:107A0800C01AC008000440F00400FBF71BF800236C
:107A1800A0888DF8203008A98DF82130FFF7ACFD3B
:107A280063E7A379002B7FF43EAE064B1321188839
:107A3800FFF796FD40E700BF80A5070098A507005F
:107A480076BF0700B259002030930020C6C4070053
:107A580080BF07002C930020F692002004A60700A0
:107A6800AEBF0700CDBF0700257D0700B175070031
:107A7800EDBF070033C0070064C00700A2C00700BD
:107A8800CAC00700EDC0070014C107002AC10700DB
:107A980040C1070052C1070067C1070096C107002F
:107AA800CBC1070005C20700554B00211888FFF716
:107AB80077FD01E7A379002B3FF4F5AD022B7FF4A6
:107AC800F2AD504D2189AA8991427FF4ECADA27B99
