:0200000270008C
:10800000000001205D8307004583070047830700C8
:10801000498307004B8307004D83070000000000E1
:108020000000000000000000000000004F83070077
:1080300051830700000000005383070055830700A9
:108040005783070057830700F996070057830700F7
:10805000578307005783070057830700578307009C
:10806000578307005783070057830700578307008C
:10807000578307005783070057830700578307007C
:1080800099B60700578307005783070057830700F7
:10809000578307005783070057830700578307005C
:1080A000578307005783070057830700578307004C
:1080B00057830700578307000000000000000000FE
:1080C000578307005783070057830700578307002C
:1080D00061B30700578307005783070000000000C3
:1080E0000000000000000000000000000000000090
:1080F0000000000000000000000000000000000080
:10810000000000000000000000000000000000006F
:10811000000000000000000000000000000000005F
:10812000000000000000000000000000000000004F
:10813000000000000000000000000000000000003F
:10814000000000000000000000000000000000002F
:10815000000000000000000000000000000000001F
:10816000000000000000000000000000000000000F
:1081700000000000000000000000000000000000FF
:1081800000000000000000000000000000000000EF
:1081900000000000000000000000000000000000DF
:1081A00000000000000000000000000000000000CF
:1081B00000000000000000000000000000000000BF
:1081C00000000000000000000000000000000000AF
:1081D000000000000000000000000000000000009F
:1081E000000000000000000000000000000000008F
:1081F000000000000000000000000000000000007F
:10820000314932480A1A02D0072291438D4630493B
:1082100030480A1A06D00722914381F309880222C6
:1082200082F314882C482D492D4A00F03CF82D4843
:108230002D492E4A00F037F82D482E492E4A00F0DD
:1082400032F82E482E492F4A00F02DF82E482F499B
:108250002F4A00F028F82F482F49304A00F023F821
:108260002F483049304A00F01EF83048304900228B
:1082700000F024F82F483049002200F01FF82F4A60
:1082800090471F481F49884205D00268043003B454
:10829000904703BCF7E700208646EC46002000210B
:1082A000274A9047FEE7884207D0521A05D0037844
:1082B00001300B700131013AF9D17047884202D088
:1082C00002700130FAE770470000012000F800203A
:1082D000000001200000012090D407001C000020B5
:1082E0005C000020B8830700B883070014D00700A3
:1082F00090D407001C0000201C00002044D0070080
:1083000044D0070044D0070044D0070044D0070001
:1083100044D0070044D0070044D0070090D40700A1
:10832000D0D407005C0000205C0000205C0000202E
:108330007C1500207C1500207C150020858307001B
:10834000359F0700FEE7FEE7FEE7FEE7FEE7FEE7F4
:10835000FEE7FEE7FEE7FEE700F002B8FFF7FCBF2E
:108360000F484FF00701884385460E4880470E4866
:10837000016841F470010160BFF34F8FBFF36F8F4D
:10838000FFF73EBF09480A490A4A884207D0521AF5
:1083900005D0037801300B700131013AF9D17047F3
:1083A0000000012075B7070088ED00E030D007001D
:0883B000080000201C00002061
:1083B800044B1A5C012393404FF0A042C2F80C35DD
:1083C800704700BF44D00700044B1A5C0123934058
:1083D8004FF0A042C2F80835704700BF44D00700EC
:1083E80008B50020FFF7F0FF0120FFF7EDFF02209E
:1083F800FFF7EAFFBDE808400320FFF7E5BFC20723
:1084080008B501460CD54FF0A0430322C3F8442712
:10841800C3F84827C3F84C27C3F85027FFF7E0FFF5
:108428008B070AD54FF0A0430C22C3F83427C3F8B2
:108438003827C3F83C27C3F8402708BD43689B6822
:10844800184708B5436808305A7901F022FD002022
:1084580008BD2DE9F0410C469CB008461F46039222
:10846800FFF7ECFFD4F80480039998F80550BD4253
:1084780028BF3D4606462A4604A801F0FFFC98F8A6
:10848800052022990CA801F004FD00960CAB2A46A1
:1084980004A904F1080002F0CDFB002848F242507C
:1084A80018BF00201CB0BDE8F0810023C0E90232EB
:1084B8008B881A44B1F9063002611A44C0E90011E8
:1084C80042610888003818BF012070474268118847
:1084D80038B50346002937D0148A02F110014160EB
:1084E8002CB9C2680168FFF7E0FF204638BD9078D4
:1084F800118900F03005302D14D1947C04F030043B
:10850800302C1BD190881969091A19610021908AA9
:10851800B2F91620084419690144196111445961D6
:108528000120E3E700F0F004202C07D150894143F3
:10853800002DECD1986801309860E8E700F0C000A1
:10854800802808BF0421F3E70846CFE770B54668DE
:1085580004460D4663681A88AA4204D19B7803F042
:108568000F03082B07D12046FFF7B0FF6368B3421B
:10857800F0D1002070BD0120FCE743681A44426036
:1085880011B101399A4201D10120704713F8010B4A
:1085980001F8010FF6E770B54568AA7802F00F06F2
:1085A800082E86B003461FD103691C6800260CB943
:1085B80006B070BD236862689D68267329466846C0
:1085C800FFF773FF6368049304F10C030593AB781A
:1085D80003F0C003802B08BF231D684608BF04931F
:1085E800FFF7D9FFA468E2E712F0C00122D102F038
:1085F800300010280CD15A691170072EEC681869E0
:108608000BD10146204606B0BDE8704000F01AB80C
:108618009006F2D55B691980CAE72A89214624B1F8
:1086280006B0BDE8704004F095BC06B0BDE87040E7
:1086380004F0B9BC8029BBD1006900219206016011
:10864800B6D5E7E77FB50A4601466846FFF72DFF2E
:1086580030B16846FFF79FFF6846FFF737FFF7E737
:1086680007B05DF804FB836810B504460BB9002019
:1086780010BD0368012298470028F8D0A368013B81
:10868800A360F5E72DE9F3410F460DF10701804698
:10869800FFF7E9FF054620B90025284602B0BDE8E6
:1086A800F0819DF907309DF80740002B13DA04F09C
:1086B8007F0407260DF107014046FFF7D4FF002885
:1086C800EAD09DF8072002F07F03B3401C4313064D
:1086D80006F1070601D43C60DFE7232EEAD1DBE789
:1086E80030B5044685B01546A9B90268114B9A42BF
:1086F80011D0102D06D82A4669462046FFF7F0FF0C
:1087080005B030BD102269462046FFF7E9FF002872
:10871800F6D0103DEDE7A368AB4201D20020EFE7A9
:1087280023682A46204698470028F7D0A268521B9B
:10873800A260E5E783850700F7B50E4601A907465D
:108748001546FFF79FFFA0B1019A511C4FF0000496
:1087580004D2B37803F0C003802B01D1204608E08F
:1087680033898B42FAD329463846FFF7B9FF019B74
:10877800EC5403B0F0BD73B50D4601A90646144686
:10878800FFF780FF98B1019AB2F5803F11D2AB781C
:1087980003F0C003802B02F102010AD02B898B421F
:1087A80007D32146304621F8022BFFF799FF02B084
:1087B80070BD0020FBE7000010B5034C826000226A
:1087C800C0E90041C26010BD838507002DE9F3416F
:1087D800002580460E462F462C460DF107014046DF
:1087E800FFF741FFC0B19DF807C0A4F120030CF0CA
:1087F8007F02C4F1200102FA03F322FA01F10B43CC
:10880800A2401CF0800F45EA020547EA030704F17D
:10881800070404D1C6E9005702B0BDE8F081462C30
:10882800DBD10020F8E737B50D4669461446FFF757
:10883800CDFF70B12B89082B0DD1DDE90032C4E9D9
:108848000032DDE90001914208BF98420CBF0120C7
:10885800002003B030BD042B03D1009B236000220D
:10886800EFE7022B03D1009B23809BB2F7E7012B94
:1088780004D1009B237003F0FF03F0E70020E8E732
:1088880037B50D4669461446FFF7A0FF30B12B896E
:10889800082BDDE9001203D1C4E9001203B030BD92
:1088A800042B4FEAE17009D121600B46024682424F
:1088B80008BF8B420CBF01200020EFE7022B03D139
:1088C8000BB22380DA17F2E7012B02D14BB22370E7
:1088D800F8E70020E2E7F7B51F4600233B700D4696
:1088E8000B70136001A904461646FFF7CBFE30B99A
:1088F800A36813B901233B70002003B0F0BD019CAD
:10890800002CF7D0E30804F0070433602C70F4E778
:1089180013B50446052925D8DFE801F0030F17240D
:108928002422012201A92046FFF7DAFE18B19DF999
:108938000430002BF5DB02B010BD082200212046D0
:1089480002B0BDE81040FFF7CBBE01A9FFF79AFEC1
:108958000028F0D0019A00212046FFF7C1FEEAE77F
:108968000422EBE70020E6E773B50D4601A90446AB
:10897800FFF788FE064618B90026304602B070BDDB
:1089880094E80F0085E80F0001998A42F4D3A960A2
:10899800A3685B1AA360F0E72DE9F0435668B37843
:1089A80013F0C00489B007468C46154603D0402C06
:1089B80069D000240CE003F00F02604903F0300393
:1089C800202B51F8228025D006D8E3B1102B17D0E0
:1089D800204609B0BDE8F083302BF9D16B693188A6
:1089E8001980072A09D121463289286904F0DBFA5F
:1089F8006B682969D868FFF725FE2A69696840E02D
:108A08006B6901221A702A693146434609B0BDE8EC
:108A1800F0431847BCF1020FD5F8149024D1042A6A
:108A280022D804A9FFF7A0FF04460028C1D0069B5E
:108A38002BB16968B9F800304A899A4205D8059B74
:108A48007B60069B002BC3D0B3E708892A6903FB28
:108A5800002204A8C04728B1B9F800300133A9F8AA
:108A68000030E4E70446EAE7B9F8003072899A4230
:108A78009FD931892A69581C03FB0122A9F80000F3
:108A880031463846C1E7D2F81080464656F8043BCE
:108A980023B909B0BDE8F043FFF73ABF022914D162
:108AA80004A9FFF761FF002883D0D8F8003069686F
:108AB800324604A89847044600283FF47AAF069B3C
:108AC800002BF2D1059B7B6082E7012926D005297E
:108AD8002CD000297FF46DAF0C460DF10409013448
:108AE8000B2C3FF466AF012249463846FFF7F8FDE4
:108AF80000283FF45EAF19F9013B002BEFDB104B68
:108B0800049301ABCDE90534002307936968D8F8CD
:108B18000030324604A89847044659E7082201A9BC
:108B2800FFF7DEFD08240028E9D142E704220DEB17
:108B38000201FFF7D5FD0424F5E700BF54D0070074
:108B4800838507002DE9F04F91B00446002604A85C
:108B5800CDE90266FFF7A9FCA3683BBBDDE9053454
:108B680004A89D78FFF7B2FC0028F7D115F0300F64
:108B780003D1059B1B8803B10134002C00F0A980A8
:108B8800630902A90022934240F09C8010AA02EBDC
:108B9800830304F01F0453F8383CC4F120044FF059
:108BA800FF30E040C31A584258410DE00DF103036D
:108BB80001AA0DF102012046FFF78DFE38B99DF894
:108BC8000330002BCAD1002011B0BDE8F08F019905
:108BD80004A8FFF7BBFC002850D1019BB3427DD30A
:108BE800059D059A937803F00F03082B7FD004A8FE
:108BF800FFF76CFC059B9D42F3D14FF0FF36019FB8
:108C0800B7426BD3089B9DF802A0D4F808801D6872
:108C18004FF00109A368002D5DD098459CD12B68C1
:108C2800D3F800B0BBF1000F08D053463A462946A6
:108C38002046D8470028C6D0AD68EBE7D3F808B07F
:108C4800BBF800309F42F7D16A6859460AA8FFF777
:108C58002CFC6B680E9305F10C030F939BF8023004
:108C680003F0C003802B04BF2B1D0E930AAA85F8BE
:108C78000C9051462046FFF78FFEDBE7059B9B785B
:108C880013F0300F0FD1069A3F2A0CD8510910ABB8
:108C980003EB810102F01F020123934051F8382CA5
:108CA800134341F8383CE5682DB19DF8022001993D
:108CB80004AB2046A8479DF8021004AA2046FFF7F7
:108CC8006BFE10E051F8045B01357FF47DAF013293
:108CD80059E7012078E798457FF43EAF9DF80210E8
:108CE8002046FFF715FE00287FF436AF6BE716889D
:108CF80085E737B50C460546114620460192FFF731
:108D0800A1FC019A2146284603B0BDE83040FFF790
:108D180019BF70B586B0CE6801920C4602A9054607
:108D2800FFF722FE68B1E06858B1A378019A03F012
:108D38003003202B314602A805D1FFF7DAFF039B49
:108D48006B6006B070BDFFF7FDFEF8E713B50C4683
:108D58006946FFF73BFD60B1DDE900134A0842EAC6
:108D6800C372C9074FEA530344BFD243DB43C4E984
:108D7800002302B010BD37B50D4669461446FFF70B
:108D8800E5FF70B12B89082B0DD1DDE90032C4E96C
:108D98000032DDE90001914208BF98420CBF012072
:108DA800002003B030BD042B03D1009B2360DA17E9
:108DB800EFE7022B03D1BDF900302380F7E7012B41
:108DC80003D19DF900302370F1E70020E9E713B5DE
:108DD80004220C460DEB0201FFF782FC08B1019B4F
:108DE800236002B010BD1146FFF7F1BF13B508228A
:108DF8000C466946FFF774FC18B1DDE90023C4E9A5
:108E0800002302B010BD1146FFF7F0BF4B1C30B570
:108E1800DB00044612F003009BB20DD1074D2A6017
:108E28001A44074B1A60074B1870074B1870074B0A
:108E38001C80074B198030BD0720FCE76400002028
:108E4800600000205C0000206C000020680000200A
:108E58006A0000202DE9F843DFF8AC80B8F800304C
:108E68008B4206460D46174640D3002000F08EF888
:108E7800204B214A2148197800881478E3B28442AB
:108E880038BF0133C9B234BFDBB20023994226D0C0
:108E980014781178CBB2884286BF0133DBB2002345
:108EA8001370002000F074F84FF6FF739C421FD037
:108EB800134B1B6843F8347003EBC40996B18DB1AA
:108EC800104BB8F800001B682A46314604FB0030F6
:108ED80004F040F8A9F804500020BDE8F8834FF6E4
:108EE800FF74DEE70020A9F80400F6E70920F4E79C
:108EF8000420F2E76C0000205C0000206A000020DB
:108F080064000020600000206800002070B5104C4C
:108F1800104D22782B789A4200D170BD0E480F4A26
:108F28002378126806880E4802EBC301006852F8DD
:108F38003320898803FB060090470A49227809886C
:108F4800D3B2914286BF0133DBB200232370E0E73E
:108F58006C0000205C0000206800002064000020F5
:108F6800600000206A00002072B6024A13680133CC
:108F78001360704770000020034A1368013B1360B8
:108F880003B962B6704700BF70000020FFF7ECBF5E
:108F9800FFF7F2BF30B53AB11368DB430A4D01441D
:108FA800814204D1D84330BD4FF0FF33F6E710F8C3
:108FB800012B5340082213F0010418BF2C46013A34
:108FC80084EA5303F7D1EBE72083B8ED10B50346E5
:108FD80053E8000F40EA010243E8002494F0000F30
:108FE800F6D110BD10B5034653E8002F02EA010080
:108FF80043E8000494F0000FF6D110BD0121FFF7FB
:10900800E5BF0021FFF7EEBF10B590B1D0E901230D
:1090180001689B1ADBB20A60013BDBB2FF2B0268D6
:1090280002D10020107110BD11684C1C14600B7027
:10903800F2E70E20F7E738B504460020FFF7A6FF51
:10904800226863681168994213D9481E106011F8A4
:10905800013CE568218A01FB0355A36811791B1AB5
:10906800DBB2994200D213710020FFF791FF284626
:1090780038BD0025F8E738B5054600200C46FFF74F
:1090880085FF2A681368591C1160E968641A298ADF
:10909800B4FBF1F41C70BDE838400020FFF778BF3E
:1090A8000B6801601146184710B40468E468A446C8
:1090B8005DF8044B604710B404682469A4465DF861
:1090C800044B604770B550B90E4D0F4C0026641B19
:1090D8001423B4FBF3F4B44208D1002010E0036871
:1090E800002BF1D0BDE87040DB6918472B6813B935
:1090F80001361435EFE7DB69284698470028F7D092
:1091080070BD00BF080000201C000020014B436018
:109118000020704778D00700084670470020704745
:10912800024B1868003818BF0120704774000020EF
:1091380008B50248FFF765FF002008BD740000204D
:1091480008B510461A4603F005FF002008BD0000C8
:109158002DE9F041804686B011480F4616461D4657
:10916800FFF74CFF0446C8B9AA083146384600F054
:109178009FFA0B48FFF745FFD8F8083053B1012292
:109188008DF800200C9A0592CDE90147CDE90365D9
:1091980068469847204606B0BDE8F0811124F9E7F3
:1091A800740000202DE9F043814687B014480E462C
:1091B80015469846FFF722FF0446F0B90746BD4218
:1091C80015D10F48FFF71DFFD9F808305BB102220F
:1091D8008DF800200022CDE90126CDE90325CDF840
:1091E800148068469847204607B0BDE8F08306EB30
:1091F800073000F02FFA0137E1E71124F3E700BF49
:10920800740000202DE9F04FC9B008AA01F140050B
:1092180014464B780E781B0443EA0663CE78334332
:109228008E78043143EA06238D4244F8043BF0D19A
:109238001024916B16464FEAF14383EA714383EA9F
:109248009123716A366852F8045F31440B444FEA3F
:10925800B54181EAF51181EAD50101340B44402C6E
:10926800D363E6D1D0E914E30093836D0193C36D12
:109278000293036E0393436E0493836E0593C36E48
:109288000693DDE9057BDDE9031CDDE901592B4B7C
:10929800009E079374464FF00008079B53F8042B71
:1092A80007934FEAF12383EAB11383EA716A08ABA3
:1092B80053F828301A440AEB020327EA010A01EAA4
:1092C8000C028AEA02021A444FEA743A86EA050353
:1092D8005A4423408AEAB40A06EA050B83EA0B0BD0
:1092E8008AEAB45A08F10108DA44B8F1400F02EBEF
:1092F8000903BB465244A94619D172440265009A33
:1093080022444265019A32448265029A2A44C2651F
:10931800039A1A44049B02660B444366059B634404
:109328008366069B3B44C36649B0BDE8F08F674639
:1093380035468C46264619461446AEE7A4D00700A3
:1093480030B5E0B10F4A104900240025C0E91245A4
:10935800C0E914120D4C0E4A0E4DC0E916420E4AD1
:10936800C0E918520D4A826602F17452A2F523022E
:109378000023A2F692420364C266184630BD0E204E
:10938800FCE700BF85AE67BB67E6096A72F36E3C0F
:109398003AF54FA57F520E518C68059BABD9831FB8
:1093A80070B5F0B1DAB900201CE00C468D18002623
:1093B800AC42F8D0036C14F8012BC2540133402B93
:1093C8000364F5D10146FFF71DFFD0E9123213F50A
:1093D800007342F10002C0E912320664E8E700298E
:1093E800E3D10E2070BD70B50D4616460446002820
:1093F80076D0002974D0036C8022591C372BE25494
:1094080008443FD8C3F13702002103F0CCFDD4E96A
:109418001223216C0820E1FB0023C4E9122312BAAD
:10942800E26323FA00F284F83B3084F83A201A0CFD
:109438001B0E214684F8392084F838302046FFF77F
:10944800E1FE691E6EB30023E26EDA4001F8012FD7
:10945800A26EDA400A71626EDA400A72226EDA404F
:109468000A73E26DDA400A74A26DDA400A75626D19
:10947800DA400A76226DDA400833202B0A77E3D1E6
:10948800002070BD4029C3F13F024FF0000188BFA2
:10949800002203F088FD21462046FFF7B3FE38225C
:1094A800B2E71823226DDA4001F8012F626DDA4025
:1094B8000A71A26DDA400A72E26DDA400A73226E0E
:1094C800DA400A74626EDA400A75A26EDA400A76E9
:1094D800E26EDA40083B13F1080F0A77E2D1CFE7D2
:1094E8000E20CEE7F0B578B371B36BB300241C60DF
:1094F8008E18DB274FF0DC0C4FF0DD0E1A688E4219
:1095080002F1010400EB020504D11C60C0232B709A
:109518000020F0BD0D78C02D05D0DB2D0CD01C60CF
:109528000C78845406E01C6087541A68541C1C602C
:1095380000F802C00131E1E71C6085541A68541C28
:109548001C6000F802E0F5E70E20E2E710B580B3F2
:10955800D0E902239A422ED00378012B0FD0022B98
:1095680021D053B9C02928D0DB2902D101230370A7
:1095780003E04368541C84609954112006E0DC29F8
:1095880005D0DD290AD0022303700B2010BD511C21
:1095980043688160C02199540023E8E7511C816029
:1095A8004368DB21F7E7C029E7D100230370836014
:1095B800E3E70E20EAE70420E8E71846E6E70000BC
:1095C8001FB503788DF800304368019383688DF8E0
:1095D8000830C368054A0393054B684653F82130A1
:1095E80052F82110984705B05DF804FB7800002078
:1095F8007C000020F0B506460F4B16F804CB43F864
:109608002C200E4B17460C460A6943F82C200FCC29
:1096180089B06D460FC594E80F00002F85E80F004C
:10962800074ACDF810C008BF3A466946304600F0F0
:1096380031F909B0F0BD00BF7C000020780000209F
:10964800C9950700024AD2F80034002BFBD07047B6
:1096580000E001400A4908B50223C1F80435BFF308
:109668006F8FBFF34F8FC1F80805FFF7EBFF00239B
:10967800C1F80435BFF36F8FBFF34F8F08BD00BF2C
:1096880000E0014010B5094C0123C4F80435BFF3CC
:109698006F8FBFF34F8F0160FFF7D4FF0023C4F82B
:1096A8000435BFF36F8FBFF34F8F10BD00E001404B
:1096B80070B50E4E01231546C6F80435BFF36F8FFB
:1096C800BFF34F8F0024AC4207D10023C6F80435FE
:1096D800BFF36F8FBFF34F8F70BD51F8243040F840
:1096E8002430FFF7AFFF0134EDE700BF00E0014091
:1096F800014B1B68184700BF8000002038B50B4B92
:1097080098420C4601D0002038BD0020FFF73EFCEF
:10971800074B1D7915B901221C601A710020FFF74B
:1097280037FC002DEFD01120EEE700BF00200040ED
:1097380080000020034B984201BF034B00221A60AF
:109748001A71704700200040800000200023435019
:1097580082B043580193019B02B070471FB50123A3
:109768008DF80030044BCDE90110D3E900126846AA
:10977800904705B05DF804FB880000207FB5434A98
:10978800D2F82461002E60D010464FF49271FFF792
:10979800DDFF02238DF80030D2F88034C2F880341F
:1097A8000393D2F83C350293394BDA6801920022D0
:1097B800C3E906226846D3E9001290473348D0F837
:1097C800443173B14FF4A271FFF7C0FF304B9A696F
:1097D8003AB10022C3E90622D968D0F83C05FFF760
:1097E800BDFF2A48D0F82031ABB14FF49071FFF794
:1097F800ADFF0123C360264B5A6962B1D0F84C15FE
:109808000291002299688DF8002001915A616846FA
:10981800D3E9001290471D48D0F858319BB14FF456
:10982800AC71FFF793FF1A4B5A6962B1D0F84C1527
:109838000291002299688DF8002001915A616846CA
:10984800D3E90012904704B070BDD2F81031002B54
:10985800B4D04FF488711046FFF778FF0C4BD2F85C
:109868003C0599698842A9D1DC69D96864B1D2F804
:10987800005225F02005C2F800521A699C61DA608E
:10988800DE61FFF76BFF99E79C61FAE70020004073
:10989800880000202DE9F8435C4E90F804802423CA
:1098A80003FB0863044693F820300D469146002BCD
:1098B80040F0A88056490068FFF720FF07460028B7
:1098C80040F0A2802A682068511C0BD04FF0A041BC
:1098D80001239340C1F8083502F5E0734FF0030CFB
:1098E80041F823C069684B1C1FBF01F5E0734FF0B6
:1098F800A04C4FF0000E4CF823E0AB69C0F82435BB
:1099080095F814C06B7DBCF1010F4CEA0303C0F855
:109918006C35C0F80C25C0F814151DD1AA68531C65
:109928001FBF02F5E0734FF0A0414FF0000C41F863
:1099380023C0EB68591C0BD04FF0A04C0121994073
:10994800CCF8081503F5E0714FF0030E4CF821E050
:10995800C0F80835C0F81025242202FB08F2B31815
:10996800C3F804902B69B350B9F1000F39D04FF404
:1099780088712A7FFFF7EAFE20684FF49071FFF79D
:10998800E5FE20684FF49271FFF7E0FE20684FF47F
:10999800A271FFF7DBFE20684FF4AC71FFF7D6FE2B
:1099A80023681C49C3F80413190B43F30733002B2E
:1099B800AEBF03F1604001F00F0517484FEA4212AD
:1099C800A8BF00F56140D2B2B4BF425580F8002369
:1099D80001F01F01012202FA01F15B090F4A42F866
:1099E800231023680822C3F80025242303FB0866F4
:1099F8000023C6E906337361012386F82030384610
:109A0800BDE8F8830827FAE71127F8E7880000205F
:109A1800859707001003420014ED00E000E100E024
:109A2800F8B5374C0579242303FB054302465B68E8
:109A380000686BB1334BC0F8083340F30733C0F309
:109A480004365B090121B14020332F4E46F823101C
:109A5800D0F80032012623F02003C0F800324FF47A
:109A6800AC714660FFF772FE1068C660D0F85831D6
:109A7800002BFBD00023C0F80035D0F80C65D0F8D7
:109A88001415D0F80835D0F810254FF0FF37BE422E
:109A9800C0F80C7518BF06F5E076C0F81475C0F864
:109AA8000875C0F810751EBF4FF0A0474FF0020CA4
:109AB80047F826C04E1C1FBF4FF0A04601F5E071C5
:109AC800022746F82170511C1FBF4FF0A04102F534
:109AD800E072022641F822605A1C1FBF03F5E073AA
:109AE8004FF0A042022142F82310FFF723FE24235F
:109AF80003FB0544002384F820306360F8BD00BFF1
:109B0800880000201003420000E100E00279044BC5
:109B1800242101FB02335869003818BF012070471F
:109B28008800002001F06043B3F1005F2DE9F047A1
:109B38000646884692463BD190F80490FFF7E6FF28
:109B48000446002836D11D4F3068242505FB0975C9
:109B58004FF49071C5F814A0C5F80880FFF7F6FD1A
:109B68004FF4AC713068FFF7F1FD33686A69A96892
:109B7800C3F84415C3F8482501229A606A68DAB91F
:109B8800D3F82021D3F858011AB90028F8D00F20AB
:109B980007E00028FBD10122DA60D3F85821002A17
:109BA800FBD0242303FB097700237B61BDE8F08702
:109BB8001020FBE71120F9E72046F7E7880000208E
:109BC800F8B501F06043B3F1005F04460F465ED17B
:109BD8000379304D242101FB0351496821B1006804
:109BE8004FF40476C0F80863242000FB03539E69F1
:109BF80056B1D869002839D021B123684FF40472CE
:109C0800C3F80423112030E09A61DF60DE61206828
:109C18004FF48871FFF79AFD20684FF4A271FFF79F
:109C280095FD2368C3F83475C3F8382516BB01229F
:109C38001A602479242202FB045252680ABBD3F822
:109C48001011D3F84421D3F82401114302D100287C
:109C5800F5D00A46242303FB04550023984218BF75
:109C680003209A42AB6118BF0F20F8BD1F61DA616B
:109C78000126CCE7D3F8002242F02002C3F80022E4
:109C8800D7E74FF40472C3F804230020EDE710204F
:109C9800EBE700BF8800002028B139B10023C1E9F3
:109CA80000301846704748F21050704748F2135079
:109CB800704730B1036848F240508B4208BF00201B
:109CC800704748F21050704728B148F2115091423D
:109CD80008BF0020704748F21050704770B506461C
:109CE8000C461D46FFF7D8FF50B9B3794AB1AB42CD
:109CF8000AD111462046FEF7A4FB08B9044B23609D
:109D080070BD48F21050FBE748F21150F8E700BF69
:109D18007052464D2DE9F0470C4606460F4920463D
:109D2800DDE9088915461F46FFF7C3FFA0B9636838
:109D38005A79494652004046FFF7C6FF60B94DB10F
:109D4800CDF820803B462A4621463046BDE8F047FC
:109D5800FEF77FBB48F21050BDE8F0877052464DC1
:109D680010B5044638B149B10B684160984708B945
:109D7800044B236010BD48F20150FBE748F2105035
:109D8800F8E700BF6E524648F0B4134648B107687A
:109D9800094EB7420AD161B12AB14368F0BC5B6889
:109DA800184748F201531846F0BC704748F202536E
:109DB800F9E748F21053F6E76E524648F0B460B13E
:109DC80007680C4EB7420CD171B143681568DC685E
:109DD800A5420CD3F0BC9B68184748F20150F0BC70
:109DE800704748F20250FAE748F21350F7E748F292
:109DF8001450F4E76E524648F7B50446DDE90867A3
:109E080015460193FFF7ACFF68B9019A2946204629
:109E1800FFF7BAFF38B93A463146204603B0BDE8E5
:109E2800F040FFF7CBBF03B0F0BD0000F8B50A4F14
:109E38000A4C0B4EE41B0123E40833700025A542AD
:109E480003D1022333700020F8BD57F83530984706
:109E58000028F9D10135F2E714D0070014D0070023
:109E6800AC00002001390144814200D270470378D8
:109E78000A7800F8012B01F80139F5E7013A0244A4
:109E88000139824200D2704711F8013F02F80139C6
:109E9800F7E770B516460D46FFF7F0FF3246A919E9
:109EA8003044BDE87040FFF7E9BF38B50D460446B9
:109EB800FFF7D8FF29466019BDE83840FFF7D2BF41
:109EC800BFF34F8F0549064BCA6802F4E06213439B
:109ED800CB60BFF34F8F00BFFDE700BF00ED00E090
:109EE8000400FA0508B507281BD8DFE800F00412BB
:109EF8001A1A1A041A040120FEF781FA0020FEF744
:109F080057FA0120FEF754FABDE808400220FEF790
:109F18005BBA0120FEF758FABDE808400220FEF7B8
:109F280047BA08BD08B5FFF7CBFF000008B501F038
:109F380079FB002210464FF4805101F03DF90246AA
:109F480008B1FFF7BDFF0548C0F5FC2101F034F961
:109F58000028F6D1024801F04FF8F2E70080070028
:109F6800ED9E07008B1802448B4200D1704713F80E
:109F7800010D02F8010DF7E7C3F10803DB0070B526
:109F880001330446002003A55B1920C940CAAD1956
:109F980020C4184720C940CA754120C420C940CAF6
:109FA800754120C420C940CA754120C420C940CA8F
:109FB800754120C420C940CA754120C420C940CA7F
:109FC800754120C420C940CA754120C4404170BDB4
:109FD8000000000000000000C3F10803DB0070B5BA
:109FE8000133002403A500BF5B1920C940CAAD1B7B
:109FF80020C0184720C940CAB54120C020C940CA5E
:10A00800B54120C020C940CAB54120C020C940CAB6
:10A01800B54120C020C940CAB54120C020C940CAA6
:10A02800B54120C020C940CAB54120C06441B4FA36
:10A0380084F0400970BD00BF2DE9F04F08B4F8CA9C
:10A0480004B451F8042BA3FB028940F8048B4FF0A9
:10A05800000AE4FB629A4FF0000BE5FB62AB4FF09D
:10A06800000CE6FB62BC4FF0000EE7FB62CE51F835
:10A07800042B4FF00008E3FB628940F8048BE4FBF3
:10A08800629AE5FB62ABE6FB62BCE7FB62CE51F885
:10A09800042B4FF00008E3FB628940F8048BE4FBD3
:10A0A800629AE5FB62ABE6FB62BCE7FB62CE51F865
:10A0B800042B4FF00008E3FB628940F8048BE4FBB3
:10A0C800629AE5FB62ABE6FB62BCE7FB62CE51F845
:10A0D800042B4FF00008E3FB628940F8048BE4FB93
:10A0E800629AE5FB62ABE6FB62BCE7FB62CE40F836
:10A0F800049B40F804AB40F804BB40F804CB40F89C
:10A1080004EB0CBC052B00F01E810C68A0F11400B8
:10A11800A1F11401A2F1140252F804EB4FF000056A
:10A1280050F8046BE4FB6E5652F804EB50F8047BCD
:10A13800E4FB6E6752F804EB50F8048BE4FB6E788E
:10A1480052F804EB50F8049BE4FB6E8952F804EBD8
:10A1580050F804ABE4FB6E9AA0F1140052F8044BDB
:10A1680051F804EB4FF0000CE4FB6EC540F804CB4B
:10A1780051F804EBE4FB6E5640F8045B51F804EB2D
:10A18800E4FB6E6740F8046B51F804EBE4FB6E786F
:10A1980040F8047B51F804EBE4FB6E8940F8048B2B
:10A1A80051F804EBE4FB6E9AA0E80006062B00F0D9
:10A1B800CA800C68A0F11800A1F11801A2F11802D8
:10A1C80052F804EB4FF0000550F8046BE4FB6E56B0
:10A1D80052F804EB50F8047BE4FB6E6752F804EB8A
:10A1E80050F8048BE4FB6E7852F804EB50F8049BAB
:10A1F800E4FB6E8952F804EB50F804ABE4FB6E9A6A
:10A2080052F804EB50F804BBE4FB6EABA0F1180065
:10A2180052F8044B51F804EB4FF0000CE4FB6EC508
:10A2280040F804CB51F804EBE4FB6E5640F8045BAD
:10A2380051F804EBE4FB6E6740F8046B51F804EB4B
:10A24800E4FB6E7840F8047B51F804EBE4FB6E897C
:10A2580040F8048B51F804EBE4FB6E9A40F8049B39
:10A2680051F804EBE4FB6EABA0E8000C072B6AD0B6
:10A2780008B40C68A0F11C00A1F11C01A2F11C0299
:10A2880052F804EB4FF0000550F8046BE4FB6E56EF
:10A2980052F804EB50F8047BE4FB6E6752F804EBC9
:10A2A80050F8048BE4FB6E7852F804EB50F8049BEA
:10A2B800E4FB6E8952F804EB50F804ABE4FB6E9AA9
:10A2C80052F804EB50F804BBE4FB6EAB52F804EB15
:10A2D80050F804CBE4FB6EBCA0F11C0052F8044B10
:10A2E80051F804EB4FF00003E4FB6E3540F8043BF3
:10A2F80051F804EBE4FB6E5640F8045B51F804EBAC
:10A30800E4FB6E6740F8046B51F804EBE4FB6E78ED
:10A3180040F8047B51F804EBE4FB6E8940F8048BA9
:10A3280051F804EBE4FB6E9A40F8049B51F804EBF7
:10A33800E4FB6EAB40F804AB51F804EBE4FB6EBCF5
:10A34800A0E8001808BCBDE8F08F002310B51C4633
:10A358005AB2914200DC10BD40F823400133F7E7C0
:10A3680010B500231A465CB2A14203DCB2FA82F0AF
:10A37800400910BD50F8234001332243F3E74A1146
:10A38800012350F8220001F01F0103FA01F10840EF
:10A398007047013910B549B2041D0A06CBB204D47E
:10A3A800013954F82120002AF7D001335BB273B188
:10A3B80003F18042013A50F82220002022B9013BE3
:10A3C80000EB431318B210BD52080130F6E71846E7
:10A3D800F9E710B500235CB2A24200DC10BD51F8C9
:10A3E800234040F823400133F5E710B5013A52B253
:10A3F800130601D5002010BD50F8224051F8223034
:10A408009C4205D802F1FF32F2D24FF0FF30F2E75A
:10A418000120F0E700EB81010023884200D3704758
:10A4280051F8042D43EA52030B60D307F5E737B51B
:10A438001D469DF9183001930446FFF79DFD019BC9
:10A4480038B91A4621462846FFF7CFFF0128019B55
:10A4580007D02A462146204603B0BDE83040FFF722
:10A46800BBBD03B030BD37B51D469DF9183001930B
:10A478000446FFF7B1FD019B38B12A462146204624
:10A4880003B0BDE83040FFF777BD03B030BD2DE91C
:10A49800F04FB5B004AC9DF9F8501E4680462B46E7
:10A4A8002046FFF7C9FD24AB29463046CDE90234E2
:10A4B800FFF76FFFC0EB851004B2002C2146B8BF30
:10A4C80004F11F01634241F3471103F01F0314A86D
:10A4D80004F01F0758BF5F42FFF737FF002F08B28D
:10A4E8002BDD14AB002203EB8001C7F1200E1346CD
:10A4F800AB4217D36B00019314AB03EB85096F1EB6
:10A5080034AB012603EB8707002C54DA34AB03EB9A
:10A5180086062A4656F8C81C4046FFF75AFF35B04B
:10A52800BDE8F08F56F823C00CFA07F0024341F853
:10A53800042B01332CFA0EF2DAE714AB2A46314623
:10A5480003EB8000FFF745FFD4E70FFA82FE5AF8C5
:10A55800C83C53F82EB034AB03EB8202013052F8FA
:10A56800803C0B44BBEB030334BF012200229B4514
:10A5780018BF11465CF8C82C42F82E30019B42B235
:10A588009A42E2DB731A5E42294614A85E41FFF73D
:10A5980041FF34AB03EB8503294653F8802C57F869
:10A5A800803C484643EAC273013C47F8803C24B2E9
:10A5B800FFF730FFA8E734AB0020C6F1010C0146D5
:10A5C80003EB860A03EB8C0CD8E730B51C4691B038
:10A5D800054693F900306846FFF72EFDD4F8AC30F5
:10A5E80069462846984711B030BD13460A46FFF71A
:10A5F800ECBF2DE9F04793F9006092B00446894614
:10A608001046314615461F46FFF7AAFE002840F0BF
:10A6180091803A46494602A8FFF7E7FF3B4602AA5F
:10A6280021460AA8FFF7D1FF02A908463A46FFF7D4
:10A63800DCFF3B462A4649464846FFF7C6FF07F176
:10A6480004083A4629462846FFF7CFFF43462A46DC
:10A65800214620460096FFF7EAFE43462A46294649
:10A6680028460096FFF7E3FE43462A462146284639
:10A678000096FFF7F8FE3B462A4621462046FFF79C
:10A68800A4FF43462246214628460096FFF7CFFE00
:10A69800434600962A4621462046FFF7C8FE23680F
:10A6A800DB074AD53346424621462046FFF764FC7D
:10A6B800314682462046FFF7ADFE06F18043013B56
:10A6C80054F8232042EACA7244F823203A46214625
:10A6D8002846FFF78AFF43460AAA294628460096D5
:10A6E800FFF7C1FE43460AAA294628460096FFF707
:10A6F800BAFE0AA9084643462A460096FFF7B3FE63
:10A708003B460AAA21462046FFF75FFF02AA4346B6
:10A71800104621460096FFF7A6FE324629462046F7
:10A72800FFF757FE49462846FFF753FE02A9484659
:10A73800FFF74FFE12B0BDE8F08731462046FFF71D
:10A7480069FEC3E72DE9F04115468AB004460E4676
:10A758001C22002103A802F026FC2F1D95F9008079
:10A7680003232A46314620460293FFF73EFF3B4625
:10A7780002AA21462046CDF80080FFF774FE2B463A
:10A78800324621462046FFF720FFCDF800803B46A1
:10A7980005F1840221462046FFF749FE0AB0BDE8CC
:10A7A800F08100002DE9F042082288B00C4681466D
:10A7B800FFF70FFECB6A03930B6B04934B6B059368
:10A7C8008B6B0693CB6B0793002708236A46694671
:10A7D8006846CDE901770097FFF7CEFB08230546C9
:10A7E8006A4649464846FFF7C7FB236B0393636BEA
:10A7F8000493A36B0593E36B0544CDE906376A46DA
:10A80800082369466846FFF7B7FB082305446A46EC
:10A8180049464846FFF7B0FB236A0093636A0193F1
:10A82800A36A0293A36B0693E36B0793054408237B
:10A838006A4649464846CDE904770397FFF79CFBEB
:10A84800636A0093A36AA26B0193E36A029304927A
:10A85800636BE26B0393CDE90523236A07932E18F4
:10A8680008236A4649464846FFF786FBE36A009391
:10A87800236B0193636B0293236A0693A36A07937E
:10A88800351808236A4649464846CDE904770397B0
:10A89800FFF7A2FB236B0093636B0193A36B0293F7
:10A8A800E36B0393636A0693E36A07932E1A0823FC
:10A8B8006A4649464846CDE90477FFF78DFB636B46
:10A8C8000093A36B0193E36B0293236A0393636A78
:10A8D8000493A36ACDE90537236B0793361A082337
:10A8E8006A4649464846FFF777FBA36B0093E36B3C
:10A8F800CDE90137636A0393A36A0493E36ACDE958
:10A908000537636B0793361A08236A464946484653
:10A91800FFF762FB361A0E4C0FD436B908224946A7
:10A928002046FFF762FD01280FD00823224649463A
:10A938004846FFF751FB361AEFE7082322464946F7
:10A948004846FFF719FB3618F7D408B0BDE8F0827F
:10A95800E8D1070070B514468AB006460D461A4677
:10A96800214602A80193FFF740FE019B02AA314647
:10A978003046FFF72AFE02A9019B22460846FFF748
:10A9880024FE019B02AA29462846FFF71EFE0AB0AC
:10A9980070BD2DE9F0478AB01446DDF848A0554649
:10A9A8001F4615F9046B0096804689462B460246D9
:10A9B800214602A8FFF757FD02A952460846FFF7AD
:10A9C80014FE534602AA41464046FFF7FEFD534691
:10A9D80002AA21462046FFF7F8FD2B464A4639468B
:10A9E80038460096FFF73FFD5246394602A8FFF762
:10A9F800FCFD02A92B46424608460096FFF733FDA8
:10AA080002A92B46224608460096FFF72CFD2B4646
:10AA18004246214620460096FFF725FD534622462A
:10AA280049464846FFF7D1FD2B4602AA4146204633
:10AA38000096FFF718FD5346224639463846FFF779
:10AA4800C4FD2B464A46394638460096FFF70BFDAB
:10AA5800324602A92046FFF7BCFC0AB0BDE8F087E1
:10AA68002DE9F0479846B3F90230894613F11F01E2
:10AA780048BF03F13E01DD1D48BF03F10E05EC1090
:10AA88004E11944275B228BF144629460746FFF76F
:10AA98005CFC22464946FFF765FAB8F90230B3EB89
:10AAA800C40F4FEAC40220D2D21A07EB8601002055
:10AAB800C2F120068F420FD308F124082A463946EE
:10AAC8004046FFF792FC01280FD02B4642463846F5
:10AAD800BDE8F047FFF780BA51F8044D24FA02F3B5
:10AAE80003430B6004FA06F0E4E7BDE8F08770B5AD
:10AAF800036813F001060546144605D013460A46B6
:10AB08000146FFF739FA064621462846FFF782FC38
:10AB180046B104F18042013A55F8223043F000432F
:10AB280045F8223070BDF0B50F46A1B0064619466B
:10AB3800384615461C46FFF713FC20B13046FFF790
:10AB480004FC21B0F0BD224639466846FFF741FCB7
:10AB5800294608A8FFF73DFC10A82146FFF7F5FB9A
:10AB6800012318A81093FFF7F0FB224608A96846AE
:10AB7800FFF73BFC28B9224610A93046FFF729FC0D
:10AB8800DFE7009BDA0709D421466846FFF742FC55
:10AB98002246294610A8FFF7AAFFE6E7089BDB072D
:10ABA80007D4214608A8FFF735FC2246294618A8ED
:10ABB800F1E7002823461CDD08AA69466846FFF726
:10ABC8000BFA21466846FFF725FC224618A910A86B
:10ABD800FFF70BFC002805DA10A923462A46084689
:10ABE800FFF7CAF910A9234618AA0846FFF7F4F98F
:10ABF800CEE708A96A460846FFF7EEF9214608A8F5
:10AC0800FFF708FC224610A918A8FFF7EEFB00285A
:10AC180005DA18A923462A460846FFF7ADF918A908
:10AC2800234610AA0846FFF7D7F9BEE70048704741
:10AC3800E4D107002DE9F04F2DED028BEDB08946E8
:10AC4800789E05901946B6F9023096F9004013F13E
:10AC58001F0748BF03F13E0747F3471707F1FF3BBC
:10AC680024AB002543F82B506CAB03EB8B0307EEAA
:10AC7800902A4CA896F9012043F8805C43F8605C60
:10AC8800FFF770F996F9012054A81144FFF76AF903
:10AC980021464CA8FFF764FB8046002840F042811B
:10ACA80054A8FFF75DFB0390002840F03D8106F1B2
:10ACB800240A3A464CA95046FFF797FB012840F072
:10ACC80035813A4654A95046FFF78FFB0128069074
:10ACD80040F02C811CAD3B46524654A92846FFF74C
:10ACE80022FF0DF13008039B48F82B3017EE902A0D
:10ACF800494640463346FFF7B3FE41464046534671
:10AD08002A460097FFF7C3FB0DF5B87B53462A4642
:10AD18004CA914A80097FFF7BAFB22465846059994
:10AD2800FFF757FBA3000793059B0BEB840903EB85
:10AD380084014846FFF74DFB06F14403194634A841
:10AD48000493FFF746FB049BA10059183CA8FFF7A2
:10AD580040FB331D08EE903A594634AA2846009421
:10AD6800FFF781FB4B465A463CA934A80096FFF7EB
:10AD780010FE18EE902A234629462846FFF7D3FEF0
:10AD88002A46494658463346FFF7E4FD039B089395
:10AD9800049B0993059B39464046CDE90A3BFFF7DA
:10ADA800F8FA3946834614A8FFF7F3FA5845B8BFAE
:10ADB80058461FFA80FB0BF1FF3109B24046049157
:10ADC800FFF7DDFA0499B0F1000814A818BF4FF096
:10ADD8000108FFF7D4FA002814BF0220002048EA2F
:10ADE80000080DF12009224659F8281024A8FFF779
:10ADF800F0FA0DF1B009A30019444846FFF7E9FA43
:10AE080021462846FFF7A1FA069B2B60ABF1020802
:10AE180024AB08EE105A0FFA88F80493B8F1000F23
:10AE28002ADA18EE902A18EE101A18EE100A23469D
:10AE3800FFF779FE18EE102A049833464946FFF7C3
:10AE480089FD04993A465046FFF7CFFA012805D004
:10AE580004993B4652460846FFF7BEF8013C64B2E7
:10AE68004CAA230653D5039BB3FA83F040096DB06F
:10AE7800BDEC028BBDE8F08F334618EE102A04981B
:10AE8800D6F8A4504946A84741460CA8FFF777FAD8
:10AE98004146B0F1000B14A818BF4FF0010BFFF7A3
:10AEA8006EFA002814BF022000204BEA000B08AB02
:10AEB80053F82B1031B3224634A8FFF78AFA079BC0
:10AEC8003CA81944FFF785FA18EE102A33463CA926
:10AED80034A8FFF73FFD18EE903A0499009434AA7D
:10AEE80044A8FFF7C0FA049A00964B463CA934A838
:10AEF800FFF74FFD18EE101A18EE100A334644AA51
:10AF0800FFF763FB08F1FF380FFA88F886E7049B20
:10AF180052F8241053F824304B40039919430391F5
:10AF2800013C9EE72846A2E74046A0E703989EE733
:10AF380013681F2B10B5144607D900220830FEF7F6
:10AF480052FA08B92023236010BD48F21450FBE7D9
:10AF58000830FEF725BA0830FEF7F2B9014B012296
:10AF68001A707047D0040020BFF34F8F0549064B75
:10AF7800CA6802F4E0621343CB60BFF34F8F00BF8F
:10AF8800FDE700BF00ED00E00400FA05024B0348AE
:10AF980000221A7001F06CB9D004002071AF0700CC
:10AFA800042810B5044609D8022811D816D00D4B2C
:10AFB8001B68B3B12046BDE810401847831F012B1A
:10AFC800F5D8094B094800221A7001F051F9EEE74B
:10AFD80007494FF4701000F003FAE8E701F086F82B
:10AFE800E5E710BDD4040020D004002071AF0700AD
:10AFF80095AF07000020704738B55A4B5A4A186079
:10B008004FF0A0430020C3F84027C3F8342701F0CD
:10B0180045F90446002840F0A08000F0ADFA012868
:10B0280000F09680022800F09A80002840F0958071
:10B038004FF08043D3F8004414F480343BD04FF4ED
:10B048008032C3F800240446484D2B6A012B45D0B2
:10B058004FF4701400F02AFB454A20211820FDF710
:10B06800D5FE08B1FEF75EFF4FF08043D3F81C25EC
:10B0780002F0F802B02A09D1D3F81C25D20742BF42
:10B08800D3F81C2502F04E02C3F81C25FFF7B2FFC7
:10B09800002862D12046374900F0A2F9364800F06E
:10B0A800A5FC002859D100F027FBFDF72FFF20BF92
:10B0B80040BF20BFF7E7D3F8202502F0F802A82AFE
:10B0C8000AD1D3F82025D00706D5D3F8202502F0D9
:10B0D8005602C3F82025B7E70124B5E74FF44053DB
:10B0E8005A68264B9A4209D001F046F9AA690146E6
:10B0F80094B1234801F008FC90B9A9E76A6B1CB920
:10B1080095F86032012BEFD01E484FF4805101F0C2
:10B11800FBFB0028E8D19BE795F8A132012BE8D189
:10B128004FF0A043D3F81035D90391D54FF08043A1
:10B13800D3F81C3513F0B10F8AD101F0BCF860B90F
:10B14800114B1870114801F093F800F023F804E04F
:10B158000D4B0F481C7001F08BF8032038BD4FF4DD
:10B16800A02477E7D40400200C000300F00D002091
:10B17800B000002095AF0700A9AF0700DBE5B1518B
:10B188009110002050100020D004002065AF070067
:10B1980071AF070008B5074B4FF0FF32C3F88020A6
:10B1A800C3F8802100F07DFCBDE808404FF48050D2
:10B1B80000F030B800E100E070B5C1F30B0434BB17
:10B1C800B0F5FE2F23D84B1E1B0B020B03EB1031DF
:10B1D80001264FF08040914201D2204670BD02F016
:10B1E8001F03550906FA03F3032D05D8DFE805F018
:10B1F8000206090CC0F800360132ECE7C0F8043644
:10B20800FAE7C0F81036F7E7C0F81436F4E7072471
:10B21800E3E7000010B5044617480022C0F50021F6
:10B22800FFF7CAFF08B1FEF77DFE01F0A5F8134B42
:10B238009B6903F6FF7323F47F6323F00F03002257
:10B2480019181046FFF7B8FF08B1FEF76BFEEFF3C9
:10B2580005830023D4E9001283F3148883F310884C
:10B2680083F3118883F3138881F308884FF0FF3341
:10B278009E46104710BD00BF00800700F00D00205B
:10B288001FB518490B7853BB4FF08043A024D3F85F
:10B298001824D2035CBF01229A60134B0022C3F822
:10B2A8000021D3F8000103900398C3F84021D3F894
:10B2B800400102900298C3F84421D3F84401019058
:10B2C80001980A4880F8244310244460C3F80825EC
:10B2D800022001229A601A60C3F804030A7004B0BD
:10B2E80010BD00BFDC0400200040024000E100E087
:10B2F80037B56FF07F42154C057BD4F804358A4288
:10B3080028BF0A46891A13444A1E942A23F07F4309
:10B3180005F5A8729BBF963B96314160416044F8A1
:10B3280022300B4B4FF4F86043F001039847094B68
:10B33800AA00134400221A601B680193019B4FF472
:10B348008033AB40C4F8043303B030BD0040024042
:10B35800B0D20700404102401C4BD3F804212DE92C
:10B36800F34152B11A490A6801320A600022C3F84F
:10B378000421D3F804310093009B164C164DDFF8D6
:10B388004C80164E00272B6873B12F602B68227BE8
:10B398000193019B4FF480339340C8F808336168E8
:10B3A80051B12046FFF7A4FF0435B54204F110045B
:10B3B800E9D102B0BDE8F081A16811B12046FFF7DC
:10B3C80097FF2368002BEFD09847EDE70040024035
:10B3D800D80400201C00002040410240484102409F
:10B3E80070B50B4B1D682A7B4FF480339340094A94
:10B3F8000E46C2F80833044640B1FFF741FF2E60FD
:10B4080021462846BDE87040FFF772BF70BD00BFF7
:10B418003C0000200040024070B5074B1D68044600
:10B428000E46A860FFF72CFF2E6021462846BDE88F
:10B438007040FFF75DBF00BF40000020014B0122B4
:10B448001A707047DD0400202DE9F74F064688463C
:10B45800A8EB06052D0B02F6FF77144600F026F937
:10B46800082D28BF08252B03DFF868B001933F0B90
:10B478000CB9234629E0BD422CBFBA46AA464FF074
:10B4880000025146304634BFDDF80490A14600F072
:10B49800DFFA0346C8B909F1030222F00302414664
:10B4A800304600F0C7FA034678B9DBF830304B4431
:10B4B800CBF8303000F0E2FEA7EB0A07A4EB090452
:10B4C8004E44C84403460028D2D0184603B0BDE80D
:10B4D800F08F00BFF00D002010B500F073FF124A86
:10B4E800916C01F500535C68104B9C4218D1D2E96D
:10B4F8000C32934216D0884204D1BDE81040002097
:10B5080000F0BCBED21A02F6FF7222F47F6222F06B
:10B518000F0219441844FFF797FF0028EDD010BD1B
:10B528000320FCE70020FAE7F00D0020DBE5B1512D
:10B5380038B50F4BDA6A5D6A9C6CAC2A10D15B6B2C
:10B548001C44ED1A0B482A46214601F0C9FC68B193
:10B5580000F0D2F829462046BDE8384000F090BAFD
:10B56800002CEFD100F01CFF0446EBE738BD00BF0C
:10B57800F00D00200080070070B5264CE36AAA2B66
:10B5880037D005D8012B0BD0A52B2ED0002070BDAD
:10B59800AC2BFBD1FFF7A0FF48BBFFF7C9FF26E0A4
:10B5A800A66C656A00F0E8FE864229D100F0E4FE48
:10B5B80000222946FDF7EEFCA36A984202BF012348
:10B5C800C4E90703A5610025134800F0A7FE134B43
:10B5D800134800221A7000F051FE68B975B1236A49
:10B5E800012B14BF01200220D1E7FFF775FF0125C9
:10B5F800EAE7FFF79DFFE6E70320C8E70120C6E773
:10B60800236BEA1AF1181844FFF71EFF0028DAD155
:10B61800CCE700BFF00D0020140E0020DD04002050
:10B6280045B4070010B50024D4F8F83F013304D11D
:10B63800084940F6F870FEF725F8D4F8FC3F0133C6
:10B6480007D1BDE810404FF4FC2140F6FC70FEF72E
:10B6580019B810BD008007000A4AD2F800347BB13F
:10B6680009480023D2F80815D940C90748BF03F58F
:10B67800C07103F1010348BF42F82100072BF1D143
:10B68800704700BF000001403546526EFFF7E4BF27
:10B69800054B002282B0C3F80021D3F80031019392
:10B6A800019B02B0704700BF0000014038B50E4D45
:10B6B8002B78BBB90D4BD3F800248AB1D3F80445D5
:10B6C800FFF7CAFF40F61650A042B8BF2046084907
:10B6D800A0F54860FFF7A0FE064B4FF480321A60D1
:10B6E80001232B7038BD00BFDE040020000001409C
:10B6F80095B6070000E100E0034BD3F800340BB126
:10B70800FFF7AABF704700BF000001404FF0704329
:10B7180093F8E02F062A10D1D3F8E42F12070CD1A2
:10B72800D3F8E80F00F0F003302B08D000F0E00069
:10B73800A0F140035842584170470020704701204B
:10B7480070474FF0704393F8E02F062A0CD1D3F8D6
:10B75800E42F120708D1D3F8E80F00F0F000A0F1A9
:10B7680030035842584170470020704708B5FFF72A
:10B77800CDFF40B14FF08053884AD3F82433C3F348
:10B788000423C2F84035FFF7DCFF10B1844B854A2B
:10B798005A67FFF7BBFF48B14FF080534FF0804224
:10B7A800D3F84432C3F34233C2F83C35FFF7C9FF3C
:10B7B80030B17D4AD2F8FC3023F08073C2F8FC30F7
:10B7C800FFF7A4FF40B14FF080430022C3F80C21DB
:10B7D800C3F81021C3F83825FFF7B3FF20B14FF0A5
:10B7E80080430322C3F8A025FFF7ABFF60B16F4B7E
:10B7F8000522C3F810260122C3F888260022C3F8C0
:10B8080018263F22C3F814264FF0704393F8E02F10
:10B81800062A50D1D3F8E42F11074CD1D3F8E83FCA
:10B8280003F0F003502B46D14FF08052604BD2F812
:10B838000414C3F82015D2F80814C3F82415D2F854
:10B848000C14C3F82815D2F81014C3F82C15D2F824
:10B858001414C3F83015D2F81814C3F83415D2F8F4
:10B868001C14C3F84015D2F82014C3F84415D2F8B4
:10B878002414C3F84815D2F82814C3F84C15D2F884
:10B888002C14C3F85015D2F83014C3F85415D2F854
:10B898003414C3F86015D2F83814C3F86415D2F814
:10B8A8003C14C3F86815D2F84014C3F86C15D2F8E4
:10B8B8004424C3F87025FFF729FF48B14FF080539F
:10B8C8004FF08042D3F8583203F04F03C2F8E43EF9
:10B8D800FFF71CFF48B14FF08043D3F80024D2078C
:10B8E80044BF6FF00102C3F800244FF08053D3F82F
:10B8F8003021062A0AD1D3F83431062B01BF2D4A4C
:10B90800D2F83C3743F48063C2F83C37264AD2F871
:10B91800883043F47003C2F88830BFF34F8FBFF309
:10B928006F8F4FF01023D3F80022002A03DBD3F8DF
:10B938000432002B2EDA204B0122C3F80425D3F859
:10B948000024002AFBD04FF010221521C2F8001263
:10B95800D3F80024002AFBD04FF010231522C3F897
:10B968000422154BD3F80024002AFBD00022C3F888
:10B978000425D3F80024002AFBD0BFF34F8F0A49CF
:10B988000E4BCA6802F4E0621343CB60BFF34F8FDB
:10B9980000BFFDE70A4B0B4A1A6008BD00300140A2
:10B9A80000C007400DF0ADBA00ED00E000500040C7
:10B9B80000C000400010004000E001400400FA050B
:10B9C800440000200090D003831F012B10B50446CB
:10B9D80002D8002000F08AFC034B1B681BB12046EC
:10B9E800BDE81040184710BDE004002008B5074B1B
:10B9F80018600020FFF7E8FF054800F05FFC20B959
:10BA0800BDE80840024800F053BA08BDE004002031
:10BA1800D1B9070043690BB1C068184770470000E7
:10BA2800024903480022FDF73BBB00BF84D0070052
:10BA38000800002007B5009313460A46014603484C
:10BA4800FDF732FB03B05DF804FB00BF08000020DF
:10BA580013460A4601460148FDF72DBB08000020A1
:10BA6800014B18700B207047E4040020024B0022A1
:10BA780018781A70704700BFE404002018DF704778
:10BA880030B585B0054610220C466846002101F005
:10BA98008AFAA408684601950294FFF7EFFF05B0FB
:10BAA80030BD30B585B0062300244FF48055684674
:10BAB800CDE90035CDE90244FFF7E0FF072802BFD2
:10BAC8004FF0005320461D6005B030BD014B0620E5
:10BAD8001B681847F00400200A2803D90B38C0B2A5
:10BAE800FFF7BEBF7047000010B5044686B00020BF
:10BAF800FDF7E8FA014638B1174A1821204606B082
:10BB0800BDE81040FDF7A6B91822684601F04BFAC7
:10BB18000423124A8DF80030114B116D1B689942AD
:10BB280012D1104B186801F08BF88DF80100FFF75F
:10BB3800D3FFD4E901138DF80100684698470A48F5
:10BB480000F09CFB06B010BD01238DF8013068465B
:10BB5800D4E901139847F5E7F1BA0700F00D002082
:10BB6800E8040020EC040020D5BA0700F0B504462C
:10BB780087B018220021684601F015FA23788DF85D
:10BB8800003001228DF801200C2B00F28181DFE8C2
:10BB980013F00D0077000F00770077007F01770022
:10BBA8006E0077006C001C002F0072008DF80420D6
:10BBB800D4E90113684698479DF80130012B00F03D
:10BBC8005C819D4B05201B6856E14FF08053D3F8EC
:10BBD80000210192D3F804210292D3F80C21920299
:10BBE8000492D3F81021920203921B690593DFE7B0
:10BBF8004FF44053914D586891492E6A227C8842EF
:10BC080014BF01230223012E08BF013352B90223B6
:10BC18008DF80430EB6802938A4B0393C3F5FC2339
:10BC28000493C5E7012A10D188420ED14FF440533E
:10BC38001A78142A8CBF5B69002302934FF480534F
:10BC480003934FF440539B68EAE79A4209D20123D1
:10BC58008DF80430AB68029300F0B2FBAB69039037
:10BC6800DEE7FF238DF80430A2E7237CFAE7238A76
:10BC7800ADF804309CE7704B07201B68984797E79E
:10BC8800062B714A01D0012B01D12169117011785D
:10BC9800012904D0022957D0002313709AE0013BF0
:10BCA800072B85D801A252F823F000BFD5BC0700A6
:10BCB800B9BB070045BD070015BD0700B9BB0700A4
:10BCC8003FBD0700B9BB0700EDBC07005A4B032076
:10BCD8001B689847606900F05FFDFFF7FDFE8DF86F
:10BCE800010065E7A18A206900F06EFDFFF7F4FE08
:10BCF800524B8DF80100DA6B1B6C0293E3680192DA
:10BD0800002B3FF455AF2069984751E74F495048F9
:10BD180000F0A8FDFFF7E0FE01288DF801007FF490
:10BD280047AF002000F0AAFA00283FF441AF0A23E9
:10BD38008DF801303CE74FF4007303933F4BDA6B07
:10BD48001B6C0192029333E7013B072B3FF630AFA0
:10BD580001A252F823F000BF81BD0700B9BB07005C
:10BD680037BE07005DBE0700B9BB070087BE0700E6
:10BD7800B9BB0700E1BD070000F046FD08B908237C
:10BD8800D6E762690AB90323D2E7C2F30B0333B1DA
:10BD98002A4B2E495B6D096813448B42F3D1B2F5E7
:10BDA800805F01D90423C3E7244B2849586D0968EB
:10BDB80015188D42E3D85A64DA6C9A6418651863CA
:10BDC800234B1B68002201211844FFF741FE00287D
:10BDD8003FF4EEAE0523ABE700F016FD0028CED009
:10BDE800164DA18AD5E914329B1A6A6C0B4493420A
:10BDF800C9D8174B2F6B1B68206905F148021F44EF
:10BE0800FDF7C8F8E368A28A216906463846FFF7B5
:10BE180011FE08B1E36876E7A38A2A6BAE641A4478
:10BE28002A632A6D029613442B650193C0E6034BDF
:10BE38009A6C02921B6DF8E7F0040020F00D0020C8
:10BE4800DBE5B1510080070048000020E80400202D
:10BE5800EC0400200F4BD3E91402596C821A8A4271
:10BE68008DD19A6C5865002120465964DA64FFF731
:10BE78003BFE094B1B680420984707B0F0BD054BF3
:10BE88009A6C1B6D01934FF48053029203938FE6D3
:10BE980002234DE7F00D0020F004002083681BB159
:10BEA800024A1821FCF7D6BF0720704775BB070068
:10BEB80038B50546C0B10020FFF7B2FD044648B9C1
:10BEC80000F05CFC00F0A0FC30B9084B00201D60BD
:10BED800FFF7C6FD204638BD0549064800F0C2FCFC
:10BEE8000128F2D00324F5E70724F3E7F004002043
:10BEF800E8040020EC040020011F0148FDF7BBB84E
:10BF08001CD0070013B5074C0A4601AB0146204672
:10BF1800FDF7E8FA9DF8042003482146FDF702FEE4
:10BF280002B010BD930600205000002010B5064C4A
:10BF380023783BB1054B984204D00548FDF770FDC6
:10BF480000232370002010BDF404002014D0070043
:10BF580050000020F0B5284F3B7889B0002B49D11C
:10BF6800264E30602648FDF74FF8044600283ED19B
:10BF78002348244DFDF75FF8234BDFF8B0C01C7051
:10BF880083220330C3E90104DA60204BCCF8043083
:10BF98001F4BCCE902321F4BCCF810301E4BCCF8AB
:10BFA80014300FCD6C460FC495E80F0084E80F00DD
:10BFB80006220823CDE9002307210523CDE9021332
:10BFC800164A1748CDF810C0012569468DF8145057
:10BFD800FDF710FB044650B9124913482A46FDF7ED
:10BFE800EFFD33683D7004460BB12846984720465C
:10BFF80009B0F0BD0024FAE7F4040020F80400209A
:10C008001CD007006CD40700E00600200DBF070015
:10C0180001BF0700AC06002014D0070039C0070094
:10C028004C000020C406002050000020C806002054
:10C0380070B50378012B0E4602D0022B21D070BDBB
:10C04800037AE3B1436811481978FDF77FFA04468B
:10C058000F4910480122FDF7B3FD002CEFD10B4D1D
:10C068003046D5E9011200F0F1FE0B48FCF7E3FF7A
:10C078000028E4D00330C5E901042C70DFE70D2463
:10C08800E6E7BDE87040C068FDF74CBFE006002059
:10C09800C4060020500000201CD007002DE9F04104
:10C0A80015464FF46072064688461F4600F018FF92
:10C0B80028B915B90020BDE8F081A847FAE70022A1
:10C0C80001213046FFF7C4FC70B94FF46072414655
:10C0D800384600F03FFF2B464FF460723946304631
:10C0E800FFF7A8FC0028E5D00320E4E72DE9F0419C
:10C0F800434C236801336AD000225821201DFCF7E5
:10C1080049FF27683A1A57425741DFF80C813D4DDD
:10C11800D8F80060336801336ED000225821301DF2
:10C12800FCF738FF3368834253D17468012C0AD076
:10C138000022C32106F51870FCF72CFFD6F85C42E4
:10C14800231A5C425C41002F45D02D492D484FF4FD
:10C15800607200F0FFFE6CB1D8F800402A48542203
:10C16800211D00F0F7FE294840F2C72204F15C01C6
:10C1780000F0F0FE6B68012B3CD1254A02F2C7148F
:10C1880002F14006134603CBB342206061601A46B1
:10C1980004F10804F6D11F4B03F2C71203F1180685
:10C1A8001C4603CCB44210605160234602F10802D9
:10C1B800F6D120681060002385F86032012285F8E6
:10C1C800E232EB6985F8A122C5F8A23210E0002717
:10C1D8009BE70024B7E72CB1D8F8001009484FF4C2
:10C1E8006072C5E707484FF46072002100F0DBFE7B
:10C1F80002236B60BDE8F081002FF3D00024A4E790
:10C2080000F00700F00D0020F40D00204C0E002077
:10C218004C0F00208C0F00205800002070B50C4CEB
:10C22800054600225821201DFCF7B4FE002220609C
:10C23800C32104F51870FCF7ADFE2A46C4F85C0269
:10C248002146044B0448BDE87040FFF727BF00BFF4
:10C25800F00D0020700A002000F007000246024896
:10C26800024B0068FFF71ABF58000020F0060020B4
:10C278000149FFF7F3BF00BF00F0070038B50546D6
:10C288000020FFF7CBFF044618B903492846FFF7FB
:10C29800E5FF204638BD00BFF00D002010B5FFF7C0
:10C2A800BFFB044628B9FFF721FF2046FFF7E6FF4A
:10C2B80000B1032010BD002070470000F8B5094FF9
:10C2C800094CE41B0646E4080025A54201D10020DC
:10C2D800F8BD57F83530304698470028F8D1013571
:10C2E800F3E700BF14D007001CD00700F8B5094ECB
:10C2F800094CA41B0746E40800250436A54201D1D1
:10C308000020F8BD56F83530384698470028F8D14F
:10C318000135F3E714D007001CD00700034A0023B7
:10C328000360436083601363704700BFF00D002013
:10C3380008B54FF440535A680C4B9A4214D10C4933
:10C348000023042243F20400FFF774FB60B9094A92
:10C35800136A4FF44051012B08BF10629369896832
:10C368000B44A3F58053936108BD00BFDBE5B151D1
:10C378008CD40700F00D00204FF44053074A596849
:10C38800914201BF986800F6FF7020F47F6020F0AA
:10C398000F0018BF4FF48050704700BFDBE5B15164
:10C3A80008B5FFF7E9FF054B9B69184400F6FF70D5
:10C3B80020F47F6020F00F0008BD00BFF00D0020C2
:10C3C800FFF7DABF4FF48050704700002DE9F74FB0
:10C3D8001F46274BDFF8A0B01B6ADFF8A090019139
:10C3E8000446154600934FF000084FF4405AB8F140
:10C3F800010F5FFA88F61AD0022E24D0FFF7D0FF7B
:10C408009DB1009B013B59425941A9EB0000A04254
:10C4180001D3019BEBB1D1B908F10108B8F1030FC1
:10C42800E5D1A04217D204201EE02946EDE7FFF728
:10C43800A3FF37B9DAF80410B1EB0B0118BF0121DB
:10C44800E3E74146E1E701214FF48050DDE7A042F0
:10C45800E9D3022E05D1FFF76BFF0648FFF75EFF11
:10C4680001E0002EF9D1002003B0BDE8F08F00BF35
:10C47800F00D0020080E0020DBE5B1510050070048
:10C4880090F8552012F0FB0F07D190F8643023B1D3
:10C49800836ECBB10B600120704712F0010303D00B
:10C4A80090F8563003B1836D9207F2D590F85C206E
:10C4B800002AEED0054A006EC2F5FC22904201D84F
:10C4C8000344E6E7042070470F2070470080070008
:10C4D80010B5084C4FF40072FF21204600F063FDB0
:10C4E80020220021A4F1240000F05DFD002344F87F
:10C4F8002C3C10BD4C0E00202DE9FF472F49304D34
:10C508008A6B304C304FDFF8D490DFF8D4A06E46F9
:10C518005C313046FCF750F996E80F0085E80F00CB
:10C5280000212A4B39704FF447722046C9F8001091
:10C53800CAF80010EB6000F036FD2549224628466F
:10C54800FCF7D7FB20B90027384604B0BDE8F087D0
:10C558003F78002FF7D094F86C3194F800801BB323
:10C56800B8F1000FEFD194F87231002BEBD0DAF864
:10C578000020D9F800103046FCF71EF996E80F00A5
:10C5880085E80F004FF4B272414604F5BA7000F026
:10C598000AFD104904F5BA722846FCF7AAFB0028E0
:10C5A800D1D004F5BA7406E0B8F1000FCBD0A37966
:10C5B800002BC8D00834084B1C60C5E7F00D0020DC
:10C5C800BC140020A01100209C110020EDC507001C
:10C5D800FCD3070048D307007815002098110020E5
:10C5E800941100205B68DA680D4B9A4230B508D187
:10C5F8000C4C236813B90C490B681BB10B4B002278
:10C608001A7030BDD0E901321A4413F9015B002DCC
:10C61800A2EB0300F9DB23600860044B0122EFE77B
:10C6280048D3070098110020941100209C11002085
:10C6380000B591B0FDF7FAFB684608492022FDF7DE
:10C6480028FC6A46064907484023FDF747FB064B86
:10C6580001221A7011B05DF804FB00BFA4D10700D5
:10C66800CC14002048D0070070110020F0B5A3B00A
:10C6780007460C4615461E4678222023002104A8AA
:10C68800029300F090FC002303931C4B1B780BB91A
:10C69800FFF7CEFF5CB367BB02AB0193184B009367
:10C6A8001849289B324604A8FDF7A6FB18BB402D65
:10C6B80021D1154B214604F140021C4651F8040BC8
:10C6C80043F8040B9142F9D10F482021FDF7EDFB07
:10C6D8004023CDE900430A4A029B0C4903A8FDF711
:10C6E80019FB00280CBF0120052023B0F0BD132042
:10C6F800FBE71620F9E70A20F7E700BF70110020D2
:10C708001415002094D2070034150020CC14002002
:10C71800F0B5ABB004460D4616461F4678222023D6
:10C7280000210CA8039300F03EFC114B1B780BB9B9
:10C73800FFF77EFF2FB12146202204A8FDF79EFBBC
:10C7480004AC03AB0B4F01930B49009733462A46C1
:10C758000CA8FDF751FB48B920222146384600F0C5
:10C76800BFFBB0FA80F040092BB0F0BD0020FBE71A
:10C77800701100207111002094D2070008B5044BF5
:10C78800986B08B1FFF7B8FE024B187008BD00BFE0
:10C79800F00D00207415002010B5044658B1B0F50E
:10C7A800007F0AD8064B00221A70FFF791FE054B4E
:10C7B80001209C6310BD0320FCE70420FAE700BFBA
:10C7C80074150020F00D002070B50E4C0646E06B85
:10C7D800A36B42189A420D4611D85C300A46204491
:10C7E800314600F0B7FBE36B04F140022B442946C5
:10C7F8003046E363FCF7CEFB2064012070BD0320C4
:10C80800FCE700BFF00D0020014B1878704700BF0F
:10C818007415002013B5104C94F86C21B2B194F83B
:10C82800D802B4F8DA2204F5377104F5B8740B4B62
:10C838001B6800930A4B1B68FFF718FF012809D1F2
:10C84800201D02B0BDE8104000F0FEB911461046A8
:10C858000434ECE702B010BDA011002094110020B0
:10C8680098110020234BD3E90E329A422DE9F0416A
:10C8780006460D463AD1DFF8848098F800704FB12B
:10C88800FFF78EFD1C4B306029461868BDE8F04163
:10C89800FFF7F6BDFFF730FE50B3FFF7BBFF0128E7
:10C8A800376004462F601ED1134B1F68294638464F
:10C8B800FFF7E6FD0128044615D13B8A28681BB11D
:10C8C8007B69003B18BF012300221146FFF77EFD5C
:10C8D80040B9FFF765FD0123306088F80030204635
:10C8E800BDE8F0810424FFF7F3FDF8E70824F6E734
:10C8F8000524F4E7F00D00207815002074150020B9
:10C9080001237230FFF704BF13B5044608462378A5
:10C918001146032B03D8DFE803F021050F18002088
:10C9280002B010BD0022D4F80140FCF733FB84426A
:10C9380014BF00200120F3E70A4600230146601CCB
:10C9480002B0BDE81040FFF7E3BE00910346402265
:10C95800611C0020FFF78AFE0128E9E70120DFE7D4
:10C968002DE9F041A2B004460D4616460021782272
:10C978001F4604A8202303939DF8A08000F013FB12
:10C9880041220021204600F00EFBB5F894300BB18F
:10C9980095F8968084F80080B8F1030F1ED8DFE878
:10C9A80008F00902111F002239463046FCF7F2FA56
:10C9B800C4F801003A4631462046FFF7A5FF22B0E9
:10C9C800BDE8F08103AB0193631C009308493B4623
:10C9D800324604A8FDF710FA0028EBD00020EEE755
:10C9E800B5F8982005F19A01601C00F0B3FAE1E768
:10C9F80094D207002DE9F047894B1D68A4B004467E
:10CA08000F4690460A4601462846FFF779FF002858
:10CA180000F0FF8095F85560002E39D14FF00109DC
:10CA2800CDF800903B462246294613A8FFF798FF09
:10CA380060B9B8F1000F00F0E58005257948FFF7E7
:10CA48006DFCFFF745FD784B9C64DEE0B8F1000F04
:10CA580067D0DFF8D481412213A908F2A12000F0A1
:10CA680079FA2B8AC8F82C90C8F820600BB16B694A
:10CA78000BB9FFF75DFC6B68C8F80830002239462F
:10CA88002046FCF787FA684B0125C3E90970D8E707
:10CA98004122002102A800F086FA06F0010A41228C
:10CAA800002113A8D14600F07EFABAF1000F3CD05D
:10CAB80004F5005C5D4BDCF80400984240D1AB6D96
:10CAC80003F5FF5203F6FF71C1F30B011F32521A2F
:10CAD800DCF80810914233D34FF440525168814238
:10CAE8000ED11178102988BF116904F5005298BF3A
:10CAF8000021107810288CBF1269002291421FD1A2
:10CB0800012200922946224602A8FFF729FFB8B160
:10CB1800AB6DE218FB1A16F0020609D1B8F1000F46
:10CB28001DD1414B01255D616FE03B462246F2E78E
:10CB38000021009113A82946FFF712FF0028EDD124
:10CB4800B8F1000F5ED0BAF1000F3FF476AFFFF7EF
:10CB580039FCA0427FF471AFFFF7EAFB6DE7DFF81D
:10CB6800C880B9F1000F49D04FF440532F495A6893
:10CB78008A4225D004F500535B68581A4342434162
:10CB88008A421FD104F50051486890421AD14FF4E7
:10CB980040531A78142A82BF5A69254BB2FBF3F224
:10CBA8000B7898BF0022142B83BF4B692049B3FB35
:10CBB800F1F300239A4207D01E48FFF7AFFB03E0CA
:10CBC8000023DDE7002BF7D11B48412202A900F022
:10CBD800C1F9002E14BFAC23A523C8F82C30AB6DC7
:10CBE800C8F83430002E3FF449AF1448412213A945
:10CBF80000F0B0F96B68C8F80C303FE7AA23C8F812
:10CC08002C30EFE70525FFF763FC284624B0BDE884
:10CC1800F0871725B8F1000F7FF410AFF3E700BFD6
:10CC280078150020140E0020F00D0020DBE5B1512E
:10CC380040420F00080E002050100020D2100020A3
:10CC48000122FFF7D7BE000090F85420F0B5034644
:10CC5800002A5CD090F85500032858D893F86E2025
:10CC6800032A52D11A7A002A51D0DA68342A50D1CC
:10CC78004FF4405528496C681A8A8C422ED142B12B
:10CC88005969A9B1D2B203F114040021CEB2B2425B
:10CC980001D8122032E054F8047BAE89B74201F182
:10CCA8000101F3D11A7802BB012818BF0F2025E033
:10CCB80088B9012AF6D0D2B203F114044FF44056D1
:10CCC800CDB2AA42E5D954F8047BB589AF4201F147
:10CCD8000101F5D1E6E70128E4D1DAE712B15A6992
:10CCE800002AD6D11A78002AD3D001285B680B4ACB
:10CCF80005D8906898428CBF10200120F0BDD068FC
:10CD0800984234BF01201020F8E71420F6E70F20DE
:10CD1800F4E71120F2E700BFDBE5B151F00D002088
:10CD2800030A08704B70030C000EC8708B70042047
:10CD3800704770B50378082B06460D460BD14B8813
:10CD48000A88013B9BB24B80002A7ED0002B7CD105
:10CD580003234A8003702C6960232370337863703F
:10CD68007378A370012B65D133780B2B6BD8DFE870
:10CD780003F05D6A6A406A6A4A576A5D062DE11CDB
:10CD88007068FFF7CDFF0330C2B254FA80F1B06883
:10CD9800FFF7C6FF1044C2B254FA80F1F068FFF7FB
:10CDA800BFFF1044C2B254FA80F13069FFF7B8FFF0
:10CDB8001044C2B254FA80F17069FFF7B1FF104411
:10CDC800C1B26B682046BDE8704018473379E370FC
:10CDD800211DB068FFF7A4FF0430C2B254FA80F1F5
:10CDE800F068FFF79DFF1044C2B254FA80F1306931
:10CDF800E3E77068E11CFFF793FF0330C2B254FA0F
:10CE080080F1B068D9E7E11CF068FFF789FF0330CB
:10CE1800C2B254FA80F17068FFF782FF1044EDE760
:10CE2800B388E3701B0A23710521CAE73379E370DD
:10CE38000421C6E70B2B06D1FEF718FEE070002090
:10CE4800FEF70EFEF4E70321BBE770BDF0B50F4611
:10CE580087B004460D46164600211822684600F0A1
:10CE6800A2F817F8013B1D4A8DF80030013B0194E8
:10CE780002920A2B0BD8DFE803F011060A0A0A0E01
:10CE8800291E2D0A2D00B5F8013023806380A36880
:10CE98003846984715E06B780493F8E72388638051
:10CEA8006B78D5F802200493012B0592EFD16069C5
:10CEB800FFF71CFAEBE7A3680497013EADF814608E
:10CEC80003936846FEF7EAFF07B0F0BDE368ADF8E4
:10CED8001030DCE76B788DF81030D8E73BCD0700D1
:10CEE8006AB30F2A70B511D8013A2FD0034600EB68
:10CEF800020C01E09C4524D08E461C4611F8012BFB
:10CF080013F8010B9042F5D0801A70BD40EA010C6D
:10CF18001CF0030F04460B4606D0013AE6E7043A34
:10CF2800042A20461946DFD9194620460E680568A6
:10CF3800B54203F1040304F10404F0D0D4E7104629
:10CF4800704760789EF80120801A70BD00780A78D2
:10CF5800DAE700BF844640EA010313F0030F18D153
:10CF68008446202A0BD32DE9F007B1E8F807A0E89A
:10CF7800F807A2F12002202AF7D2BDE8F007042A18
:10CF880007D351F8043B40F8043BA2F10402042AF9
:10CF9800F7D2002A05D011F8013B00F8013B013A0D
:10CFA800F9D1604670478446002A2DD010F0030F4F
:10CFB80004D000F8011B013A26D0F7E7C9B241EACC
:10CFC800012141EA0141202A12D3A2F120022DE9D0
:10CFD800F0030B460C460D460E460F46884689461A
:10CFE800A0E8FA03203AFBD2BDE8F00320320BD0C8
:10CFF800042A05D340F8041B043A05D0042AF9D2C0
:0CD0080000F8011B013AFBD160467047A4
:08D014005DBF070035BF0700F6
:10D01C00FC0400209006002093060020040500204C
:04D02C00840000007C
:10D0300000000000000000001DBA07000010000002
:04D0400000000800E4
:10D0440011121314480028000020400035AC0700DA
:10D05400898807002F8807007F8D0700EF8D070060
:10D064000F8E07007F870700418707001B8D07008D
:10D074000000000000100000040000000100000097
:10D08400159107003991070049910700599107004C
:10D09400AD91070021910700259107002991070010
:10D0A400982F8A4291443771CFFBC0B5A5DBB5E90F
:10D0B4005BC25639F111F159A4823F92D55E1CAB83
:10D0C40098AA07D8015B8312BE853124C37D0C5511
:10D0D400745DBE72FEB1DE80A706DC9B74F19BC159
:10D0E400C1699BE48647BEEFC69DC10FCCA10C2449
:10D0F4006F2CE92DAA84744ADCA9B05CDA88F9762D
:10D1040052513E986DC631A8C82703B0C77F59BF96
:10D11400F30BE0C64791A7D55163CA0667292914C2
:10D12400850AB72738211B2EFC6D2C4D130D38535F
:10D1340054730A65BB0A6A762EC9C281852C729221
:10D14400A1E8BFA24B661AA8708B4BC2A3516CC74F
:10D1540019E892D1240699D685350EF470A06A1088
:10D1640016C1A419086C371E4C774827B5BCB034D7
:10D17400B30C1C394AAAD84E4FCA9C5BF36F2E6875
:10D18400EE828F746F63A5781478C8840802C78C04
:10D19400FAFFBE90EB6C50A4F7A3F9BEF27871C607
:10D1A4003DEC2A240D414803A163D409D860FF262D
:10D1B4008128E20FC6874EE209F0B8DBFCFCFC5A7A
:10D1C400236979CFEB4A3E2F6EA8BC75BCCD8E0582
:10D1D4004D882B9AE93D6B0586587A69CD9B494F5A
:10D1E40008200001FFFFFFFFFFFFFFFFFFFFFFFF1E
:10D1F400000000000000000000000000010000002A
:10D20400FFFFFFFF512563FCC2CAB9F3849E17A731
:10D21400ADFAE6BCFFFFFFFFFFFFFFFF00000000C9
:10D22400FFFFFFFF96C298D84539A1F4A033EB2D38
:10D23400817D0377F240A463E5E6BCF847422CE124
:10D24400F2D1176BF551BF376840B6CBCE5E316B68
:10D254005733CE2B169E0F7C4AEBE78E9B7F1AFE2C
:10D26400E242E34F4B60D2273E3CCE3BF6B053CC78
:10D27400B0061D65BC86987655BDEBB3E7933AAA14
:10D28400D835C65AFBA507004DA70700ADA7070070
:10D294005FAF070059AF070039AF07002000000057
:10D2A4007800000000000000000000000338FDD8F2
:10D2B40070470000010001000000000001000000B0
:10D2C4000000000002000500010000004200000010
:10D2D400000000000000000000000000000000004A
:10D2E40000000000010011000100FFFF0100000028
:10D2F40000000000020017000200FEFF64010000AD
:10D3040048D30700000000000000000000000000F7
:10D314000000000001000100000000000100000006
:10D3240000000000020005000100000022000000CF
:10D3340000000000000000000000000000000000E9
:10D3440000000000010011000400FCFF04000000C4
:10D3540000000000020011000400FCFF04000000B3
:10D3640000000000030021000400FCFF0400100082
:10D3740000000000040011000100FFFF0100000094
:10D3840000000000050011000200FEFF0400000080
:10D3940000000000060011000400FCFF040000006F
:10D3A40000000000070011000400FCFF040000005E
:10D3B40000000000080017000200FEFF2400000027
:10D3C40018D30700090010000100FFFF010000004E
:10D3D400F8D307000A0027000200FEFF4400030000
:10D3E400B8D20700000000000000000000000000A8
:10D3F4000000000000000000010017000400FCFF12
:10D4040068010000E8D20700020017000400FCFFD6
:10D41400AC0100002CD40700000000000000000054
:10D4240000000000000000000100070000000000F0
:10D4340068010000E8D207000200010000000000BB
:10D4440001000000000000000300050001000000CE
:10D454004200000000000000000000000000000086
:10D464000000000000000000FFFFFFFFFFFFFFFFC0
:10D47400FFFFFFFFFFFFFFFF0000000000000000B0
:0CD484000000D6010600000000000000BF
:10D49000000000000000000000000000000000008C
:10D4A000000000000000000000000000010000007B
:10D4B0001C0000202C0000200090D0030100000080
:10D4C00000000000002000400000000000E0070015
:020000020000FC
:020000041000EA
:041014000080070051
:0410180000E00700ED
:040000037000835DA9
:00000001FF
