:1000000000000120750300005D0300005F03000095
:1000100061030000630300006503000000000000AE
:100020000000000000000000000000006703000066
:1000300069030000000000006B0300006D03000076
:100040006F0300006F0300006F0300006F030000E8
:100050006F0300006F0300006F0300006F030000D8
:100060006F0300006F0300006F0300006F030000C8
:100070006F0300006F0300006F0300006F030000B8
:100080006F0300006F0300006F0300006F030000A8
:100090006F0300006F0300006F0300006F03000098
:1000A0006F0300006F0300006F0300006F03000088
:1000B0006F0300006F03000000000000000000005C
:1000C0006F0300006F0300006F0300006F03000068
:1000D0006F0300006F0300006F03000000000000CA
:1000E0000000000000000000000000000000000010
:1000F0000000000000000000000000000000000000
:1001000000000000000000000000000000000000EF
:1001100000000000000000000000000000000000DF
:1001200000000000000000000000000000000000CF
:1001300000000000000000000000000000000000BF
:1001400000000000000000000000000000000000AF
:10015000000000000000000000000000000000009F
:10016000000000000000000000000000000000008F
:10017000000000000000000000000000000000007F
:10018000000000000000000000000000000000006F
:10019000000000000000000000000000000000005F
:1001A000000000000000000000000000000000004F
:1001B000000000000000000000000000000000003F
:1001C000000000000000000000000000000000002F
:1001D000000000000000000000000000000000001F
:1001E000000000000000000000000000000000000F
:1001F00000000000000000000000000000000000FF
:10020000354936480A1A02D0072291438D463449AF
:1002100034480A1A06D00722914381F30988022242
:1002200082F3148830483149314A00F044F83148AB
:100230003149324A00F03FF831483249324A00F041
:100240003AF832483249334A00F035F832483349F7
:10025000334A00F030F833483349344A00F02BF881
:1002600033483449344A00F026F8344834490022EF
:1002700000F02CF833483449002200F027F83348C6
:100280003349091A082902DB002202604160314A21
:1002900090471F481F49884205D00268043003B4C4
:1002A000904703BCF7E700208646EC46002000217B
:1002B000294A9047FEE7884207D0521A05D00378B2
:1002C00001300B700131013AF9D17047884202D0F8
:1002D00002700130FAE770470000012000E00020C2
:1002E0000000012000000120A807000000000020FD
:1002F00004000020D0030000D0030000900700009D
:10030000A807000000000020000000209007000067
:100310009007000090070000900700009007000081
:10032000900700009007000090070000A60700005B
:10033000AC0700000400002004000020040000209E
:10034000040000200400002004000020040000201D
:10035000042000209D030000A1040000FEE7FEE74A
:10036000FEE7FEE7FEE7FEE7FEE7FEE7FEE7FEE765
:1003700000F002B8FFF7FCBF0F484FF007018843B9
:1003800085460E4880470E48016841F470010160BF
:10039000BFF34F8FBFF36F8FFFF732BF09480A4992
:1003A0000A4A884207D0521A05D0037801300B70F0
:1003B0000131013AF9D170470000012035050000F4
:1003C00088ED00E090070000000000200000002001
:1003D000044B1A5C012393404FF0A042C2F80C3545
:1003E000704700BF90070000044B1A5C0123934044
:1003F0004FF0A042C2F80835704700BF90070000D8
:1004000008B50020FFF7F0FF0120FFF7EDFF022005
:10041000FFF7EAFFBDE808400320FFF7E5BF000053
:10042000074A4FF0A041105CD1F804350122824008
:1004300022EA03001340C1F80805C1F80C357047E3
:1004400090070000C20708B501460CD54FF0A04345
:100450000322C3F84427C3F84827C3F84C27C3F83E
:100460005027FFF7CDFF8B070AD54FF0A0430C2292
:10047000C3F83427C3F83827C3F83C27C3F840270C
:1004800008BD000038B5054D044645F001054FF4A0
:100490007A40A847013CFAD138BD00BFA007000050
:1004A00008B50120FFF7CEFF0020FFF791FF4FF4C2
:1004B000FA70FFF7E7FF0020FFF796FF4FF4FA709E
:1004C000FFF7E0FF0220FFF7ABFF6420FFF7DAFF42
:1004D000EAE74FF0704393F8E02F062A10D1D3F8E3
:1004E000E42F12070CD1D3F8E80F00F0F003302B03
:1004F00008D000F0E000A0F1400358425841704796
:1005000000207047012070474FF0704393F8E02FB0
:10051000062A0CD1D3F8E42F120708D1D3F8E80F3C
:1005200000F0F000A0F1300358425841704700201D
:100530007047000008B5FFF7CCFF40B14FF0805383
:10054000884AD3F82433C3F30423C2F84035FFF7B5
:10055000DBFF10B1844B854A5A67FFF7BAFF48B1F9
:100560004FF080534FF08042D3F84432C3F342330C
:10057000C2F83C35FFF7C8FF30B17D4AD2F8FC30F5
:1005800023F08073C2F8FC30FFF7A3FF40B14FF0B7
:1005900080430022C3F80C21C3F81021C3F838258A
:1005A000FFF7B2FF20B14FF080430322C3F8A0252C
:1005B000FFF7AAFF60B16F4B0522C3F81026012296
:1005C000C3F888260022C3F818263F22C3F8142651
:1005D0004FF0704393F8E02F062A50D1D3F8E42F60
:1005E00011074CD1D3F8E83F03F0F003502B46D16C
:1005F0004FF08052604BD2F80414C3F82015D2F8A3
:100600000814C3F82415D2F80C14C3F82815D2F82E
:100610001014C3F82C15D2F81414C3F83015D2F8FE
:100620001814C3F83415D2F81C14C3F84015D2F8C6
:100630002014C3F84415D2F82414C3F84815D2F88E
:100640002814C3F84C15D2F82C14C3F85015D2F85E
:100650003014C3F85415D2F83414C3F86015D2F826
:100660003814C3F86415D2F83C14C3F86815D2F8EE
:100670004014C3F86C15D2F84424C3F87025FFF772
:1006800028FF48B14FF080534FF08042D3F85832E2
:1006900003F04F03C2F8E43EFFF71BFF48B14FF0F1
:1006A0008043D3F80024D20744BF6FF00102C3F89F
:1006B00000244FF08053D3F83021062A0AD1D3F812
:1006C0003431062B01BF2D4AD2F83C3743F4806306
:1006D000C2F83C37264AD2F8883043F47003C2F897
:1006E0008830BFF34F8FBFF36F8F4FF01023D3F8D5
:1006F0000022002A03DBD3F80432002B2EDA204B31
:100700000122C3F80425D3F80024002AFBD04FF0BF
:1007100010221521C2F80012D3F80024002AFBD0C1
:100720004FF010231522C3F80422154BD3F80024F0
:10073000002AFBD00022C3F80425D3F80024002AA5
:10074000FBD0BFF34F8F0A490E4BCA6802F4E06238
:100750001343CB60BFF34F8F00BFFDE70A4B0B4A3B
:100760001A6008BD0030014000C007400DF0ADBA6E
:1007700000ED00E00050004000C0004000100040CC
:1007800000E001400400FA05000000200090D003C2
:10079000111213140000000000000000000000000F
:0607A0000338FDD870478C
:0407A8000090D003EA
:040000030000037581
:00000001FF
