:1000000000000120B5020000DD020000B11F000069
:10001000E1020000E3020000E50200000000000031
:10002000000000000000000000000000E7020000E7
:10003000E902000000000000EB020000ED020000F9
:1000400095700000EF02000045710000157100007E
:1000500021710000EF020000856900009577000023
:10006000D9790000317A0000897A000035760000E5
:10007000EF02000009760000EF020000EF0200002E
:1000800085850000B51000006D7400003971000016
:1000900049790000617900007979000091790000C8
:1000A000A9790000C1790000E17A0000397B0000E5
:1000B00039720000896F000000000000000000009D
:1000C000EF020000F5720000B17300002D71000016
:1000D000E5760000716E0000EF02000000000000F5
:1000E0000000000000000000000000000000000010
:1000F0000000000000000000000000000000000000
:1001000000000000000000000000000000000000EF
:1001100000000000000000000000000000000000DF
:1001200000000000000000000000000000000000CF
:1001300000000000000000000000000000000000BF
:1001400000000000000000000000000000000000AF
:10015000000000000000000000000000000000009F
:10016000000000000000000000000000000000008F
:10017000000000000000000000000000000000007F
:10018000000000000000000000000000000000006F
:10019000000000000000000000000000000000005F
:1001A000000000000000000000000000000000004F
:1001B000000000000000000000000000000000003F
:1001C000000000000000000000000000000000002F
:1001D000000000000000000000000000000000001F
:1001E000000000000000000000000000000000000F
:1001F00000000000000000000000000000000000FF
:1002000010B5054C237833B9044B13B10448AFF350
:1002100000800123237010BD0803002000000000AF
:10022000B0E7000008B5034B1BB103490348AFF327
:10023000008008BD000000000C030020B0E70000B3
:10024000154B002B08BF134B9D46A3F5803A0021A8
:100250008B460F461348144A121A0AF065F90F4BE1
:10026000002B00D098470E4B002B00D09847002061
:10027000002104000D000D48002802D00C48AFF307
:1002800000800AF01FF92000290008F07DFA0AF02A
:1002900005F900BF00000800000001200000000078
:1002A0000000000008030020F40D00200000000002
:1002B000000000000649074A074B9B1A03DD043B78
:1002C000C858D050FBDC09F09DFCFFF7B9FF0000D7
:1002D000C4E900000000002008030020FEE7FEE75C
:1002E000FEE7FEE7FEE7FEE7FEE7FEE7FEE7FEE7E6
:1002F00008F0C0B90021084608F068B908B50846FA
:10030000114606F085F8002008BD00BF30B505464F
:1003100085B0002006F048F8044610B1204605B02C
:1003200030BD281D039009F0F1FB03980D4900949E
:100330002346224609F03EFC10F1360F0CD000286F
:10034000ECD048F2115348F2165410F1380F08BFA0
:100350001C46204605B030BD48F21454204605B076
:1003600030BD00BFFD02000008B5043009F0D4FB29
:1003700006F03EF8002008BD4FF0A042044B1B5C85
:10038000D2F80405D840C04300F00100704700BF18
:1003900094A80000044B195C4FF0A04201238B404D
:1003A000C2F80C35704700BF94A80000044B195CDC
:1003B0004FF0A04201238B40C2F80835704700BFC0
:1003C00094A800004FF0A04310B44FF480204FF4E5
:1003D00000344FF400214FF48012C3F80845C3F8ED
:1003E0000805C3F80815C3F808255DF8044B7047E5
:1003F0004FF0A04310B44FF480204FF400344FF47A
:1004000000214FF48012C3F80C45C3F80C05C3F863
:100410000C15C3F80C255DF8044B7047074B4FF0E3
:10042000A041185CD1F804350122824022EA030081
:100430001340C1F80805C1F80C35704794A80000B6
:100440000D2809D00E2809D00F2809D010280CBF7C
:1004500003204FF0FF3070470020704701207047A5
:1004600002207047C20730B41AD54FF0A0430322D0
:10047000C3F844274FF40035C3F848274FF48024CD
:10048000C3F84C274FF40021C3F850274FF48012D3
:10049000C3F80855C3F80845C3F80815C3F808257C
:1004A00083070AD54FF0A0430C22C3F83427C3F8C2
:1004B0003827C3F83C27C3F8402730BC704700BF3B
:1004C00038B5174B1D783DB3164B1968C0B20023E1
:1004D0000C4604E00133AB4204F108041CD011F8CF
:1004E00033209042F6D106F043FA6378A3F101037A
:1004F000B3FA83F35B09834200D038BD0A4BD3E9DA
:1005000000231343F9D1094B094819680022BDE8BB
:100510003840490800F0F4BB00231B78FFDE00BF21
:10052000240300204803002030030020280300207B
:10053000000000202DE9F84FDFF85082DFF85092DC
:1005400098F80030002B3DD08C4F8D4E00254FF099
:10055000010A3C6814F8350006F00AFA04EBC503FA
:1005600014F835405B78610814F0010E16F801C0EC
:10057000A3F10103B3FA83F314BF4FEA1C120CF08A
:100580000F025B09042A00F2A580DFE802F07A6519
:1005900037220300834240F0B380BEF1000F0CBF4E
:1005A000F0230F230CEA03030CBF4FF0030C4FF0B2
:1005B000300C4CEA030C06F801C098F80020013515
:1005C0009542C6DBD9E90023134340F0CE80BDE855
:1005D000F88F83427ED0BEF1000F0CBFF0230F23B3
:1005E0000CEA03030CBF4FF0040C4FF0400C4CEA34
:1005F000030C06F801C098F80020E0E783426CD1B4
:10060000BEF1000F0CBFF0230F230CEA030398F890
:1006100000200CBF4FF0030C4FF0300C4CEA030CE1
:1006200006F801C0002ACDD0D7F800C000236146EB
:1006300003E0934201F10801C1D01CF83300A0424D
:1006400003F10103F5D14B68002BB8D020460121FE
:10065000984798F80020B2E7834219BF002003466C
:1006600002232020BEF1000F0CBFF0220F220CEA63
:10067000020C18BF034643EA0C03735498F8002099
:100680009DE7834226D1BEF1000F14BF0F23F02354
:100690000CEA030314BF4FF0100C4FF0010C4CEAAE
:1006A000030C002006F801C000F092FBD9E90032EB
:1006B000A4F12001C4F120000AFA01F12AFA00F0A5
:1006C00001430AFA04F4114323430020C9E900312D
:1006D00000F086FB98F8002071E7BEF1000F0CBF18
:1006E000F0230F230CEA03030CBF4FF0010C4FF073
:1006F000100C4CEA030C06F801C098F800205EE7E5
:10070000BEF1000F14BF0F23F02398F800000CEA8D
:10071000030C06F801C098B1D7F800C00023624668
:1007200003E0834202F108020AD01CF83310A14210
:1007300003F10103F5D1536813B100212046984716
:10074000002000F045FBD9E90032A4F12001C4F1FA
:1007500020000AFA01F12AFA00F001430AFA04F42F
:1007600022EA010123EA0403AFE7064B06481968B1
:100770000022BDE8F84F490800F0C2BA4803002043
:10078000380300202803002000000020240300205C
:1007900030030020092A43D92DE9F04182B01446E4
:1007A00006460D4605F098FF002832D0214A22491E
:1007B000224B16600D7022481C600021102209F0A7
:1007C000B3FE204B002000216C1EC3E90001E4B2FF
:1007D00045B3DFF87C8006EBC404032702E0A642A1
:1007E00020D01C469DF80630A57820788DF804703E
:1007F00023F00703424601A98DF806308DF8055015
:1008000005F074FFA4F108030028E8D002B0BDE8A9
:10081000F08105F017FF0028C8D002B0BDE8F081D4
:1008200007207047084A0948002100F05BFA02B02F
:10083000BDE8F081480300202403002028030020A5
:10084000380300203003002035050000F0A8000028
:10085000C104000070B5084D2B785BB1074E002431
:100860003368012113F8340006F024F82B780134A2
:10087000A342F5D8002070BD2403002048030020C7
:1008800000B585B00346002101AA44F20100CDE97C
:100890000111039300F004F805B05DF804FB00BFFC
:1008A00070B572B604F046FF04F054F90028FBD18D
:1008B000184D6B88F3B9184B1B68DB070DD5174C27
:1008C000174E00BE6B88012B07D9A01BC00800047F
:1008D000144940F0020004F0F3FDBFF34F8F1249BA
:1008E000124BCA6802F4E0621343CB60BFF34F8F30
:1008F00000BFFDE7094C0A4E0D49A01BC0080004CB
:1009000040F0010004F0DCFD034B1B68DA07D9D589
:10091000D7E700BFC4010020F0ED00E080E8000050
:10092000D0E7000000A9000000ED00E00400FA0597
:10093000F4A80000D0E90223D1E90201994208BFDE
:1009400090422CBF01200020704700BF2DE9F04FDE
:100950002DED028B85B0064600F06CFB40B1BA4A23
:10096000D2E9003113F1807341F10001C2E9003195
:100970000021304600F07AFBB44C68B123685BB1CB
:10098000B34B25681B782BB125B195F82030002B8F
:1009900040F02281002323600121304600F066FBF5
:1009A000002840F0FC80AB4803A901F047FC78B375
:1009B000A94DDFF89C82A74F0BE0002B00F0D180FF
:1009C00003A9384601F06AFC03A9384601F036FC59
:1009D000F0B10378012B12D0022BEED128464FF054
:1009E000000903F0C5FC30B180F82090284603F0E0
:1009F000BFFC0028F8D1012388F80030E0E7416807
:100A00002368994200F0C080284603F0BBFCD7E77A
:100A1000DFF84482914FDFF8309208EE106A37E039
:100A2000404603F0A5FC05463846AB68EA680193EA
:100A3000009200F02BFB8A4E8446D9E90001D6E9EA
:100A4000002310EB0C0041F10001994208BF9042D5
:100A5000DDE9002303D210F1807041F10001B3EB16
:100A6000000A62EB010BBAF1010F7BF100032ADBF4
:100A7000BAF5350F6FD2AA684FF4960300213846B5
:100A800000F052FA00285ED00D2820D00023236009
:100A9000404603F073FC002879D02368002BBFD0B8
:100AA0002368D0E90201D3E90223994208BF9042AA
:100AB0004CD2236893F82030002BB1D021684046F7
:100AC00003F042FCACE70021384600F0C3FA604B6B
:100AD0001B78002BDAD095F82030002BD6D0384682
:100AE00000F0D4FA8446D9E90001D6E9002310EBDE
:100AF0000C0041F10001994208BF904203D210F16D
:100B0000807041F10001D5E90223994208BF90426B
:100B10005DD32B690BB985F82030D5E905309847AE
:100B200029690029B2D095F82030002BAED0D5E944
:100B30000223521843F10003C5E902232946404627
:100B400003F002FCA2E72368CBB1256005B0BDEC41
:100B5000028BBDE8F08F384600F098FA414A024413
:100B60008AE7436893F82020002A7FF429AF012206
:100B700083F820204168284603F0E6FB20E718EEC2
:100B8000100A00F0A3F9E0E70023236018E72368C8
:100B9000002BDBD118EE100A00F09CF9D6E72F48A5
:100BA0002F4D00F073FA284BD3E90089D5E90023D3
:100BB00018EB000849F10009994508BF904503D298
:100BC00018F1807849F10009C5E90089EBE629466A
:100BD000404603F0B9FB59E7204800F057FA1A4A9B
:100BE0001F4BD2E90089D3E9002318EB000849F133
:100BF0000009994508BF904503D218F1807849F162
:100C00000009D5E90223994508BF90452CD32B69EB
:100C10000BB985F82030D5E90530984729690029B6
:100C20003FF4B8AE95F82030002B3FF4B3AED5E9D1
:100C30000223521843F10003C5E90223064829465E
:100C400003F082FBA6E600BF50030020C003002093
:100C5000580300202800002034A900003C00002098
:100C6000B8030020FFFFB4000248294603F06CFBE4
:100C700090E600BF34A9000010B5134B13491B6860
:100C8000134882B058220193082301F081FA0446E8
:100C900010B1204602B010BD0E4A0F4801A900F065
:100CA000A9F804460028F4D10B48012100F0B8F956
:100CB00001231946094A084800F010F9084B01229F
:100CC00020461A7002B010BD30A900005C0300205D
:100CD000280000204D0900003C000020FFFF7F009D
:100CE000580300204AB1A1F101010368B1FA81F172
:100CF0004909C3E90412002070470720704700BF6C
:100D000090F820300BB100207047F0B5826183B0BD
:100D100004461A480D4600F0B9F9194B1949D3E9B0
:100D20000023D1E90067121843F10003BB4208BF5A
:100D3000B24203D212F1807243F1000352192169C9
:100D400043F10003C4E9022301B125610E4801A962
:100D500001F036FA48B100254460057001A90A483F
:100D600001F05CFA20B903B0F0BD042003B0F0BD7F
:100D7000024800F08FF9284603B0F0BD3C00002087
:100D800050030020B80300202800002030B50025C3
:100D900083B0044680F8205001A90B4801F010FAF6
:100DA00078B101224460027001A9074801F036FAC7
:100DB00008B903B030BD054800F06CF9284603B00F
:100DC00030BD042003B030BD280000203C000020CE
:100DD00072B6024A1368013313607047C4030020DF
:100DE000034A1368013B136003B962B6704700BF42
:100DF000C403002070B52C4B44792C4E03EBC40582
:100E000046F824202D79002D3BD102680C88C2F8C9
:100E1000084590F904208978002A1EDB02F160421F
:100E200002F561424901C9B282F8001390F9042029
:100E30001F4E204D02F01F010124520904FA01F156
:100E400046F822104279698843F8320003EBC20366
:100E500002291C7109D8002070BD174C02F00F0246
:100E600049011444C9B22176E0E7144B14481549EE
:100E7000C01AC008000440F0030004F021FB002069
:100E800070BD0C4B5B88012B01D8082070BD0B4B4B
:100E90000B480D49C01AC008000440F0020004F0DD
:100EA0000FFB082070BD00BFC8030020D003002046
:100EB00000E100E0CC010020FCEC00E0D0E7000005
:100EC00090E8000064A9000040A900000368012226
:100ED0001A607047036801225A607047F0B40468D2
:100EE0004FF480358D40C4F80853066801F1500472
:100EF000C6F84853A4000668A4B20027375182B050
:100F000036590468019601F5A87122F07F42019ECE
:100F100044F821200268C2F8445313B10368C3F8AF
:100F2000045302B0F0BC70472DE9F04704464FF47B
:100F3000803600688E40C0F848632068C0F80863B7
:100F4000206800EB81058A46D0F80415D5F84005E5
:100F5000C5F840150AF15005AD002768ADB24FF055
:100F6000000847F8058082B0401A7F59009720F0AA
:100F70007F40012822F07F479946009A41D022689D
:100F8000D2F80455C2F844637A1B22F07F42012A4A
:100F90000AF5A87125D0226842F821702068D0F89F
:100FA00004557A1BC9F1FF13013A03F57F4322F080
:100FB0007F42934211D342B1C0F8446323680020BA
:100FC000C3F8046302B0BDE8F087013740F8217030
:100FD0002068D0F804359D42EED00D2002B0BDE867
:100FE000F08720680D4B013740F8217043F0010372
:100FF0004FF4806098472068D0F804359D42DBD0DC
:10100000EBE7064A4FF4806042F001029047226805
:1010100042F8058052590192019AB0E780A9000078
:1010200002680223C2F8443311B10268C2F80433E3
:10103000704700BF0368D3F8040100B9704700226D
:1010400082B0C3F80421D3F804310193019B01203D
:1010500002B0704702684FF4803303FA01F1C2F81E
:1010600048130368C3F80813704700BF5031890064
:10107000036889B2585800B9704700225A5082B0AC
:101080005B580193019B012002B070470368D3F8BD
:101090000405704790F9043005485A09012140328F
:1010A00003F01F0301FA03F340F82230704700BF3A
:1010B00000E100E0024A034B10681B68184700BFBC
:1010C000C8030020D0030020F0B543688C461BB154
:1010D000324AD468A3423CD20023314EACF80030EF
:1010E00073684FF0010E03F580544FF6FF77083315
:1010F0009C420ED8BEF1020FACF800E006F11406D7
:101100004AD0736803F5805408339C424FF0020EB6
:10111000F0D91A680132EDD05A88033203EB82020B
:101120009442E7D39D88BD4209D01D883DB19D689A
:10113000691C04D00168A94205D01346D8E794423F
:10114000D8D91346E5E7174A436013890381012084
:10115000F0BD12699342BFD813F00305BCD1114A08
:10116000048912899442B7D104689A689442B3D131
:101170000B484268934203D902F58052934207D349
:101180008269934208D902F58052934204D2012524
:10119000ACF800500120F0BD0020F0BD5801002047
:1011A00014040020F80300202DE9F04F9C4E8BB072
:1011B00004464FF6FF773568002D00F0CB802A7883
:1011C000531E052B00F29081DFE803F05C2323031C
:1011D0000341002C40F0C5802B79012B00F0C08228
:1011E000022B00F0DA80002B00F092820DF114083F
:1011F000C8E902440594C8F8104048F20E64069409
:101200002B78013B052B4DD8DFE803F07566857917
:101210009949B5F814A0002C40F05482DFF82082E0
:10122000A97D0AEB8A0308EB83034FEA8A091C892C
:101230005B6803EB8404062900F27B84DFE811F08D
:101240002B021802FE01EB01CA01B0019601002C2D
:1012500040F08780DFF8ECC19CF80C30002B00F0E8
:10126000C4809CF800308CF80C40013B062B00F247
:101270003B81DFE813F01903F30224010C0139016B
:10128000DD02E900002C40F015822B79032B00F2DF
:101290009F80DFE813F05F017200540134010523E1
:1012A0008DF814305F4C04F1100554F8043B4046AF
:1012B00003B19847A542F8D15B495C4800243460EB
:1012C00000F0ECFF5A48012101F022F800287FF4D9
:1012D00072AF0BB0BDE8F08F01238DF814302B896D
:1012E000ADF82030AB88ADF82230EB6807930023CF
:1012F0008DF82430D6E700238DF81430D2E703238D
:101300008DF81430EB88ADF820302B89ADF8223001
:10131000EB680793C6E702238DF814302B89ADF8EC
:101320002030AB88ADF82230EB680793AB7DA3F19A
:101330000603B3FA83F35B098DF82430B2E7042384
:101340008DF81430EB88ADF820300023ADF8223052
:101350000793A7E73449354800F070FF0546306031
:101360002DE74FF406440DF114080023C8E90033BB
:10137000C8E90233C8F8103041E7DFF8C48098F8B4
:101380000030022B12D098F81430022B00F0A88302
:10139000284B0121002219705A600DF11408002415
:1013A000C8E90344C8F80840059428E700239A00D8
:1013B0001A4408EB8203002059680090082308F8BB
:1013C00022001D4A1D4802F005FC002881D0356826
:1013D000184A0DF114080023C8E90233536005933D
:1013E000C8F8103048F20D6409E79CF80030072B6C
:1013F00009D8DFE813F0DC02080008000E03FA0247
:1014000029002900D602013B062B6DD8DFE813F036
:101410004C02260257003F006C0010021C0000BF67
:1014200010040020E00300200804002044000020F5
:101430003C040020F00300209CA90000580100207B
:1014400014040020F8030020BB4BBC4A1968BC48B8
:1014500000230093CCF8043007238CF800300823D5
:1014600002F0B8FB0446002C3FF433AF35680DF1B1
:10147000140841F61D5200239442C8E90333C8F80A
:101480000830059308BF1C463FF4B9AE16E3BCF81C
:101490000230DFF8C88203EB830308EB8308D8F837
:1014A0000C30002B40F04D8204228CF80020D8F83C
:1014B0000410A348012202F053FC0446D3E7DCF8F1
:1014C00004209D485388848801689D4803339BB25B
:1014D0009B0001EB84010024009403248CF800405D
:1014E00002F078FB0446BEE70DF114080023C8E9BA
:1014F0000333C8F80830059348F20E647FE68E4C3B
:10150000904A21688E48DFF854824FF0000985F830
:1015100004900823CDF8009002F05CFB8A4B25680C
:101520005B88A18803EB830308EB830208F8239010
:1015300053682360022355601181A38045E77E4AEA
:101540007F481168002302242B719480012202F04D
:1015500007FC3AE7784B794A1968794801232B71DF
:1015600000230093082302F035FB2EE72A4641F6BC
:101570001D5409EB0A0108EB8101EB88088903334C
:1015800003440B81D144EB8808EB8908C3F57F4302
:10159000B8F80A10FD330B441546A8F80A3066E780
:1015A0006A4B6B4A1C88516865486A4A00234FF0B1
:1015B000060C85F816C00093042302F00BFB18BB41
:1015C00004EB840408EB8408012388F810300BB086
:1015D000BDE8F08F5E48AB695C4903604FF0000BDB
:1015E000C0F804B0FFF770FD002800F06A82022303
:1015F000AB7504235248CDF800B02146EA1802F03A
:10160000E9FA00283FF465AEAB7D3268022B48F260
:101610000D64B7D9ADE7EB882A6949484FF0010C52
:1016200004F10C01002485F816C09B00009402F020
:10163000D1FA0028E8D10BB0BDE8F08F2B69404803
:10164000002B14BF032301230022AB7504F1080112
:101650000092042305F10C0202F0BCFA00283FF4CA
:1016600038AEAB7D3268022B48F20D648AD980E730
:10167000032A0CBF052306230022AB7530480092D5
:10168000211D042305F1080202F0A4FA0028BBD1B1
:101690000BB0BDE8F08F02230022AB75042300924B
:1016A00027482146EA1802F095FA0028ACD10BB081
:1016B000BDE8F08F284B00225A604FF406440DF12C
:1016C000140852E6AB7DDFF89480022B08D90AEBB0
:1016D0008A0208EB8202EB88118903330B441381E1
:1016E0004FEA8A0909EB0A01EB8808EB8101C3F58F
:1016F0007F434A890DF11408FD3313440022C8E9E1
:1017000003224B81C8F8082005924FF4064476E581
:1017100002232B71CDE906440DF11408EB68059303
:1017200040460DF11201FFF7CFFC002840F09E81EA
:1017300048F2096419E600BF40040020A4A9000093
:10174000580100209CA90000F80300204804002054
:10175000D403002098A90000F00300201404002006
:10176000BB4B1B78002B00F09B81DFF8E8E2BEF852
:101770000490B9F1010F12D8DFF8EC82039409EB61
:10178000890208EB8202137883B109F1010399B24F
:1017900001299946AEF8043002F11402F3D9AD489C
:1017A0000822002108F0C0FE3568F6E55368DEF82F
:1017B000001003F5805C03F1080A002900F06E8137
:1017C0004B88033301EB83018C4506D8039BCEF88D
:1017D0000030DAE79C45F9D919460B680133F5D09A
:1017E0004B88033301EB83039C45EFD38C88BC42C9
:1017F000F0D0B1F800B0BBF1000FEBD08868013039
:10180000E8D0EB88CEF80010A342D6D10023009395
:10181000914A9248042302F0DDF9002840F07E81CD
:1018200009EB890908EB8908012388F8103050E595
:10183000BCF80220DFF830829300134408EB8308E1
:1018400006200023D8F80410854A00938CF8000085
:101850000823824802F0BEF9044604E6BCF8020000
:10186000DFF80482DCF8042000EB800308EB83033C
:101870004FEA800E596801F58055002A40F0E28059
:1018800001F10802AA426DD3704408EB8008D8F831
:101890000C30002B55D104208CF8000001226F4839
:1018A00002F05EFA0446DEE59CF80A3063B1DFF828
:1018B000B881D8F80C3000228CF80A2023B998F8A7
:1018C0001020002A40F030819CF80B3053B1DFF833
:1018D0009881D8F8203000228CF80B2013B998F8A2
:1018E000243073B90DF114080023C8E90333C8F894
:1018F00008308CF80030ACF80230CCF80430059396
:101900007DE4012318464FEA830E0EEB030108EB3A
:101910008101DCF804204968ACF8020001F580552B
:10192000002A00F003815088033002EB80029542C8
:1019300000F2D880734408EB8308D8F80C30002BF1
:10194000A9D0484B4548196802229A8005228CF894
:1019500000200023012202F003FA044683E5AB4293
:1019600092D21A46136801338ED05388033302EBA8
:101970008303AB4288D89488BC42F0D01488002CF2
:10198000EDD094680134EAD0CCF80420354C53886B
:10199000A5882168314803339BB29B0001EB850188
:1019A00099E501238CF800309CF80A307EE7DFF8D7
:1019B000B880BCF8081098F8142098F80030B2FAF3
:1019C00082F252090131B3FA83F35B098CF80B20E0
:1019D000ACF80810002201218CF80A30ACF8022083
:1019E0008CF80C208CF8001060E7BCF80220DFF8BF
:1019F00078801C4902EB820308EB830308685D686A
:101A00008C88586002201C810D60888002FA00F3E7
:101A100013E7BCF80200134CDFF84C80DCF804201C
:101A2000A388558800EB800108EB810103334968E6
:101A30002B444FF0020901F58055A38000FA09FEFE
:101A40008CF800905388033302EB83021AE700BF3F
:101A5000F00300204C04002098A900005801002049
:101A60009CA9000040040020140400200699334A79
:101A70008B88EB800B882B81314800940423BDF8C0
:101A8000124002F0A7F838BB2E4B04EB840403EBA2
:101A90008404012323740BB0BDE8F08F514693E614
:101AA0000DF1140821462848082208F03DFDC8E938
:101AB00002440594C8F8104048F201643568FFF705
:101AC0009EBB0DF11408C8E90200059048F20964B4
:101AD000C8F81000FFF793BB356848F20D6444E482
:101AE000012364E4106801303FF424AF50880330D0
:101AF00002EB80008542FFF41DAF9488BC4205D004
:101B000014881CB1946801347FF43EAF85427FF69F
:101B100011AF024610680130E8D10BE7356848F292
:101B20000D640DF1140820E41846ECE601F10802FA
:101B3000FDE62A4648F20E641BE500BF98A90000A6
:101B400058010020140400204C0400204068FFF7D6
:101B50002BBB00BF30B370B50D4682B0F1B10DF1B3
:101B600006010446FFF7B0FA18B948F2096002B05E
:101B700070BDBDF806000D4B666800EB800003EBFE
:101B8000800001210C3000F0B5FB2E60636801225B
:101B90000C3300206B60A27202B070BD48F204608A
:101BA00002B070BD48F20460704700BF140400200A
:101BB00010B310B582B00DF106010446FFF784FAA8
:101BC000B0B1BDF806300E4A03EB830302EB83038A
:101BD000DA684AB1A27A3AB1DA680021013A0846D5
:101BE000DA60A17202B010BD48F2056002B010BD0B
:101BF00048F2096002B010BD48F20460704700BFAF
:101C0000140400202DE9F047514B1B7882B083B3B8
:101C10000C46002945D00A884FF6FF739A4222D01D
:101C20004B8803B34D6815F0030534D1B1F8089023
:101C300009F103039BB240F2FE32934234D8454A85
:101C40001178074639B9508911890144194489B27C
:101C5000B1F5806F2BD9117D89B148F20665284610
:101C600002B0BDE8F08748F20365284602B0BDE83F
:101C7000F08748F20165284602B0BDE8F087D08BB6
:101C8000918B0144194489B2B1F5806FE5D84FF0CA
:101C9000010841460DE048F20265284602B0BDE861
:101CA000F08748F20465DAE748F20865D7E7A84606
:101CB00029464FEA810A8A4402EB8A0A034401A9B1
:101CC0002548AAF80A3000F07BFA1C2206460021BB
:101CD00008F02AFC002E2FD002234FF0000AA6F8AD
:101CE0001480337086F816A06368336101211B48A5
:101CF00000F000FBF0602388338163881648B380CE
:101D000001A9A6F80AA0A6F8069000F087FA47B144
:101D1000C7F804A0F268124B3A601B8987F80AA042
:101D20003B811048012100F0D7FA0446002896D1E3
:101D3000FFF73AFA254692E7BAF80A30C9F57F4923
:101D400009F1FD099944AAF80A9048F2076586E767
:101D5000F003002014040020440000200C040020A4
:101D6000F80300203C0400202DE9F04782B068B35E
:101D7000524B1B78002B41D00C4639B30A884FF6E2
:101D8000FF739A4234D04B8893B34E6816F0030623
:101D90003AD1B1F808A00AF103039BB240F2FE3237
:101DA000934234D8464A1178054639B95189108989
:101DB0000844184480B2B0F5806F2BD9117D59B119
:101DC00048F20666304602B0BDE8F08748F2046685
:101DD000304602B0BDE8F087D18B908B08441844A0
:101DE00080B2B0F5806FEBD84FF00109484613E0A0
:101DF00048F20366304602B0BDE8F08748F201665B
:101E0000304602B0BDE8F08748F20266DAE748F2F1
:101E10000866D7E7B14630464FEA8008804402EBB7
:101E200088080B442748A8F80A3001A900F0C8F92F
:101E30001C220746002108F077FB002F32D04FF01C
:101E400000080323A7F814903B7087F81680636896
:101E50003B6101211C4800F04DFAF86023883B816A
:101E60006388BB800423A7F806A0BB752B68BB6101
:101E700001A91448A7F80A8000F0D0F9C5F8048039
:101E8000FA68124B2A601B89114885F80A802B8159
:101E9000012100F021FA0446002893D1FFF784F9CC
:101EA00026468FE7B8F80A30CAF57F4A0AF1FD0ADC
:101EB0009A44A8F80AA048F2076683E7F0030020D6
:101EC00014040020440000200C040020F80300202B
:101ED0003C0400202DE9F047324C2478002C59D0E6
:101EE000002A5BD0002B59D09F88012F14D82E4E8A
:101EF00007EB87048A4606EB84064FF6FF7E4FF019
:101F0000000834785CB10137BCB2022C9C8006F129
:101F100014064FF00107F4D148F2096035E01C685F
:101F2000756805F5805C002C31D06588033504EBBD
:101F30008504644505D3C3F80080E4E7AC45FAD9CD
:101F40002C4625680135F6D06588033504EB8505F8
:101F5000AC45F0D3B4F80490F145EFD0B4F800905C
:101F6000B9F1000FEAD0A1680131E7D01C60A58863
:101F70008542D5D125885545D2D1A168116019680F
:101F80000A4B51601B8913810020BDE8F08705F1E1
:101F90000804CEE748F20160BDE8F08748F204602B
:101FA000BDE8F087F003002014040020F8030020AF
:101FB0001EF0040F1CBFEFF309800AE0EFF3088066
:101FC0000549064A884201D8904202D88D464FF012
:101FD0000000034B184700000000012000E0002033
:101FE00009200000BFF34F8F0549064BCA6802F471
:101FF000E0621343CB60BFF34F8F00BFFDE700BF2C
:1020000000ED00E00400FA052DE9F04F83B08146B1
:1020100003F090FB02F09EFD0028FBD14F4BDFF850
:1020200068819D6AB8F80230B9F1000F00F0838032
:102030004B4C4C4E002B48D1484BA4EB060A4FEAC0
:10204000DA0A4FEA0A4ADB6A4AF0010A464FDFF829
:102050003CB10024012602E001341A2C12D006FA09
:1020600004F32B42F8D057F82420002AF4D0B8F813
:102070000230002BF0D059465046013403F04EF99F
:102080001A2CECD12A060ED5B8F802302BB94846E6
:10209000FFF7A8FF03B0BDE8F08F304B33495A6B10
:1020A000504603F03BF92B04F1D5B8F80230002B71
:1020B000EDD02A4B2E499A6B504603F02FF9484633
:1020C000FFF790FF03B0BDE8F08FA4EB060A4FEADC
:1020D000DA0A4FEA0A4A4AF0010AD9F818202549D3
:1020E000504603F01BF9B8F80230002BA4D0D9E910
:1020F0000232CDE900322049D9E90023504603F0ED
:1021000021F8B8F80230002B96D0D9F81C30009393
:10211000D9E904231949504602F034FF0F4BDB6A1A
:10212000990793D5B8F80230002B8FD01449504648
:1021300003F0C6F98AE713B9094C0A4E7CE7084B4D
:10214000084A1049A3EB020A4FEADA0A4FEA0A4AA0
:102150004AF0010A504603F0B3F9DFE700ED00E072
:1021600000E90000D0E70000C4AF0000A8AA00000A
:10217000C8AA0000ACA90000C4A90000FCA9000086
:1021800058AA000024AA0000040200209CAA000013
:1021900099B110B4B2FBF3F403FB1424A4B244B914
:1021A000C0E9001484608281C38120465DF8044B3D
:1021B000704709205DF8044B70470E20704700BF40
:1021C00030B482B050E8013F9DB2C489254484896F
:1021D000A54228BF2D1B0489A54202BFBFF32F8F44
:1021E000002207E0C5EA030540E80154002CE9D1CC
:1021F0004FF001028DF803200193019B9DF803200D
:102200000B602AB10B880068184402B030BC7047DC
:1022100002F0FF03184602B030BC70470A884B88B2
:102220009A4201D00020704750E8012FC2EA0242D2
:1022300040E80123002BF7D10120704730B482B071
:1022400050E8023F1FFAA3F5C488A54202BFBFF3BE
:102250002F8F00220DE0C48925448489A54228BF20
:102260002D1BC3EA054540E80254002CE8D14FF08D
:1022700001028DF803200193019B9DF803200B6060
:102280002AB14B880068184402B030BC704702F095
:10229000FF03184602B030BC704700BF0A884B8865
:1022A0009A4201D00020704750E8022FC2EA224231
:1022B00040E80223002BF7D10120704710B40346F9
:1022C00053E8000F0A4643E8002494F0000FF7D1CA
:1022D0005DF8044B704700BF10B4034653E8000F8D
:1022E00000EB010243E8002494F0000FF6D15DF802
:1022F000044B704710B4034653E8002F02EB010073
:1023000043E8000494F0000FF6D15DF8044B7047E9
:1023100010B4034653E8002FA2EB010043E8000489
:1023200094F0000FF6D15DF8044B704710B40346EB
:10233000012253E8001F41EA020043E8000494F040
:10234000000FF6D15DF8044B704700BF10B4034690
:10235000002253E8000F00EA020143E8001494F061
:10236000000FF6D15DF8044B704700BF2DE9F04730
:102370008368D3F84831C3F340059B0788B045D440
:1023800001293CD8254C264B264A1B1B9F081B2B9A
:10239000A2FB072730D9DFF894A00646A9464FF0E4
:1023A00064082268D4F808C013791068626806933C
:1023B000ACEB000003EB8303ACEB0202218B079232
:1023C000C0B203EB830303900492009101359B009C
:1023D000CDF80490B3FBF2F308FB00F00593B0FBDB
:1023E000F2F06369029052460821304600F0F6FB95
:1023F000AF4204F11C04D4D808B0BDE8F0870A4A03
:10240000022108B0BDE8F04700F0E8BB0022114609
:1024100008B0BDE8F04700F0BBBE00BF50E90000C7
:102420006CE900002549922474B0000088B00000D7
:10243000B8B130B4D0E90112521A0468D2B2531EB6
:102440002160DBB242B101680A685C1E551C0D6058
:102450001370E3B2FF2BF6D103680020187130BC73
:1024600070470E20704700BF38B504460020FEF7C5
:10247000AFFCD4E900311A688A4215D9511E19609F
:102480002168A3680868258B12F8012CE4681B1AE0
:102490000879DBB2984205FB024400D20B710020A0
:1024A000FEF79EFC204638BD00240020FEF798FC75
:1024B000204638BD38B5054600200C46FEF788FC9E
:1024C0002A681368591C1160E9682A8B641AB4FBE6
:1024D000F2F41C70BDE838400020FEF781BC00BF5C
:1024E0002DE9F041054680684C4E82B000248022E0
:1024F0002146A0308DF8034008F016F828694849B5
:1025000000F0CCFF286900F0BDFF46F001064FF453
:102510007A78686803680DF103011F69012201AB35
:10252000B847019B611CC3B19DF80320AB681B2A0F
:1025300005D093F8A0001B28EBD1522A1CD02344CD
:10254000CCB2092C83F8A020E3D9AB68002283F831
:10255000A020042002B0BDE8F0814FF6C010B047C3
:10256000019B002BD5D108F1FF371FFA87F8B8F18E
:10257000000FCED10D20EDE71C44002084F8A00010
:10258000AF6897F8A1305B2B42D107F1A106022377
:1025900002E0802B90B237D016F8014F00EB80029A
:1025A000A4F130013B2C01EB4202D9B203F101034B
:1025B000EFD101310A065FFA81FC25D40CF1A002AB
:1025C0003A44ACEB020C002102E099B233061BD472
:1025D00012F8014B01EB810304EB4303303B0CEB9E
:1025E0000206002CF1D1FA2928BFFA213975AB680F
:1025F000FA288ABFFA2298759A75AB68002083F88A
:10260000A00002B0BDE8F0810C2002B0BDE8F0816E
:1026100087F8A0000B2002B0BDE8F08150B60000A2
:1026200044B600002DE9F04F804D0B78EB5C8BB089
:1026300013F0080302910746069200F0F4800B465F
:10264000C1F10101C81813F8012FAA5C1607F9D4CB
:102650008346069AD3B205931346029A9B1A0793B0
:10266000D946B846029C204607F070FFD8F80830DB
:1026700093F819C0069BA0EB0900ACEB030B58457F
:1026800073D9079ACDF8049009F1FF33C4F101061C
:102690002344A6EB090AA2EB090E0AEB030406EB9E
:1026A00003095A78A95C013309070EEB030002D530
:1026B0000A2A55D0A3468445EFD8DDF80490029A43
:1026C00009EB0B030493D3185C460393D8F810006E
:1026D00000F0D8FE2CB34FF0000B09ABCA46D8F877
:1026E0000400029902680193D76851442246B84712
:1026F0000999019B29B1641A8B4412D009EB0B0A8A
:10270000EDE7D8F8082011780329E8D0D2F848116D
:102710008906FBD5B2F848116FF34511A2F84811AC
:10272000DDE7039B1B78EB5C18076AD5049B029AD4
:1027300013441C4606EB040914F8013FEB5C1B072D
:10274000F8D43B49D8F8100000F0A8FE059B002BF8
:1027500088D03849D8F810001A4600F09FFE81E76B
:10276000CDE90339DDF80490B0E74946CB4647464A
:10277000002839D0029A09F1FF3313444FF00009C1
:1027800003E009F1010948452ED013F8012F0A2A68
:1027900001EB0904F5D1386900F074FEB9F1000FBE
:1027A00015D04FF000080DF1240A5E4678680299B2
:1027B00002683144D56853464A46A847099919B377
:1027C000B9EB0109884402D00BEB0806EEE7631C65
:1027D000174938699B4600F061FE059B23B11549F6
:1027E00038691A4600F05AFE029B38695B44194664
:1027F00000F054FE38690E4900F050FE0BB0BDE801
:10280000F08FDDF810909CE7B8680378032BCDD0EB
:10281000D0F848319D06FBD5B0F848316FF3451329
:10282000A0F84831C2E79B4613E700BFA9E60000C5
:1028300014B10000A4B100000CB470B584B008ABB2
:10284000816853F8045B0193D1F848315B07044673
:1028500001D5CB7E4BB92069294601AA00F0D4FEF0
:1028600004B0BDE8704002B070471B3102226846D8
:1028700007F04CFEA368294A29490026DE76206924
:1028800000F00CFE01AA2069294600F0BDFE9DF86B
:102890000030A268002B35D0D17E994211D0214959
:1028A000029103F12F006D2133258DF80D00ADF855
:1028B0000E108DF80C50D3762069194902AA00F049
:1028C000EDFD9DF80130002BCAD0A268117F99421E
:1028D000C6D045F61B3103F12F00ADF808103425A2
:1028E0006D218DF80B00ADF80C108DF80A501377A0
:1028F00020690B4902AA00F0D1FD04B0BDE8704088
:1029000002B07047D3762069044A054900F0C6FD3D
:102910009DF80130002BA3D0D7E700BF2CB60000F4
:10292000ACB100001B5B313B0CB430B585B008ABDB
:10293000816853F8045B0193D1F848315B07044682
:1029400002D5CB7E082B09D12069294601AA00F0C7
:102950005BFE05B0BDE8304002B0704702221B317B
:10296000684607F0D3FDA368DA7E082A0AD02B4A0E
:102970002B49029208220391DA76206929496A4498
:1029800000F08CFD01AA2069294600F03DFE9DF86B
:102990000030A268002B35D0D17E994211D01F495A
:1029A000029103F12F006D2133258DF80D00ADF854
:1029B0000E108DF80C50D37620691A4902AA00F047
:1029C0006DFD9DF80130002BC3D0A268117F9942A4
:1029D000BFD045F61B3103F12F00ADF808103425A8
:1029E0006D218DF80B00ADF80C108DF80A5013779F
:1029F00020690C4902AA00F051FD05B0BDE8304045
:102A000002B07047D3762069074A064900F046FDB8
:102A10009DF80130002B9CD0D7E700BF1B5B313BFA
:102A200033376D00ACB100002CB600002DE9F04743
:102A3000074686B0504807F089FD05464F4807F025
:102A400085FDBB684E495B684E4A00912D1A0821EE
:102A50003846FFF769FFBB685868ADB2002800F040
:102A6000888007F073FD84B2454807F06FFDBB68AE
:102A70009968204482B211B13846FFF7D3FD424A2B
:102A800000213846FFF7D8FE3C4807F05FFD841C64
:102A90002C44394B3D4A0093A4B2234608213846C2
:102AA000FFF742FFE21C3A4992B23846FFF7BAFDFF
:102AB000BB68DE68002E52D00024254620463278BE
:102AC0000134230102A9103B8AB173689847029828
:102AD00098B10DF1080807F039FDA842EED9D8F8F1
:102AE000000000283ED007F031FD85B2E6E77268AD
:102AF000D05802EB03080028EDD1012C2FD0254A35
:102B0000DFF888A00021384605F10209FFF794FE9E
:102B10001FFA89F94FF0000814E073689847029B88
:102B2000EBB102AC08210093524638464B46FFF702
:102B3000FBFE61686A1D92B23846A9B1FFF772FDCB
:102B400008F1010833784FEA081202A94046002B29
:102B5000E3D17468A35804EB0814002BE2D106B04B
:102B6000BDE8F0870546A9E70B49386900F096FCF7
:102B7000E6E7044678E700BF58B60000BCB700009F
:102B80004CB6000078B30000B0B10000BCB100004A
:102B9000C4B10000D8B1000014B10000022910B582
:102BA000044604D18368D3F848319B070BD42069CD
:102BB000074A084900F072FC2069074A0549BDE848
:102BC000104000F06BBCBDE81040FFF72FBF00BF06
:102BD00030B60000ACB1000034B600000CB470B5E3
:102BE00084B008AB826853F8046B0193D2F8483183
:102BF0005B07044603D5D37E8B420D4609D120697D
:102C0000314601AA00F000FD04B0BDE8704002B0FA
:102C1000704702F11B016846022207F077FCA368A7
:102C2000002D5FD0DA7EAA4211D0324A02923322BE
:102C300005F12F018DF80C206D228DF80D10ADF8E7
:102C40000E20DD7620692C4902AA00F027FC01AA9B
:102C50002069314600F0D8FC9DF80030A268002BB6
:102C600035D0D17E994211D02249029103F12F0033
:102C70006D2133258DF80D00ADF80E108DF80C5038
:102C8000D37620691C4902AA00F008FC9DF80130A7
:102C9000002BB9D0A268117F9942B5D045F61B31FF
:102CA00003F12F00ADF8081034256D218DF80B00CD
:102CB000ADF80C108DF80A50137720690E4902AA5E
:102CC00000F0ECFB04B0BDE8704002B07047D37672
:102CD00020690A4A084900F0E1FB9DF80130002B09
:102CE00092D0D7E7DD762069044A034900F0D6FB8D
:102CF000ADE700BF1B5B313BACB100002CB6000060
:102D000001290AD0022904D18368D3F848319B07EE
:102D100003D4034A0221FFF761BFFFF787BE00BF5C
:102D200040B2000010B5012982B004460BD0022940
:102D30000B4616D08268D2F84811890703D4022BBB
:102D400007D802B010BD204602B0BDE81040FFF722
:102D50006DBE5368084A022102B0BDE81040FFF77B
:102D60003DBF53680193054C1368054A0094FFF773
:102D700035FF02B010BD00BFC0B20000A8B2000015
:102D80009CB2000010B48368D3F84821C2F3400419
:102D900092070AD401290CD1B3F8482164F3C30285
:102DA000A3F848215DF8044B70475DF8044BFFF72A
:102DB0003DBE5B68024A5DF8044B0221FFF70EBF7F
:102DC000C0B200008368D3F84821920708D40129D3
:102DD00008D1B3F8482142F00802A3F8482170470F
:102DE000FFF724BE5B68024A0221FFF7F7BE00BF6F
:102DF000C0B20000F0B58368D3F84821C2F34004A4
:102E0000920787B02AD401292CD1D3F8405105B3B9
:102E1000184F064628460023092203A901F0E4F8CA
:102E20009DF81420B16828460132A031092301F031
:102E3000DBF8B368049D03F1A002009223463A46F2
:102E4000002130460134FFF7F7FC0DB1082CE1D129
:102E5000B368002283F8A02007B0F0BDFFF7E6FDBD
:102E600007B0F0BD5B68044A0221FFF7B7FE07B068
:102E7000F0BD00BFDCB20000C0B200008368D3F830
:102E80004821920708D4012908D1B3F8482142F01B
:102E90000402A3F848217047FFF7C8BD5B68024AE7
:102EA0000221FFF79BBE00BFC0B2000070B585686D
:102EB000D5F84821930784B0C2F340061DD40129F8
:102EC00020D1C3685B681D680446284601F026FAD5
:102ED000A368A968D3F838310291C0B2642202FB1A
:102EE00000F2B2FBF1F2D2B2CDE900203146094A3C
:102EF0002046FFF7A1FC04B070BD04B0BDE87040EF
:102F0000FFF794BD6B68044A022104B0BDE870402D
:102F1000FFF764BEE8B20000C0B2000010B48368DE
:102F2000D3F84821C2F3400492070AD401290CD1F6
:102F3000B3F8482164F38202A3F848215DF8044BFA
:102F400070475DF8044BFFF771BD5B68024A5DF89E
:102F5000044B0221FFF742BEC0B2000030B48468C7
:102F6000D4F848219307C2F3400509D401290AD1B6
:102F7000C4F83851C3685B6830BC186801F0D2B936
:102F800030BCFFF753BD6368024A30BC0221FFF733
:102F900025BE00BFC0B200008368D3F84821920765
:102FA0000FD401290FD110B50446094A0949006917
:102FB00000F074FAA36850225A76A36818221A7691
:102FC00010BDFFF733BD5B68034A0221FFF706BE61
:102FD0003CB60000ACB10000C0B2000070B585681E
:102FE000D5F84841A30782B0C4F3400611D40229A2
:102FF00014D81BD0D5F84811114C124B124A11F0BD
:10300000080F18BF2346314602B0BDE87040FFF7F5
:1030100013BC02B0BDE87040FFF708BD6B680B4AF7
:10302000022102B0BDE87040FFF7D8BD536801939C
:10303000074C1368074A0094FFF7D0FD02B070BD3B
:103040001CAE000020B3000024B30000C0B200009A
:10305000A8B200009CB2000070B5012982B00446FD
:1030600010D08568D5F84861B3070BD402290FD179
:10307000536801930A4C13680A4A0094FFF7AEFDA7
:1030800002B070BD204602B0BDE87040FFF7CEBC74
:103090006B68054A022102B0BDE87040FFF79EBD93
:1030A000A8B200009CB20000C0B20000F0B5012937
:1030B00083B0044611D08368D3F84841A40744D4B0
:1030C000022947D853682A49019313680091294A75
:1030D0000221FFF783FD03B0F0BD8568FFF700FA1A
:1030E00028BBA368244920691F7D9E7DFA2200F039
:1030F000D5F920692149FA2200F0D0F92046FFF7DE
:10310000EFF9A0B9A3681A7D6A76A368D21B9B7DEC
:103110002B7612F0FF0225D19B1B13F0FF02DAD0B1
:103120002069174903B0BDE8F04000F0B7B9A368C3
:10313000144A50215976A368182119762046042193
:1031400003B0BDE8F040FFF749BD03B0BDE8F04073
:10315000FFF76CBC5B680C4A022103B0BDE8F0408D
:10316000FFF73CBD0949206900F098F92B7ED3E7B1
:10317000A8B200009CB20000A4B10000E8B10000B9
:10318000F8B1000038B30000C0B20000F0B1000098
:103190002DE9F04F054687B0AE480C46904607F043
:1031A000D5F90646AC4807F0D1F9AB68AB495B6886
:1031B000AB4A0091361A08212846FFF7B5FBAB68E9
:1031C0005868B6B2002800F02E8107F0BFF987B228
:1031D000A24807F0BBF9AB689968384482B211B1D4
:1031E0002846FFF71FFA9F4A00212846FFF724FBD5
:1031F000B8F1000F32D0002C00F0178108EB48081E
:1032000004EB8808A1461FE007F0A0F9D9F80030C8
:1032100007461BB1184607F099F90744BE420ED283
:10322000D9F80400002800F08E8007F08FF986B2EC
:10323000D9F8000018B107F089F9304486B209F1D5
:103240000C09C84500F08180D9F804000028DBD1C2
:10325000D9F80030002BF2D00746DBE77E4807F0B4
:1032600075F9023006447B4B7F4A0093B6B2334671
:10327000082128460336FFF757FB7C49B2B228469F
:10328000FFF7D0F9AB68DF68002F52D00024264644
:1032900020463A780134230102A9103B8AB17B68A9
:1032A0009847029898B10DF1080807F04FF9864247
:1032B000EED2D8F8000000283ED007F047F986B2D9
:1032C000E6E77A68D05802EB03080028EDD1012C1C
:1032D0002FD0674ADFF890A10021284606F10209A5
:1032E000FFF7AAFA1FFA89F94FF0000814E07B688B
:1032F0009847029BEBB102AC082100935246284646
:103300004B46FFF711FB6168721D92B22846A9B1C6
:10331000FFF788F908F101083B784FEA081202A983
:103320004046002BE3D17C68A35804EB0814002B23
:10333000E2D107B0BDE8F08F0646A9E74D492869FC
:1033400000F0ACF8E6E7064672E7434807F0FEF8FF
:10335000871C3744BFB23F4B434A009307F1030930
:103360003B46082128461FFA89F907F1020AFFF7B0
:10337000DBFA5FFA8AFA3D494A462846FFF752F9D6
:10338000AAF1020A2EE034492846CDE900123A4A51
:103390000821FFF7C9FA606800283DD007F0D6F889
:1033A000C6B22068002835D007F0D0F85FFA80FB5D
:1033B000294807F0CBF8AAEB0606A6EB0B06301A55
:1033C00010F0FF022AD12D4928693A2200F066F850
:1033D000A168B1B14A462846FFF724F90C34A0454C
:1033E0003FF450AF63688BB12268002ACBD10093C1
:1033F00008211D4A3B462846FFF796FAA168002996
:10340000E8D11C49286900F049F8E7E72368002B58
:10341000EDD1DDE78346CBE70646C2E718492869C8
:1034200000F03CF8CFE70746D2E60B4807F08EF8ED
:1034300002300644B6B2074B009328460A4A334688
:103440000821FFF771FAF21C084992B22846FFF7EB
:10345000E9F817E758B60000BCB700004CB600000A
:1034600078B30000B0B10000BCB10000C4B10000EE
:10347000D8B1000014B1000074B3000000B2000025
:10348000A4B10000826842B110B5044643690168E6
:10349000006998470023A36010BD70470EB400B5C3
:1034A00082B0039921B104AB01AA019300F0ACF8FA
:1034B00002B05DF804EB03B0704700BF2DE9F04F98
:1034C000164683B0B142DDE90C920F4605469A4696
:1034D000C0F095800B464FF00108B3FBF6F39E4217
:1034E00008F10108F9D9D04538BFD04612F00103E0
:1034F000019302D1B9F1000F5ED1AA68012403E063
:103500000AF1FF3A06FB04F4BAF1010FF8D8B7FB51
:10351000F4F39E42F6D9DFF8ECA007E0B442B4FB26
:10352000F6F31AD3AA681C46B7FBF3F31AF803B0F4
:10353000BBF10A0F04FB137728D02B68511CA9603C
:1035400003F802B0D5E901329A42E7D32846FFF7E3
:1035500099FFB4FBF6F3B442E4D2019B9BB1B9F1FD
:10356000000F10D02024C84509F1FF390BD2AB68F9
:103570002A68591CA960D454D5E901329A4214D260
:10358000B9F1000FEFD103B0BDE8F08F511C2B68EB
:10359000A9604FF00D019954D5E901329A42CCD37C
:1035A0002846FFF76FFFAA68C7E72846FFF76AFFBC
:1035B000B9F1000FD7D1E6E793071AD42024AA68FF
:1035C000C84502F1010199D22B68A9609C54D5E944
:1035D00001329A4209F1FF3903D2B9F1000FEFD15C
:1035E0008CE72846FFF74EFFAA68B9F1000FE7D134
:1035F00084E7BAF1000F0CBF30242024DFE74FF03E
:10360000010870E7E8B70000002900F054822DE9B6
:10361000F04FDFF8B8950C7885B0064690460D4619
:103620004FF00D0A10E00A2CB36800F0AD8032684C
:10363000591CB160D454D6E901329A4280F0A0807E
:103640002C78002C00F087800135002C00F083805E
:10365000252CE8D1294600270D4611F8012B2D2AEB
:1036600000F08880302A00F088802B2A7AD02A2A1D
:1036700000F09980A2F13003092B4FF000040BD821
:1036800004EB840402EB440415F8012FA2F130038B
:10369000092BA4F13004F3D92E2A00F090800023E6
:1036A00001E015F8012F02F0FB016829F9D0252A65
:1036B00000F07781583AD1B2202947D8202A45D83E
:1036C000DFE812F0350144004400440044004400A7
:1036D00044004400440044004400430113014400FA
:1036E00044004400440013014400440044004400EA
:1036F00044004400D20044004400A200440094006E
:1037000044004400350101209842024638BF1A4661
:103710000292002C40F05081B80740F16E81002BDE
:1037200040F04E821C46BBF1000FC0F20A827A07BD
:1037300000F11A8207F00302022A00F0EA81CDE9C3
:10374000004759460A223046FFF7B8FE01352C786B
:10375000002C7FF479AF337B002B40F01C8105B047
:10376000BDE8F08F0D4611F8012B2D2A47F0040714
:103770007FF478AF47F001076EE747F002076BE789
:103780003046FFF77FFE5BE73268591CB16002F8F4
:1037900003A0D6E901239342FFF449AF3046FFF777
:1037A00071FEB36843E7D8F800301A1DC8F800204E
:1037B0006A781C682E2A05F101057FF470AF6A78DB
:1037C000A2F13003092B05F101054FF000033FF68C
:1037D0006AAF03EB830302EB430315F8012FA2F159
:1037E00030010929A3F13003F3D95CE7D8F80020B0
:1037F000111DC8F8001011683046CDE900470A22B3
:10380000FFF75CFE0135A2E7D8F800301A1DC8F8B2
:10381000002017F00107D3F800B040F0F080BBF1B2
:10382000000F03D0584606F091FE0746BC4240F216
:103830004381002C00F04081202205E0BC4200F0D2
:103840003B81002C00F03881B1683368481CB060BF
:103850005A54D6E90130984204F1FF34EED3304691
:10386000FFF710FE2022E9E7D8F80020131DC8F862
:103870000030B36831681768581C3022B060CA54F1
:10388000D6E90123934280F0EF803268581C7821FA
:10389000B060D154D6E901329A4280F0E0800F2F17
:1038A00003D93B461B090F2BFCD84FF0805406E090
:1038B0000F2C4FEA14137FF649AFB2681C46B7FBD2
:1038C000F4F319F803B0BBF10A0F04FB137754D0DB
:1038D0003368511CB16003F802B0D6E901329A4254
:1038E000E6D33046FFF7CEFDE2E7D8F80020111D01
:1038F000C8F80010D2F800B08BEAEB72A2EBEB72C2
:10390000092A7FF700AFDFF8C8C2012011466329FA
:10391000ACFB02E200F101004FEAD202F6DC984271
:10392000024638BF1A460292002C45D1F4E6D8F878
:103930000020111DC8F8001011683046CDE900477D
:103940001022FFF7BBFD013501E7D8F800301A1D42
:10395000C8F800201C78B3680A2C00F01181326886
:10396000591CB160D454D6E901329A42FFF4EEAE4C
:103970003046FFF787FD0135E9E63368511CB16039
:1039800003F802A0D6E901329A42A1D33046FFF7EC
:1039900079FDB2689CE7304605B0BDE8F04FFFF70F
:1039A00071BDB3683168581CB060CA54D6E90132A1
:1039B0009A42DDD20135CAE6BBF1000F59DB7A0726
:1039C00057D4B80702D5002B3FF4ADAEF9073FF549
:1039D000AAAE94B120220299A142BFF4A4AEB1686C
:1039E000481CB06030684254D6E90101814204F1BC
:1039F000FF3480F0D480002CEDD1002493E69BF8B6
:103A00000030002B00F0E080B0685F46CBF101028F
:103A10000A2B02EB070B3CD0411CB16031680B5400
:103A2000D6E90130984226D217F8013F002BEFD19A
:103A30005C457FF68BAE202702E05C453FF486AE06
:103A4000B2683368511CB1609F54D6E901329A4282
:103A500004F1FF34F1D33046FFF714FDEDE73046B3
:103A6000FFF710FDB2681AE73046FFF70BFDB368A9
:103A70000BE7013CA5E730460292FFF703FD17F87C
:103A8000013F002BD4D0029AB0680A2B02EB070B3F
:103A9000C2D1411CB160316801F800A0D6E9011023
:103AA0008842B9D33046CDE90232FFF7EBFCDDE9BD
:103AB0000232B068B0E770479BF80040002C3FF43A
:103AC00045AE0A2CB0680ED03368421CB2601C545C
:103AD000D6E90130984214D21BF8014F002C3FF474
:103AE00035AE0A2CF0D13368421CB26003F800A056
:103AF000D6E901309842E7D33046FFF7C3FCB068FF
:103B0000E2E73046FFF7BEFC1BF8014F002CD8D18E
:103B10001CE6002B7FF413AE8CB130220299A14237
:103B2000BFF40DAEB168481CB06030684254D6E9AD
:103B30000101814204F1FF343BD2002CEED100247C
:103B4000FDE5B1684A1CB26032682D205054D6E9B8
:103B500001219142CBF1000BFFF4ECAD3046039311
:103B6000FFF790FC039BE5E5B1684A1CB260326840
:103B70002B205054D6E901219142FFF4DBADEDE753
:103B80003268591CB16002F803A0D6E901239342C0
:103B9000FFF4E5AE3046FFF775FCB368DFE630466C
:103BA0000393FFF76FFC039B2022002C7FF413AFDD
:103BB00023E730460393FFF765FC039B3022BCE705
:103BC000F9073FF5B0AD18E79B4631E7E8B70000CD
:103BD000CDCCCCCC2DE9F04182B0002848D0002AD1
:103BE00062D0D0F800E0BEF1000F71D01D465BB38B
:103BF0004768D7F80480B3FBF8F708FB1737A7B975
:103C00008F073DD112F0030F67D1C768B94204D3C3
:103C100004694E1E3544A5420FD9444B5B88002BE6
:103C200064D1102002B0BDE8F081404B5B88002BCE
:103C300061D1092002B0BDE8F081DEF80C40A44655
:103C400002B0BDE8F0416047384B5B88002BF0D0F4
:103C50003748384C384B394A3949001BC0080924C9
:103C6000000440F00100009401F08CF92046E1E7E7
:103C70002E4B5B88002B43D10E2002B0BDE8F081B3
:103C80002A4B5B88002BCCD029482A4C2A4B2D4A42
:103C90002B49001BC0081024000440F001000094D0
:103CA00001F070F92046C5E7204B5B88002BE3D07C
:103CB0001F48204C204B244A2149001BC0080E24D9
:103CC000000440F00100009401F05CF92046B1E7E7
:103CD000164B5B88CBB90820ACE7144B5B88002BF4
:103CE0009FD01348134C144B184AD1E71048114C7D
:103CF000114B174ACCE70E480E4C0F4B154AABE759
:103D00000B480C4C0C4B144AD6E70A4C08480A4B9B
:103D1000124A0B49001BC0080824000440F00100AF
:103D2000009401F02FF9204684E700BF0C02002028
:103D300010E90000D0E70000ACB9000048B800006E
:103D400000B80000C0B800008CB80000D8B800006F
:103D5000FCB8000094B80000F8B7000034B80000C8
:103D6000F0B583B000283CD0D0F800C0BCF1000F03
:103D70003CD0002A2FD04768D7F800E00EF1FF377B
:103D80000F4222D1C768B94212D2354B5B88FBB1D2
:103D90003448354C354B364A3649001BC008102490
:103DA000000440F00100009401F0ECF8204610E01F
:103DB00004694D1E0EFB0255A542E6D8DCF8104002
:103DC000A44603B0BDE8F0406047254B5B8813BBB9
:103DD000102003B0F0BD224B5B8863B9092003B00B
:103DE000F0BD1F4B5B88DBB90E20F2E71C4B5B88F4
:103DF00033BB0820EDE71C4C1A481C4B1E4A1D49DA
:103E0000001BC0080924000440F00100009401F0E8
:103E1000B9F82046DDE71348134C144B174ABBE7AB
:103E2000114C1048114B164A1249001BC0080E24B1
:103E3000000440F00100009401F0A4F82046C8E717
:103E4000094C0848094B0F4A0A49001BC0080824BE
:103E5000000440F00100009401F094F82046B8E717
:103E60000C02002010E90000D0E70000C0B90000FB
:103E70004CB9000000B8000048B8000024B90000A8
:103E8000F8B7000034B80000FEF7D2BA2DE9F041CF
:103E9000058B0331043D4E198046B6FBF5F6FEF75F
:103EA000E3FAA0B3F6B24FF48073013E0446C58036
:103EB000C0F8008083802BD00346002508E062799B
:103EC000AE4202F1010262713860C0F800801FD07A
:103ED00040461F46FEF7C8FA013503460028EED1DA
:103EE0006779791E17D02246013399421268FBD1B7
:103EF000D2F800805FB12668002501E034463668BC
:103F0000214601354046FEF7D5FAAF42F6D80024E7
:103F10002046BDE8F08120682146FEF7CBFAF6E79F
:103F200004300121FEF7E6B92DE9F04101210446F4
:103F30000430FEF7EDF910F0FF0301D0BDE8F08189
:103F40006779791E16D02246013399421268FBD157
:103F5000D2F80080002FF1D02668002501E0344619
:103F60003668214601354046FEF7A4FAAF42F6D83E
:103F7000BDE8F08120682146BDE8F041FEF79ABA1D
:103F80002DE9F8430546C6884079144606FB00F241
:103F9000043A04EB030C1F1D624538BFD41ABE421D
:103FA0008846B7FBF6F106FB117002D801392D687F
:103FB000FCD1371AA74228BF27469CB14FF0000911
:103FC0000430E41B28443A4608EB090106F09EFA47
:103FD000A642B9442D6837464FF0000028BF274657
:103FE000002CEDD1BDE8F8832DE9F8430546C688DD
:103FF0004079144606FB00F2043A04EB030C1F1D43
:10400000624538BFD41ABE428846B7FBF6F106FBBC
:10401000117002D801392D68FCD1371AA74228BF88
:1040200027469CB14FF0000904302918E41B3A469A
:1040300008EB090006F06AFAA642B9442D68374633
:104040004FF0000028BF2746002CEDD1BDE8F883D3
:104050008368D3F84831C3F340029B0770D4012929
:104060006AD82DE9F04F384B384C39491B1B8DB0BD
:1040700081469808A1FB00011B2B0B913CD9DFF86E
:10408000E0A093462368E268D3F8088009920020F4
:10409000A768FCF79DFE23681E685A68964246D8BA
:1040A000961B0020FCF79CFE94F810E063696425E1
:1040B00005FB06FC524605FB08F50821B5FBF7F5A4
:1040C00048460A95BCFBF7FCBEF1000F17D1214D05
:1040D000CDF81480CDE906750A9DCDE90375099DDB
:1040E0000095CDE901C6FEF779FD0B9B0BF1010BA5
:1040F0005B4504F11C04C5D80DB0BDE8F08F164A2D
:10410000CDF81480CDE906720A9ACDE90372099AB6
:104110000092CDE901C652460821FEF75FFD0B9BD8
:104120000BF1010B5B4504F11C04ABD8E4E7A36879
:10413000013313449E1BB4E7084A0221FEF74EBD2B
:1041400000221146FFF724B8D0E70000B4E70000D2
:104150002549922460BA00006CBA000074B00000D7
:10416000E4B900000368826818685B68934234BF52
:1041700001330023C01AB0FA80F04009704700BF35
:10418000F8B5044600200E46FCF722FE2368A56819
:1041900018685A68AA4234BF01320022904212D0F5
:1041A00058685A6895420BD800225A60E268531E3C
:1041B000072B19D8DFE803F0433E183918181831D7
:1041C00001325A60F2E7227C002A3FD158685968D0
:1041D0008D4238D85A602268A16813688B4234BF78
:1041E000013300231360E1E76368314600FB0230CE
:1041F00006F08CF92268136851688B4282BFA06870
:1042000001300918CB1A9168994238BF9360002495
:104210000020FCF7E5FD2046F8BD6368D6E900679D
:1042200003EBC000C0E90067E4E76368326843F865
:104230002020DFE76368328823F81020DAE763681C
:1042400032781A54D6E701315960C4E704240020BB
:10425000FCF7C6FD2046F8BD2DE9F041144612B921
:104260002046BDE8F081054600200E46FCF7B0FD73
:104270002A6813685068834209D8C31A9C420CD933
:1042800005240020FCF7ACFD2046BDE8F081A968BC
:1042900001310144CB1A9C42F2D8D2F80080176851
:1042A00053686968EA689F4284BFAB680133DF1BCB
:1042B000BC4202FB08110DD802FB04F2304606F0A6
:1042C00025F9AA682B684444944288BF00241C60E6
:1042D0000024D6E707FB02F84246304606F016F9FE
:1042E000EA686968E71B06EB080002FB07F206F0C4
:1042F0000DF92B6800241F60C3E700BF10B504460A
:104300000020FCF765FD20680C22002106F00CF966
:10431000BDE810400020FCF763BD00BF036898684B
:10432000704700BF036800229A60704782680023CC
:10433000936082681361826853618268D360826887
:10434000536082681360704770B544680646206801
:104350000D4618B908E02468206828B1B3682946DA
:1043600098470028F7D120682860256070BD00BFFD
:104370004368186808B102681A6070474368186893
:10438000704700BF4368186818B908E00346006822
:1043900028B18142FAD10A681A600120704770473B
:1043A000064B8B6004284FF00003CB604B609CBF32
:1043B000034B53F820300B60704700BF48C000002B
:1043C0006CC00000C368DB6800225A71704700BFF0
:1043D000C368DB6801225A71704700BF30B40E4BCE
:1043E0000E4D0F4CED1A00222D09C1E90242C1E920
:1043F00000220BD003EB0515DC682479FF2C02D0DA
:10440000904205D001321033AB42F5D130BC704739
:104410009B680B6030BC7047ACE90000BCE9000051
:1044200080C000000129034604D08168D1F84811FA
:10443000890704D5002218461146FEF7A9BE00B52B
:1044400083B053680193054913680091044A02211F
:10445000FEF7C4FB03B05DF804FB00BFA8B2000088
:10446000E8BA00008368D3F848319B0733D42DE9BC
:10447000F0471B4C1B4E361B360982B028D0DFF8A4
:104480006CA0DFF86C90DFF86C80074604EB061632
:104490000DE05D79A368CDF804C0002D14BF55462A
:1044A0004D4600951034FEF799FBA64210D0E36804
:1044B00093F804C0BCF1FF0F42464FF008013846A4
:1044C000E7D1A368084A1034FEF788FBA642EED174
:1044D00002B0BDE8F08700221146FEF759BE00BFCA
:1044E000ACE90000BCE9000008BB0000F4BA000021
:1044F000FCBA000028BB00002DE9F0411049114D25
:1045000052F8047C491B0909064610D005EB01143A
:1045100002E01035A5420AD0A968384606F00CF82A
:104520000028F6D1EB6801225A71BDE8F0813B46C4
:104530003046054ABDE8F0410221FEF74FBB00BFFF
:10454000BCE90000ACE900004CBB00002DE9F041E3
:104550000F49104D52F8047C491B090906460FD03B
:1045600005EB011402E01035A54209D0A9683846D0
:1045700005F0E2FF0028F6D1EB685871BDE8F08144
:104580003B463046044ABDE8F0410221FEF726BB17
:10459000BCE90000ACE900004CBB000070B40E4A5E
:1045A0000E4C0F4D121B0023D208C1E902534B6081
:1045B0000AD00C4E02E001339A4208D036F823505C
:1045C000A842F8D154F833200A6070BC704700222A
:1045D00070BC0A60704700BF50E90000D0E70000DF
:1045E00048C000006C0100202DE9F04FCB683F4D22
:1045F000DFF824815B79A5EB080585B08B46ED08D3
:104600000746002B6DD03A4A3A4B08213846FEF750
:10461000E5FA394A08213846FEF7E0FA85B3374E05
:10462000DFF8F8A04FEA850900240023F25AA242DD
:104630003CD004339945F9D1D646002336F82320DF
:10464000A24243D001339D42F8D100221146504688
:10465000002336F823C0A44515D001339D42F8D17C
:1046600091424FF0000312D9254A0292CDE900E0B1
:10467000244A013408213846FEF7B0FAA542D4D1C5
:1046800005B0BDE8F08F914258F83330ECD81E4A9F
:104690000292CDE900E01B4A013408213846FEF7BA
:1046A0009DFAAC42C1D105B0BDE8F08FDBF80C201B
:1046B00016491279595802EB4202072393400B40E6
:1046C000D340DBB2124A52F823E0B6E708EBC3034B
:1046D00099790F4B03290A4628BF032253F8220079
:1046E000B6E70C4A0221FEF779FA8CE750E90000A0
:1046F0008CBB000080BB0000ACBB00006C01002044
:1047000004BC0000ECBB000048BB00002C020020F1
:1047100058C000006CBB0000D0E7000064BB000084
:1047200013460A46C168FFF75FBF00BF2DE9F04797
:10473000124D134C52F8049C641B2409074615D0F3
:104740001646884605EB041402E01035A5420DD04C
:10475000A968484605F0F0FE0028F6D133464246E7
:1047600029463846BDE8F047FFF73EBF4B4638467E
:10477000044ABDE8F0470221FEF730BAACE9000078
:10478000BCE900004CBB000002B970472DE9F04FB6
:104790001D46CB687E4993F804B085B0064617469F
:1047A0002868072205F0DAFE00286DD1012F00F0FD
:1047B000E380DFF80482044658F8041B68680A2284
:1047C00005F0CCFE58B10134052CF5D16B68714A67
:1047D0003046022105B0BDE8F04FFEF7FFB9E3B265
:1047E000022F019340F0C5806B4D6C4BA3EB050984
:1047F0005FEAD90945D00BEB4B0B072304FA0BF406
:1048000003FA0BFBCDF808B0654FDFF8A081DFF8A5
:10481000ACA1DDF804B005EBC90909E02B68083547
:10482000FEF7DCF9A94507F1040708F1040828D0D0
:10483000AB795B4552464FF002013046EED33A6801
:10484000029982EA04030B405340C3F3C202C3F34C
:1048500082118A4238BF0A4603F007018A4238BFF4
:104860000A46C3F342218A4205F1080538BF0A46C9
:10487000A9453B60A8F8022007F1040708F10408E5
:10488000D6D105B0BDE8F08F46492868082205F06A
:1048900065FE0446002877D1012F0190A4D04FF087
:1048A000010ABA45EDD22B1FDFF8EC803B49DFF857
:1048B0000C910BEB4B0B0AF1804A03EB87070723A4
:1048C00004FA0BF20AF1FF3AA1EB080103FA0BF329
:1048D00005EB8A0A03920293CC085AF8045F0CB3E2
:1048E0004FF0000B03E00BF1010B5C4518D02022C8
:1048F00058F83B00294605F031FE08EBCB020028B2
:10490000F1D19179019B994213D2136802214A4651
:104910003046FEF763F95745DFD105B0BDE8F08FAB
:10492000DAF80050204A2B4602213046FEF756F9AD
:10493000F1E71B4B039A53F82B10029D1B484A408A
:104940002A404A40C2F3C201C2F3821C614538BF0B
:10495000614602F0070C614538BF6146C2F3422C44
:1049600000EB8B00614538BF614643F82B20418046
:10497000D1E74FF0020A94E70D4A3046022105B014
:10498000BDE8F04FFEF72AB92B680A4A20E700BFBE
:1049900008BC000080BC0000D0E7000050E9000027
:1049A0002C02002028BC00006CBC00006C01002020
:1049B00010BC000030BC000058C0000048BC000023
:1049C00013460A46C168FFF7DFBE00BF2DE9F04776
:1049D000124D134C52F8049C641B2409074615D051
:1049E0001646884605EB041402E01035A5420DD0AA
:1049F000A968484605F0A0FD0028F6D13346424696
:104A000029463846BDE8F047FFF7BEBE4B4638465C
:104A1000044ABDE8F0470221FEF7E0B8ACE9000027
:104A2000BCE900004CBB00002DE9F84F254B26489F
:104A3000FF220024002501219A60C3E900450022DD
:104A4000C3F8182483F82014C3F81424FFF71CFAC1
:104A5000824610B15046BDE8F88FDFF880801B4ECB
:104A60001B48A6EB0806FFF761FCF608F2D0DFF85A
:104A700068B0554600273C4608EBC509A5424FF0F3
:104A8000140208D058F83410D9F8000005F066FD7B
:104A90000028C8BF01370134A642EFD12BF825709A
:104AA0000135AE42E6D10B4B0B4A03EB86060021E3
:104AB00043F8041BB342518002F10402F8D150467E
:104AC000BDE8F88F2805002050E9000050E90000FB
:104AD0003CC000002C0200206C010020D0E7000048
:104AE00099B10E4B0E495B1ADB0815D030B4002289
:104AF0000C4D02E0013293420BD035F82240844243
:104B0000F8D151F8320030BC7047054951F83000F7
:104B10007047002030BC70471846704750E90000CD
:104B2000D0E700006C010020094B013903EBC00005
:104B300003290BD8DFE801F00402080604207047BF
:104B40000220704740797047007970470020704715
:104B5000D0E700002DE9F04FC54CD4E900239A427C
:104B600089B05ED00023C4F81834BFF34F8FD4E966
:104B7000015605EA0602D31C04EB830114F8233026
:104B8000580719D527680B7803F00303012B3ED093
:104B9000022B03D14B88023505EB931506EA05027B
:104BA000D4F81804D31C04EB830128B9AF4234D9DC
:104BB00014F823305B07E6D404EB82026B1CD26846
:104BC0000292334004EB830302F00302DB68039399
:104BD000022A05F1020828D0012A00F07581D4F8D4
:104BE00010543DB12B6828469B689847EB681D68B8
:104BF000002DF7D19F4B5B88012B00F29380D4E905
:104C00000030C01A18BF012009B0BDE8F08F0B8832
:104C10000235C3F383131D44C0E7676009B0BDE8E4
:104C2000F08F002009B0BDE8F08FBDF80A3092483F
:104C30009DF80870C3F3891A5546502D28BF50259A
:104C400065F38F1305F10801ADF80A30FFF71EF97F
:104C5000C7F3C20781460028C1D0FFF761F90822D7
:104C600000230DEB02014846FFF78AF926EA080304
:104C70000133B5EB830F4FEA830B40F26681BBF142
:104C8000000F00F0718106EA08010331A5EB0B0566
:104C900004EB810108235A464846EDB2FFF770F94C
:104CA00076492A460BF108034846FFF769F90AF1ED
:104CB000030A08EB9A08D4F81834002B40F050810E
:104CC000D4F81054FDB1DFF8C8A10726EB685A7973
:104CD000B2B11A79BDF80C0002EB42015AF820007B
:104CE00006FA01F2052F02EA000208BF0327CA40B4
:104CF000974205D82B6849461B6828469847EB68B9
:104D00001D68002DE2D14846FFF70EF90020FCF7A0
:104D10005FF8D4F818340BB9C4F804800020FCF70D
:104D20005FF86CE7564B574FD4F80890FF1AFB0812
:104D300000200193FCF74CF8D4E90132D4F800A02C
:104D400013440133A3EB0A03012B00F214814E4DEF
:104D5000A5F10408A5F1080601212846FDF7CAFAC5
:104D60004046FDF7E3FA3046FDF7E0FAD4E90137B3
:104D700003EA0702D01C04EB800114F8200000F0C5
:104D8000040E40070FD5087800F00300012800F05A
:104D90008E80022803F1020B7CD0D11C04EB810130
:104DA000BEF1000FEFD104EB8202591CD2680592CC
:104DB000394004EB810102F00302012ACF6803F1BC
:104DC000020B7AD0022A49D1BDF81630C3F38913F9
:104DD00003333F0C0BEB930B3046FDF7B7FA394624
:104DE000002842D02846C4F804B0FDF783FAD4E97D
:104DF00001322168134401335B1A012BACD90A40FC
:104E0000033205230231002044F822302160FBF7F1
:104E1000E7FF1D480021FDF751FA80F310001B4BFE
:104E2000BDF804700AF1010202EA090209EA0A095E
:104E300004EB820209F103099B0243F0110347EAE4
:104E40000047D76044F8293094F82034002B3FF411
:104E5000D6AEFFF77FFE0028FBD1D0E63046FDF747
:104E600075FA002739460028BCD12846BDE700BFA7
:104E700028050020C401002050E90000340500206E
:104E8000D0E7000080E8000044090020A0BC00003A
:104E90002C0200204B880BEB931307EA0302D01C73
:104EA00004EB800114F8200000F0040E78E70A8873
:104EB0000233C2F383121344EFE7BDF81430C3F397
:104EC00083133F0C9B4487E7BDF808702B48C7F35A
:104ED0008313062B28BF0623991C63F389178900C7
:104EE000ADF80870FEF7D2FFC7F3C207814600286D
:104EF0003FF475AEFFF714F8082200230DEB020112
:104F00004846FFF73DF8BDF8083013F4707F3FF4D2
:104F1000D2AE6FF0010AAAEB050A082541463140DE
:104F200003312B46042204EB81014846FFF728F8A1
:104F3000BDF8083008F101080AEB0802C3F3831337
:104F4000934205F10405E9D8B5E606EA0801033104
:104F500004EB81012A4608234846FFF711F8A6E62C
:104F60004846FEF7E1FF4AE605492A460823484637
:104F7000FFF706F89BE6514641E700BF50E9000005
:104F8000340500202DE9F04F6C4C89B00746002015
:104F9000CDE901120393A568FBF71AFFD4E90123B9
:104FA00026681A440132921B042A00F2858004F21A
:104FB0001C4804F5836A04F214491BE0BDF816305E
:104FC000C3F389130333090C0BEB930B4846009191
:104FD000FDF7BCF9009900283ED04046C4F804B063
:104FE000FDF788F9D4E90113226819440131891ABF
:104FF000042962D801214046FDF77CF95046FDF7AF
:1050000095F94846FDF792F9D4E9013C03EA0C0210
:10501000D11C04EB810014F821E01EF0040F0EF007
:10502000040129D104EB8202591CD268059201EADD
:105030000C0104EB810102F00302012AC96803F1AB
:10504000020B32D0022AB9D0002148460091FDF768
:105050007DF900990028C0D14046C1E743880BEB99
:1050600093130CEA0302D11C04EB810014F8211005
:1050700001F004010029D5D090F800E00EF0030EF5
:10508000BEF1010F0BD0BEF1020F03F1020B02F1D2
:10509000030EE3D004EB8E000029EDD1C2E70288B5
:1050A0000233C2F383121344DBE7BDF81430C3F3B9
:1050B0008313090C9B4489E73246134003330532BE
:1050C000C521002044F823102260FBF789FEB01CA4
:1050D0002840F21C331D2B402A4004EB800004EBD7
:1050E000820204EB830C029BC360039BD36000210C
:1050F000129B1348CCF80C30FDF7E0F880F3100059
:10510000F900731C2B40019A01F03801354004EB83
:10511000830341F0C1010004033540EA174741EA27
:105120008221DF6044F8251094F820341BB1FFF78A
:1051300011FD0028FBD109B0BDE8F08F2805002043
:10514000440900202DE9F04F724C89B00746002039
:10515000CDE901120393A568FBF73AFED4E90123D8
:1051600026681A440132921B052A00F2858004F257
:105170001C4804F5836A04F214491BE0BDF816309C
:10518000C3F389130333090C0BEB930B48460091CF
:10519000FDF7DCF8009900283ED04046C4F804B082
:1051A000FDF7A8F8D4E90113226819440131891ADE
:1051B000052962D801214046FDF79CF85046FDF7CD
:1051C000B5F84846FDF7B2F8D4E9013C03EA0C0211
:1051D000D11C04EB810014F821E01EF0040F0EF046
:1051E000040129D104EB8202591CD268059201EA1C
:1051F0000C0104EB810102F00302012AC96803F1EA
:10520000020B32D0022AB9D0002148460091FDF7A6
:105210009DF800990028C0D14046C1E743880BEBB8
:1052200093130CEA0302D11C04EB810014F8211043
:1052300001F004010029D5D090F800E00EF0030E33
:10524000BEF1010F0BD0BEF1020F03F1020B02F110
:10525000030EE3D004EB8E000029EDD1C2E70288F3
:105260000233C2F383121344DBE7BDF81430C3F3F7
:105270008313090C9B4489E73246134003330632FB
:1052800040F20511002044F823102260FBF7A8FD2E
:10529000B11C06F1030C29400CEA050C321D731DEC
:1052A0002B402A4004EB810104EB8C0C0298C8606F
:1052B00004EB820204EB830E039BCCF80C30129BB0
:1052C000D3600021139B1448CEF80C30FCF7F6FF96
:1052D00080F31000F90001F03801731C2B40019A93
:1052E00041F48071354004EB830341F00101000477
:1052F000033540EA174741EA8221DF6044F8251070
:1053000094F820341BB1FFF725FC0028FBD109B02D
:10531000BDE8F08F28050020440900202DE9F04F5A
:10532000654C89B007460020CDE90212A568FBF75D
:105330004FFDD4E9012326681A440132921B022A48
:1053400000F2858004F21C4804F5836A04F21449D3
:105350001BE0BDF81630C3F389130333090C0BEBC4
:10536000930B48460191FCF7F1FF019900283ED0CC
:105370004046C4F804B0FCF7BDFFD4E9011322682D
:1053800019440131891A022962D801214046FCF7EB
:10539000B1FF5046FCF7CAFF4846FCF7C7FFD4E907
:1053A000013C03EA0C02D11C04EB810014F821E05B
:1053B0001EF0040F0EF0040129D104EB8202591CE7
:1053C000D268059201EA0C0104EB810102F00302AC
:1053D000012AC96803F1020B32D0022AB9D0002198
:1053E00048460191FCF7B2FF01990028C0D1404620
:1053F000C1E743880BEB93130CEA0302D11C04EBC7
:10540000810014F8211001F004010029D5D090F892
:1054100000E00EF0030EBEF1010F0BD0BEF1020F43
:1054200003F1020B02F1030EE3D004EB8E0000291E
:10543000EDD1C2E702880233C2F383121344DBE7E3
:10544000BDF81430C3F38313090C9B4489E732463B
:105450001340033303324521002044F82310226017
:10546000FBF7BEFCB31C2B4004EB8303039A1348E9
:10547000DA600021FCF722FF80F31000F900731CB2
:105480002B40029A01F03801354004EB830341F0D0
:1054900041010004033540EA174741EA8221DF60F9
:1054A00044F8251094F820341BB1FFF753FB002873
:1054B000FBD109B0BDE8F08F280500204409002089
:1054C0002DE9F04F624C87B006460020A568019197
:1054D000FBF77EFCD4E9012327681A440132D21B72
:1054E000012A00F2858004F21C4804F5836A04F264
:1054F00014491BE0BDF80E30C3F389130333090CC4
:105500000BEB930B48460091FCF720FF0099002815
:105510003ED04046C4F804B0FCF7ECFED4E90113D9
:10552000226819440131891A012962D801214046B3
:10553000FCF7E0FE5046FCF7F9FE4846FCF7F6FEA5
:10554000D4E9013C03EA0C02D11C04EB810014F8FD
:1055500021E01EF0040F0EF0040129D104EB8202B9
:10556000591CD268039201EA0C0104EB810102F09C
:105570000302012AC96803F1020B32D0022AB9D012
:10558000002148460091FCF7E1FE00990028C0D1B7
:105590004046C1E743880BEB93130CEA0302D11C8E
:1055A00004EB810014F8211001F004010029D5D08A
:1055B00090F800E00EF0030EBEF1010F0BD0BEF12B
:1055C000020F03F1020B02F1030EE3D004EB8E0095
:1055D0000029EDD1C2E702880233C2F383121344DB
:1055E000DBE7BDF80C30C3F38313090C9B4489E758
:1055F0003A461340033302320521002044F82310B9
:105600002260FBF7EDFB00211248FCF757FE80F308
:105610001000F1007B1C2B40019A01F038013D4045
:1056200004EB830341F001010004033540EA164610
:1056300041EA8221DE6044F8251094F820341BB141
:10564000FFF788FA0028FBD107B0BDE8F08F00BF54
:1056500028050020440900202DE9F043304ED6F8FB
:1056600010440546002074B1234601E01B6853B185
:10567000DB681A798242F9D101300A28F3D14FF060
:10568000FF30BDE8F083EB681871D6F81034002BBA
:1056900041D0DA68EB6812681A60D6F81034DB681B
:1056A0001D60204F204BFF1AFF08EAD01F4CDFF887
:1056B000808003F1070C00224FF0070EEE681CF803
:1056C000323096F8049026688B4209EB490928BFCE
:1056D0000B4603FA09F373400EFA09F903EA0903CA
:1056E0007340C3F3C206C3F382194E4538BF4E461A
:1056F00003F007094E4538BF4E46C3F342294E45D5
:1057000038BF4E4628F822600132BA4244F8043BC2
:10571000D4D1BDE8F083C6F81054EA681360C0E73E
:105720002805002050E90000D0E700002C020020EE
:105730006E01002038B5094BD3F81044012583F8D9
:1057400020544CB1E3685D71236820465B6898473C
:10575000E3681C68002CF5D138BD00BF2805002087
:105760002DE9F04FCF4BD049D04C8FB0C91A8908E2
:10577000002609930A9105AA03AB43F2274141F29F
:105780006E00CDE90566CDE9036607960894FCF73F
:10579000A1FB0746002800F0C18048F20963984247
:1057A00004D0032528460FB0BDE8F08F05A808A94E
:1057B000FCF728FABE4B5B88022B0546F2D9BD4A9E
:1057C000BD4BBE4C9B1ADB0800933046A368019387
:1057D000FBF7FEFAD4E90132D4F800A013440133F8
:1057E000A3EB0A03022B00F2AD8104F21C4704F57F
:1057F000836804F2144601213846FCF77BFD4046DD
:10580000FCF794FD3046FCF791FDD4E9013C03EA36
:105810000C02D01C04EB800114F8200000F0040EF0
:10582000400710D5087800F00300012800F02C8113
:10583000022803F1020900F01A81D11C04EB810156
:10584000BEF1000FEED104EB8202591CD2680B921C
:1058500001EA0C0104EB810102F00302012AC9688C
:1058600003F1020B00F03081022A40F0EE80BDF817
:105870002E30C3F3891303334FEA11490BEB930B1B
:105880003046FCF763FD4946002800F0E7803846C3
:10589000C4F804B0FCF72EFDD4E9013221681344AA
:1058A00001335B1A022BA6D90A400332452344F880
:1058B0002230033100202160FBF792FA019E8048DC
:1058C0000AF10203334004EB83030021DD60FCF79F
:1058D000F5FC80F310007B4BBDF800100AF10102CB
:1058E000324006EA0A0904EB820209F103099B022D
:1058F00043F0590341EA0040D06044F8293094F85D
:105900002034002B3FF44EAFFFF724F900283FF47A
:1059100049AFFFF71FF90028F6D143E705A808A90A
:10592000FCF722FA624B5B88022B05467FF63AAF02
:10593000604A614B614C9B1ADB0800933846A368B0
:105940000193FBF745FAD4E90132D4F800A01344DF
:105950000133A3EB0A03022B00F2BE8004F21C47C2
:1059600004F5836804F214461CE0BDF82E30C3F33E
:10597000891303334FEA11490BEB930B3046FCF7C5
:10598000E5FC494600283ED03846C4F804B0FCF790
:10599000B1FCD4E901322168134401335B1A022BB4
:1059A00000F29B8001213846FCF7A4FC4046FCF73E
:1059B000BDFC3046FCF7BAFCD4E9013C03EA0C021A
:1059C000D11C04EB810E14F8210000F00401400703
:1059D0002AD404EB8202591CD2680B9201EA0C0112
:1059E00004EB810102F00302012AC96803F1020BF2
:1059F00050D0022AB9D03046FCF7A8FC4FF000097D
:105A000049460028C0D13846C1E7BEF8023009EB4C
:105A100093130CEA0302D11C04EB810E14F821103D
:105A200001F004010029D4D09EF8000000F003002A
:105A3000012815D0022803F1020902F10300E4D085
:105A400004EB800E0029EFD1C3E73046FCF77EFC63
:105A50004FF00009494600287FF419AF384619E78E
:105A6000BEF800200233C2F383121344D1E74B88FF
:105A700009EB93130CEA0302D01C04EB800114F829
:105A800020E00EF0040EDBE60A880233C2F3831234
:105A90001344EFE7BDF82C30C3F383134FEA1149E9
:105AA0009B446BE72C020020EC0200206E10273490
:105AB000C4010020D0E7000080E800002805002095
:105AC00044090020E8BC0000BDF82C30C3F3831368
:105AD0004FEA11499B44D3E651460A40033245231D
