:1000000000000120750300005D030000251C0000B6
:1000100061030000630300006503000000000000AE
:100020000000000000000000000000006703000066
:1000300069030000000000006B0300006D03000076
:10004000514E00006F030000E94E0000B94E000061
:10005000C54E00006F030000354A0000C951000082
:10006000B5530000C9530000DD530000915100005A
:100070006F030000B55000006F0300006F03000025
:10008000395D000009120000F54F0000DD4E000050
:1000900041530000475300004D53000053530000EC
:1000A000595300005F530000F15300000554000055
:1000B000C54F0000D54C000000000000000000000B
:1000C0006F030000D54F0000E54F0000D14E000047
:1000D000A1510000AD4B00006F03000000000000C4
:1000E0000000000000000000000000000000000010
:1000F0000000000000000000000000000000000000
:1001000000000000000000000000000000000000EF
:1001100000000000000000000000000000000000DF
:1001200000000000000000000000000000000000CF
:1001300000000000000000000000000000000000BF
:1001400000000000000000000000000000000000AF
:10015000000000000000000000000000000000009F
:10016000000000000000000000000000000000008F
:10017000000000000000000000000000000000007F
:10018000000000000000000000000000000000006F
:10019000000000000000000000000000000000005F
:1001A000000000000000000000000000000000004F
:1001B000000000000000000000000000000000003F
:1001C000000000000000000000000000000000002F
:1001D000000000000000000000000000000000001F
:1001E000000000000000000000000000000000000F
:1001F00000000000000000000000000000000000FF
:10020000354936480A1A02D0072291438D463449AF
:1002100034480A1A06D00722914381F30988022242
:1002200082F3148830483149314A00F044F83148AB
:100230003149324A00F03FF831483249324A00F041
:100240003AF832483249334A00F035F832483349F7
:10025000334A00F030F833483349344A00F02BF881
:1002600033483449344A00F026F8344834490022EF
:1002700000F02CF833483449002200F027F83348C6
:100280003349091A082902DB002202604160314A21
:1002900090471F481F49884205D00268043003B4C4
:1002A000904703BCF7E700208646EC46002000217B
:1002B000294A9047FEE7884207D0521A05D00378B2
:1002C00001300B700131013AF9D17047884202D0F8
:1002D00002700130FAE770470000012000E00020C2
:1002E0000000012000000120E0840000B001002097
:1002F000B4020020D0030000D00300009E64000080
:10030000E0840000B0010020B0010020506800002F
:1003100050680000506800005068000050680000FD
:10032000506800005068000050680000DE84000043
:10033000E4850000B4020020B4020020B4020020D2
:10034000180C0020180C0020180C0020180C00209D
:10035000182C00209D030000495E0000FEE7FEE728
:10036000FEE7FEE7FEE7FEE7FEE7FEE7FEE7FEE765
:1003700000F002B8FFF7FCBF0F484FF007018843B9
:1003800085460E4880470E48016841F470010160BF
:10039000BFF34F8FBFF36F8FFFF732BF09480A4992
:1003A0000A4A884207D0521A05D0037801300B70F0
:1003B0000131013AF9D1704700000120095F0000C6
:1003C00088ED00E0A066000000000020B0010020E1
:1003D000022000F015BA00002DE9F04780460D46D6
:1003E00000F020FA0328044610D8012D10D0022D69
:1003F00030D05DB91A4800F0D3FC1A4B04EB44022C
:1004000013449D78184B1B5DAB4219D0BDE8F087B3
:10041000144E00EB4003F218F55C5378470053B1DB
:10042000DFF84C900E484A464FF4804100F09FFCA4
:1004300008B989F8008027443E440B4BB2781A551E
:10044000002DE3D0094B1B68002BDFD02846BDE808
:10045000F047184700EB4004024804446578EFE792
:10046000D8010020B6020020D1020020CC020020DA
:10047000B402002000780221FFF7AEBF08B5094B97
:100480001B7853B1002000F091F9012000F08EF9A3
:10049000BDE80840032000F089B9BDE8084000F03D
:1004A00091B900BFB5020020F8B57A4C2378054613
:1004B0001BB100232370FFF7E1FF172D00F28780A7
:1004C000DFE805F00C1717425364757F878C878C23
:1004D000949999999999C3C8D0D8E3E3FFF7CEFFCF
:1004E0006D4800F05DFC6D4B002204461A702046FA
:1004F000F8BD002000F040F9F0B1002000F056F9FE
:10050000022D0CBF4FF4E1644FF47A64634B1D700D
:1005100000254FF400464FF47A7029464FF4FA62F2
:100520000023E4FB060105F01DFE2A460146BDE856
:10053000F840594800F01BBC00F02CF9022D0CBF0C
:10054000C8244FF4C874E1E7002000F015F940B169
:10055000002000F02BF94FF44874504B03221A701E
:10056000D6E700F017F9C824F7E7002000F004F9F7
:1005700038B1002000F01AF94FF47A64474B042296
:10058000EDE700F007F94FF4C874F7E7002000F03A
:10059000F3F848B1002000F009F9404B05221A7029
:1005A00040F6CD410022C2E700F0F4F8F5E7002064
:1005B00000F026F9394B06221A70002240F26661DB
:1005C000B5E7002000F0E6F8344B07221A7000244B
:1005D0008DE70120207000F013F9EEE70120207074
:1005E00000F00EF900224FF40051A0E700F0F9F8F6
:1005F0002A4B0C22EAE72A482A4E00F0D1FBD5F11B
:10060000110504461CD0D8B9012D13D0C82045438C
:1006100021464FF400474FF47A704FF4FA620023FA
:10062000C5FB070105F09EFD224601461C4800F06F
:100630009EFB0446022000F0ADF80123337056E71C
:10064000022000F0B3F80023F8E7FFF717FF134B81
:100650001222BBE7FFF712FF002000F09BF80F4BC0
:100660001322B3E7FFF70AFF012000F093F80B4BCA
:100670001422ABE7FFF702FF002000F08BF8012007
:1006800000F088F8054B1522A0E700F0AAF8034B0C
:100690001D709CE7C802002000020020D00200204C
:1006A000B0010020B5020020044B1B68DB0703D516
:1006B000034B1878FFF7F8BE704700BFC402002054
:1006C000D0020020044B1B6813F0010301D0FFF798
:1006D000EBBE1846704700BFC402002038B51C4B63
:1006E00018601C4B10F00204054619601AD01A4B12
:1006F0001A480E221A700F22DA7010229A711122F3
:100700005A72042140F2333200F0B8F9044648B975
:1007100000F00CFA044628B90146114A114800F0CD
:100720001BFB0446EB0711D5012000F08DF86CB9D6
:1007300021460D4A0D4800F00FFB044630B9BDE8D4
:1007400038400B4A0B48012100F006BB204638BD5B
:10075000C4020020CC020020B6020020A0680000E5
:1007600075040000C4680000A9060000C868000005
:10077000D1030000C0680000054A4FF0A043105CA0
:10078000D3F8043523FA00F0C04300F001007047AD
:10079000CC680000044B1A5C012393404FF0A04248
:1007A000C2F80C35704700BFCC680000044B1A5CDF
:1007B000012393404FF0A042C2F80835704700BFB4
:1007C000CC68000008B50020FFF7F0FF0120FFF71C
:1007D000EDFF0220FFF7EAFFBDE808400320FFF726
:1007E000E5BF08B50020FFF7D5FF0120FFF7D2FFD6
:1007F0000220FFF7CFFFBDE808400320FFF7CABF84
:10080000074A4FF0A041105CD1F804350122824024
:1008100022EA03001340C1F80805C1F80C357047FF
:10082000CC6800000D2809D00E2809D00F2809D067
:1008300010280CBF03204FF0FF3070470020704796
:100840000120704702207047C20708B501460CD549
:100850004FF0A0430322C3F84427C3F84827C3F846
:100860004C27C3F85027FFF7ADFF8B070AD54FF091
:10087000A0430C22C3F83427C3F83827C3F83C2719
:10088000C3F8402708BD0000C30710B507D4F02304
:10089000054A4008145C23401943115410BD090156
:1008A000C9B20F23F4E700BFE802002030B5094BBE
:1008B0001C78094B196800239C4202DC0022104678
:1008C00030BD11F83350854201EBC302F7D001333C
:1008D000F2E700BFD5020020F802002013B504465D
:1008E0000191FFF7E3FF38B143682BB1019920462E
:1008F00002B0BDE81040184702B010BD034B0448D9
:1009000019680022490800F032BA00BFD80200205E
:100910002802002010B5C0B2FFF7C8FF04460078D7
:1009200004F07EF863785A1E53425341834208D143
:10093000044BD3E90023134303D1BDE81040FFF774
:10094000DDBF10BDE002002038B5334A430804463D
:10095000D35CC2074CBF1B0903F00F030D46042BE9
:1009600059D8DFE803F003222A363900002952D093
:100970000121FFF789FF002000F0FEFA0120A4F119
:100980002003C4F12001254A20FA01F100FA03F303
:100990000B43A040D2E9004120430B43C2E90003CE
:1009A000BDE83840002000F0E9BA002918BF022154
:1009B0002046BDE83840FFF767BF41B10321FFF78C
:1009C00063FF20460121BDE83840FFF787BF0121C2
:1009D000EEE701BB0421EBE709B10321E8E7FFF7EC
:1009E00053FF29462046FFF779FF284600F0C4FA56
:1009F0000120A4F12003C4F12001084A20FA01F1EA
:100A000000FA03F30B43A040D2E9004124EA0000BE
:100A100021EA0303C2E738BDE8020020E00200201B
:100A20002DE9F041124E134F00243378A34208DC25
:100A3000114BD3E90023134318D0BDE8F041FFF771
:100A40005DBF3D6805EBC40815F8340003F0E8FF0E
:100A500098F801305A1E53425341181A41424141FD
:100A600015F83400FFF770FF0134DEE7BDE8F081D0
:100A7000D5020020F8020020E0020020092AF7B584
:100A800005460C4616463ED903F002FFE8B11F4B5F
:100A90001F481D601F4B204F1C70204B002110224F
:100AA0001E6005F072FC1E4B00200021C3E900010E
:100AB000013CE4B20326FF2C0DD11A4A1A4800214A
:100AC00003B0BDE8F04000F047B903F0B1FE0028E4
:100AD000DDD003B0F0BD9DF8063015F834008DF878
:100AE000046005EBC40223F007038DF8063001A96A
:100AF00093788DF805303A4603F0D4FE013CE4B219
:100B00000028D8D0E5E70720E3E700BFF80200207F
:100B1000E8020020D502002015090000D8020020BC
:100B2000E0020020210A00001869000070B5084D9D
:100B3000084E00242B789C4201D3002070BD3368FE
:100B4000012113F8340003F025FF0134F2E700BF60
:100B5000D5020020F80200201FB50021039001AA51
:100B600044F20100CDE9011100F004F805B05DF890
:100B700004FB000010B572B603F0E4F902F0F4FFD4
:100B80000028FBD1164C63884BB11648164B174909
:100B9000C01AC008000440F0010003F06BF9144BC8
:100BA000D3F8F030DB0700D500BE6388012B09D9EC
:100BB0000C480D4B0F49C01AC008000440F0020059
:100BC00003F058F9BFF34F8F09490B4BCA6802F481
:100BD000E0621343CB60BFF34F8F00BFFDE700BF60
:100BE0006C0000206C650000BC6400001C69000003
:100BF00000ED00E0286900000400FA0510B5D0E916
:100C00000243D1E90202A04272EB03032CBF012090
:100C1000002010BD08B50A4800F0E1FA094AD2E9FF
:100C20000031C018084BD3E9002341F10001904284
:100C300071EB030303D210F1807041F1000108BD94
:100C400064020020000300206803002037B5054639
:100C50000C460A4801A901F0B6F860B1057044607D
:100C600001A9064801F0D9F818B1054800F0BCFA0E
:100C7000002003B030BD0420FBE700BF500200207D
:100C80006402002038B5194B1B78044613B90025BF
:100C9000284638BD0028FAD090F8203003F0FF0530
:100CA000002BF4D0FFF7B6FFD4E90223904271EB9A
:100CB000030316D323690BB984F82030D4E9053037
:100CC000984721690029E2D094F8203003F0FF050D
:100CD000002BDCD0D4E902325B1842F10002C4E9F7
:100CE00002320348214602F01FFBD1E7080300202F
:100CF0005869000013B5114B114918680190082379
:100D00001048582201F04CF8044698B90E4A0F4892
:100D100001A900F043F9044660B90C48012100F034
:100D200041FA01230A4A0948194600F0A3F9094B80
:100D300001221A70204602B010BD00BF52690000A7
:100D40000C03002050020020BD0D000064020020B2
:100D5000FFFF7F00080300203AB103685A614A1E72
:100D6000514251411961002070470720704738B542
:100D700090F8203004460D4683B98261FFF74AFFA0
:100D80002369281841F10001C4E9020103B125617A
:100D900021460020BDE83840FFF758BF002038BD8D
:100DA0000023014680F820300120FFF74FBF0000EC
:100DB000014800F014BA00BF640200202DE9F34797
:100DC000064600F0F7F940B15A4AD2E9003113F172
:100DD000807341F10001C2E900310021304600F08A
:100DE000F8F938B1544C236823B12068FFF74AFF63
:100DF000002323600121304600F0EBF920B1FFF71A
:100E000009FF4E4BC3E900014D484B4D4D4C4E4F31
:100E100001A901F012F8002843D1DFF82881464CDF
:100E2000DFF82C91404602F095FA2368002875D02F
:100E300083B12368D0E90252D3E902138D4272EBE9
:100E400003032BD2236893F820301BB1216840465E
:100E500002F06AFA404602F077FAD0E9027A0546D3
:100E6000FFF7D8FE381A6AEB010A01287AF100036D
:100E700047DBB0F5350F42D3FFF79AFF334A024400
:100E80004FF496030021484600F014F9002840D1A1
:100E9000236813B9304600F0E5F8256002B0BDE8DC
:100EA000F0870378012B1FD0022B09D14FF00008E7
:100EB000204602F049FA002838D080F82080F7E771
:100EC0004BB9416891F820302BB9012381F82030CB
:100ED000204602F029FA01A9194800F0D9FF01A91A
:100EE000174800F0AAFF96E741682B68994202D1A3
:100EF00000232B60EFE7204602F02FFAEBE7AA6809
:100F0000BEE70021484600F05AF92846FFF7BAFE2E
:100F100001E00D28F9D00023236083E7002BBDD129
:100F2000304602B0BDE8F04700F0A0B801233B70A6
:100F3000D1E700BF000300207003002068030020F9
:100F4000500200205869000008030020FFFFB40091
:100F50006402002072B6024A1368013313607047BE
:100F600074030020034A1368013B136003B962B69F
:100F7000704700BF74030020FFF7ECBFFFF7F2BF1C
:100F8000435882B03BB10023435043580193019B27
:100F9000012002B070471846FBE70000F8B5284B67
:100FA0004579284E43F82520274B5F8806EBC5037B
:100FB0004FEAC50C1B796BB1012F09D92348244B8B
:100FC0002449C01AC008000440F0020002F052FF99
:100FD0000820F8BD03680A88C3F8082590F9044082
:100FE0008A780379002CADBF04F160411A4903F0FF
:100FF0000F0E01F561414FEA4212D2B2B4BF01F8BF
:101000000E2081F8002364090122144903F01F0314
:1010100002FA03F341F8243006EB0C03022F46F8E2
:1010200035001A7109D90948094B0D49C01AC00881
:10103000000440F0030002F01DFF0020C9E700BFDC
:101040008003002078030020740000207C650000ED
:10105000BC6400006469000014ED00E000E100E001
:1010600086690000036801221A6070470368012244
:101070005A60704773B501F15005AD000068ADB21C
:101080004FF480348C400026C0F80843C0F8484331
:10109000465101F5A8714559019522F07F42019D05
:1010A00040F82120C0F844430BB1C0F8044302B01B
:1010B00070BD00002DE9F74F0D4622F07F44026815
:1010C0004FF4803705F150068F408046B60002EBA2
:1010D0008500C2F84873B6B2C2F80873D2F8041596
:1010E00099464FF0000BD0F84035C0F8401542F853
:1010F00006B05B1A9259009223F07F43012B009AAD
:101100004FEA850A0CD1264B4FF4806043F001036F
:101110009847D8F8003043F806B09B590193019BDB
:10112000D8F80010D1F80465C1F84473A31B23F06C
:101130007F43012B1CD11A4B05F5A875013443F0F0
:10114000010341F825404FF480609847D8F80030FB
:10115000D3F804359E4209D1D8F800300020C3F8F6
:101160004473C3F8047303B0BDE8F08F0D20FAE7B1
:101170008A44C9F1FF13CAF84045D1F80405221A80
:10118000013A22F07F4203F57F439342EED3002AD7
:10119000E2D10134CAF84045D1F804359842DAE783
:1011A000A069000003680222C3F8442309B1C3F810
:1011B0000423704700684FF48271FFF7E1BE4FF4DB
:1011C000803303FA01F10368C3F84813C3F8081326
:1011D000704750318900006889B2FFF7D1BE0368BB
:1011E000D3F804057047000090F9043001215A0932
:1011F00003F01F0301FA03F34032024941F82230A1
:10120000704700BF00E100E0024B034A1B68106812
:10121000184700BF800300207803002070B5064DFA
:101220000646002455F8043B0BB13046984701347C
:10123000042CF7D170BD00BF900300204388033316
:1012400000EB830399420BD382884FF6FF739A42D7
:1012500008D0038833B18068431C58425841704716
:101260000220704701207047033080B240F2FE3305
:10127000984230B51FD8134B1A783AB91C895D894A
:101280002C440444A4B2B4F5806F0AD91A7DAAB9DB
:101290009A8BDC8B2244024492B2B2F5806F0DD857
:1012A00001220A801446142202FB04335A89104496
:1012B0005881002030BD48F20860FBE748F2066024
:1012C000F8E700BFC40300200B4A0C4953881420E0
:1012D00000FB0311CB6833B9042049681070012268
:1012E000074801F05FBE07490523137002238B8076
:1012F000012209680023F3E7A8030020C4030020AB
:1013000000000020F003002007B5002305490093EA
:10131000054A09680548082301F080FD03B05DF81F
:1013200004FB00BFF0030020C4690000000000209F
:1013300007B5002301460093034A0448082301F03F
:101340006DFD03B05DF804FBBC69000000000020E7
:1013500013B500230C4600930146084A08480423AD
:1013600001F05CFD38B9074B142101FB0431012366
:101370000B7402B010BD48F20D60FAE7B8690000C6
:1013800000000020C403002037B50A480A4B426819
:101390009C88196853880325033305709BB200208D
:1013A00000909B0001EB8401044801F037FD03B07D
:1013B00030BD00BFA8030020F00300200000002083
:1013C00010B50146044800F0FEFC1C220446002132
:1013D00004F0DBFF204610BD6C02002038B5144B32
:1013E00014220D4602FB00302B68446804F580513E
:1013F000A3B15C88033403EB84048C4215D22368C8
:10140000013312D02046FFF719FF012808D0022827
:101410000BD00028F1D12C60012038BD0834ECE756
:101420006388033304EB8304E7E70020F5E700BF9C
:10143000C4030020426873B504460D466AB3234BCB
:10144000D9688A4229D31B699A4226D812F003032D
:1014500023D11F490089098988421ED120689168DB
:1014600088421AD11B4841688A4203D901F580514C
:101470008A420DD381698A420CD901F580518A4292
:1014800008D201222A80B3FA83F0400902B070BD6D
:101490001A46F7E748F20963F5E700262E80019621
:1014A000288801A9FFF79AFF30B92B8801339BB236
:1014B000012B2B80F3D9E9E7019B226899689142BF
:1014C000EED16360024B1B892381DFE7000000201F
:1014D000A8030020C40300202DE9F8431C461D4B3F
:1014E0001B7806460F46154673B382B37CB3DFF80C
:1014F0006C804FF01409A388012B02D948F20960CF
:1015000020E009FB03F318F803302BB9A08821462B
:10151000FFF764FF20B92060A3880133A380EAE7C6
:1015200023681EB1998832889142EFD11FB1198882
:101530003A889142EAD19A68C5E90023064B1B8993
:101540002B810020BDE8F88348F20160FAE748F2F9
:101550000460F7E7A0030020A8030020C4030020D4
:1015600008B5074B5888191DFFF738FF18B1BDE8BB
:101570000840FFF709BFBDE80840FFF7A5BE00BF60
:10158000A80300202DE9F047A24FDFF8AC8288B015
:1015900006463B6823B9A048414600F04EFC38603F
:1015A0003D6829784B1E052B07D8DFE813F0200093
:1015B0007A007A000C010C01630148F20E641422D7
:1015C000002103A804F0E1FE41F61D539C4208BF30
:1015D00000243B6804941A78023A042A00F200823C
:1015E000DFE812F0E101ED010F0217021E022EB139
:1015F0008A4B00225A604FF40644E0E72B79032B14
:101600001CD8DFE803F014022A35854A1378022B30
:101610001AD0137D022B4FF0010317D114214B4335
:10162000D1180020D0544868FFF782FE03E0012360
:101630002B71FFF769FE002800F0BF80774B002276
:101640005A6048F20D64BAE70023E7E7734A137063
:101650000023536041F61D54B1E7724972480023DC
:1016600002222B718A800968012201F09BFCE2E7CB
:101670006C4C00262E712068FFF75AFE6B4BDFF88A
:10168000A0C15B882568142253430CEB03020CF8BD
:10169000036051685560A588158102222160A280EF
:1016A000C9E7B5F814A0AA7DDFF87491AEB1022A9B
:1016B000EB8806D9142101FB0A91DA1C088902443F
:1016C0000A81142202FB0A99C3F57F43B9F80A2064
:1016D000FD331344A9F80A308DE7142303FB0A9362
:1016E00018895C6804EB8004062A69D8DFE802F0F8
:1016F000274E36441D5A040041F61D54AA7DEB883E
:10170000022A06D9142101FB0A91DA1C0889024435
:101710000A81142202FB0A99C3F57F43B9F80A2013
:10172000FD331344A9F80A3049E7414841490023F1
:101730004360AB690360FFF77DFE00285BD00223A6
:10174000AB75002300930423EA182146364801F0C4
:1017500065FB002831D048F20D64CFE72B69002BE0
:1017600014BF03230123AB750023009305F10C0282
:10177000042304F10801E9E70123AB750022EB889B
:1017800000922A699B0004F10C01DFE703290CBFDA
:1017900005230623AB7500230093042305F10802FB
:1017A000E118D3E70623AB75224B1988204B586804
:1017B000FFF7CEFD04460028A0D108B0BDE8F087B1
:1017C00048F20E649AE7002E7FF415AF2B79012BB7
:1017D00034D0022B3FF43EAF002B7FF4EEAE022359
:1017E0002B710DF10A01EB68039303A8CDE90466A0
:1017F000FFF720FE10B948F20964E0E60498BDF84E
:101800000A108388EB8003882B81FFF7A1FD044633
:1018100029E000BFC00300206C020020A0030020CC
:10182000C4030020F003002000000020A8030020D3
:1018300084030020F8030020B8030020DFF8FC91A7
:1018400003AA4B463146A81DFFF746FE044670B971
:10185000B9F804100498FFF77BFD044648F20963C9
:101860009C423FF4F7AE002C7FF4A9AEA5E7C9E98E
:101870000066F3E7002E7FF4BEAE6B4B1A7BBAB165
:101880001E731A78013A062A3FF697AE01A151F865
:1018900022F000BF3B190000611900007F19000011
:1018A00085190000BB1500008B1900009D19000070
:1018B0001A78072AE5D801A151F822F0DD180000B6
:1018C0008318000083180000031900001719000096
:1018D0003719000037190000FF1800001A89534912
:1018E00001321A8100225A801A730A78B2FA82F2FF
:1018F00052099A720A7DB2FA82F25209DA72012210
:1019000007E04B4958688A884088033202448A803D
:1019100002221A70B5E75C88444A4549142505FB44
:1019200004220868546850608888108102228A80E6
:101930000C600622EDE70722EBE79A7A32B9DA7AF1
:101940008AB900221A705A805A6083E63749002209
:101950009A72CA68002AF2D1097C0029EFD05A8015
:10196000FFF7FEFD53E70022DA72304A116A0029C0
:10197000E7D192F82420002AE3D00122EFE7FFF715
:1019800003FD44E7FFF7A0FC41E75A88274B1421E9
:1019900001FB02335868FFF7CBFC38E700225A609E
:1019A000FFF7B2FC33E701228DF80C201A89ADF85D
:1019B00018209A88DB68ADF81A20059310E00222FF
:1019C0008DF80C201A89ADF818209A88ADF81A20E5
:1019D000DA689B7D05929A1F534253418DF81C3063
:1019E00003A8FFF71BFC0026414612483E6000F0AA
:1019F0004FFA1148012100F096FA00287FF4C9AD92
:101A0000DBE603228DF80C20DA88ADF818201A895D
:101A1000D0E704228DF80C20DB88ADF81830DFE722
:101A200005238DF80C30DBE7A8030020C403002059
:101A3000F00300206C020020EC030020FC030020D7
:101A40004068FFF79FBD000008B50548012100F080
:101A500052FA18B9BDE80840FFF794BD08BD00BFB1
:101A6000EC0300202DE9F3419846374B1B780646DE
:101A70000D46002B5CD000295DD009884FF6FF731E
:101A800099425BD06B88002B58D06B689B0758D16C
:101A90004AB92F890DF102013846FFF7E5FB30B155
:101AA00002B0BDE8F08113885788ADF8023001A874
:101AB000FFF786FC044660B9BDF80220234B1421D1
:101AC00001FB023358890338C01B588148F2076074
:101AD000E6E780F8008000238375BDF8023083823A
:101AE0006B68036101211A4800F011FA2B882381E9
:101AF000B8F1030F6B88A38004BF0423A3754FF0D4
:101B0000000508BF3368E06008BFA3611148E780A3
:101B1000658101A900F081F936B1E36833600E4BAD
:101B200075601B89B5723381FFF78EFF0020B7E720
:101B300048F20160B4E748F20460B1E748F203609C
:101B4000AEE748F20260ABE7A0030020C403002028
:101B5000BC0300206C020020A803002073B50D46D2
:101B60000446C8B1C1B10DF10601FFF763FCB0B185
:101B7000BDF806300B486668142202FB0300012101
:101B80000C3000F0C4F963682E600C336B600123E5
:101B9000A372002002B070BD48F20460FAE748F278
:101BA0000960F7E7C403002013B50446A8B10DF19E
:101BB0000601FFF73FFC98B1BDF806200B4B14213E
:101BC00001FB0233DA6872B1A27A62B1DA680020EE
:101BD000013ADA60A07202B010BD48F20460FAE780
:101BE00048F20960F7E748F20560F4E7C403002013
:101BF00002230022FFF736BF18B103230022FFF7AC
:101C000031BF48F20460704707B5ADF80600ADF883
:101C100004100DF1060001A9FFF75EFC03B05DF8AA
:101C200004FB00001EF0040F1CBFEFF309800AE064
:101C3000EFF308800549064A884201D8904202D84D
:101C40008D464FF00000034B1847000000000120B4
:101C500000E000207D1C0000BFF34F8F0549064BBC
:101C6000CA6802F4E0621343CB60BFF34F8F00BF3A
:101C7000FDE700BF00ED00E00400FA052DE9F74F95
:101C8000054602F05FF901F06FFF0028FBD1374CE9
:101C90003748384B384E9F6A7388241AE408240466
:101CA00044F00104002D59D0D3B1AA69334920462C
:101CB00002F0E4F873889BB1EB680193AB68009382
:101CC0002F49D5E90023204602F0EDF873883BB197
:101CD000EB6900932B49D5E90423204602F0D7F89D
:101CE000244BDB6A990705D573881BB1264920462A
:101CF00002F0C0F8DFF8A0A0DFF8A0B04FF00008B5
:101D00004FF0010909FA08F33B4208D05AF828209D
:101D10002AB173881BB15946204602F0AFF808F18A
:101D20000108B8F11A0FEDD13A0607D573882BB127
:101D3000104B16495A6B204602F0A0F83B0407D519
:101D400073882BB10B4B12499A6B204602F096F820
:101D50002846FFF781FF03B0BDE8F08F002BBFD00E
:101D60000C49204602F086F8BAE700BFEC65000097
:101D7000BC64000000ED00E0AC000020CC69000075
:101D8000E1690000166A0000716A0000C06A000084
:101D9000E06A00003E6A0000BC6F0000B56A000007
:101DA00010B561B1B2FBF3F403FB1424A4B244B93F
:101DB000C0E9001484608281C381204610BD0E20DA
:101DC000FCE70920FAE737B550E8013F9DB2C48926
:101DD00025448489A54228BF2D1B0489A54202BF42
:101DE000BFF32F8F002207E0C5EA030540E8015446
:101DF000002CE9D14FF001028DF803200193019AE4
:101E00000A609DF8031001F0FF0321B1006810FA89
:101E100082F003B030BD1846FBE70A884B889A422F
:101E200009D150E8012FC2EA024240E80123002B09
:101E3000F7D1012070470020704737B550E8023FC6
:101E40001FFAA3F5C488A54202BFBFF32F8F00225B
:101E50000DE0C48925448489A54228BF2D1BC3EA0F
:101E6000054540E80254002CE8D14FF001028DF8FE
:101E700003200193019A0A609DF8031001F0FF030B
:101E800021B1006800EB124003B030BD1846FBE7FB
:101E90000A884B889A4209D150E8022FC2EA2242AE
:101EA00040E80223002BF7D1012070470020704743
:101EB00010B5034653E8000F0A4643E8002494F0A7
:101EC000000FF7D110BD10B5034653E8002F42EACA
:101ED000010043E8000494F0000FF6D110BD10B5E6
:101EE000034653E8000F00EA010243E8002494F09F
:101EF000000FF6D110BD10B5034653E8000F00EBFC
:101F0000010243E8002494F0000FF6D110BD10B593
:101F1000034653E8002F02EB010043E8000494F06D
:101F2000000FF6D110BD10B5034653E8002FA2EB09
:101F3000010043E8000494F0000FF6D110BD012128
:101F4000FFF7C1BF0021FFF7CABF00002DE9F0472E
:101F50008368D3F84831C3F340059B0788B0074630
:101F600006D50022114608B0BDE8F04700F0AEBA31
:101F7000012906D91E4A022108B0BDE8F04700F049
:101F800079BA1C4C1C4EDFF874A04FF06408A946C7
:101F9000361B1C23B6FBF3F6AE4204F11C0402D13F
:101FA00008B0BDE8F08754F81C0C54E90623017909
:101FB00000689A1A1B1ADBB2039308FB03F3B3FB06
:101FC000F2F3CDE9019334F8043C0093CDE9061215
:101FD00054F8083C11FB08F13846B1FBF2F1CDE9A9
:101FE00004215246082100F045FA0135D4E700BF2C
:101FF000667000003C6600005866000079700000C2
:1020000010B590B1D0E9012301689B1ADBB20A60D8
:10201000013BDBB2FF2B026802D10020107110BD22
:1020200011684C1C14600B70F2E70E20F7E738B50E
:1020300004460020FEF7A0FF2268636811689942F9
:1020400013D9481E106011F8013CE568218B01FB93
:102050000355A36811791B1ADBB2994200D21371A0
:102060000020FEF78BFF284638BD0025F8E738B57D
:10207000054600200C46FEF77FFF2A681368591CAE
:102080001160E968641A298BB4FBF1F41C70BDE897
:1020900038400020FEF772BF2DE9F843089E1D4628
:1020A0000C46F1B9194E1A49891BB2EBD10F4FEA10
:1020B000D10905D2174F043607EB8207A14502D19B
:1020C00000232B6009E056F834803868D8F80010F7
:1020D00004F08EF918B9C5F80080BDE8F883013422
:1020E000ECE70028ECD00178436839B1314610465E
:1020F00098473368002BE3D02E60EEE7110103EB25
:1021000002125B58002BDBD02A60E6E7586600001D
:10211000906600009401002008B104F090B9704767
:1021200007B58368DA7E8A421ED01B228DF8002014
:102130005B228DF8012031228DF802203B228DF8A0
:10214000032033228DF8042001F12F028DF80520A1
:102150006D22D9768DF8062000228DF807200449DB
:1021600000696A4600F091FC03B05DF804FB00BF13
:10217000267200000A4609B1FFF7D2BF8168CA760D
:102180000069024A024900F080BC00BFBD75000032
:102190002672000007B583681A7F8A4218D01B2276
:1021A0008DF800205B228DF8012034228DF802206A
:1021B00001F12F028DF803206D2219778DF804208C
:1021C00000228DF80520044900696A4600F05DFC94
:1021D00003B05DF804FB00BF267200002DE9F34157
:1021E00005460F461446002614B902B0BDE8F0813A
:1021F000686803682246D3F80C80B91901ABC04760
:10220000019B1E44E41A002BEED1AB681A78032A16
:10221000EAD0D3F848219206FBD5B3F848216FF3F2
:102220004512A3F84821DFE70A46014900F02DBC1A
:102230008871000011B10069FFF7F6BF7047000018
:10224000014900F022BC00BF057100000A4619B127
:102250000249006900F019BC704700BF8E71000090
:102260000A4619B10249006900F00FBC704700BF6F
:10227000947100002DE9F04F044685B00E4690465B
:102280000025705D04F024F820BB5FFA88FA304620
:10229000FFF742FFA3685B7E401BA3EB080B58458A
:1022A00006EB050918D94A46002712F8011B0393CB
:1022B00008460292019104F00BF8DDE9022318B1FF
:1022C00001990A2931D0BB4608EB07018B422BD973
:1022D0000137EAE70135D4E74B460027B84217D06B
:1022E00013F8012B0A2A05EB070A1BD1206900F01D
:1022F000C1FB49463A462046FFF770FF2069FFF7C9
:102300009FFF5FFA88F120460AF10105FFF792FF6F
:102310002069711900F0B9FB206905B0BDE8F04FE4
:10232000FFF78EBF0137D9E75F46206900F0A2FBB7
:102330003A4649462046FFF751FF3D44705D03F0A1
:10234000C7FF38B92069FFF77BFF51462046FFF7EA
:1023500071FF9CE70135F1E72DE9F34105468068FF
:10236000424F002480222146A0308DF8034004F023
:102370000CF83F49286900F088FB286900F07AFBD7
:102380004FF47A7647F00107686803680122D3F8B2
:1023900010800DF1030101ABC047019B5BB94FF603
:1023A000C010B847019B002BEED1013EB6B2002E03
:1023B000EAD10D2035E09DF80330AA681B2B48D0E8
:1023C00092F8A0101B29EDD1522B42D114440023C6
:1023D00084F8A03092F8A1105B291FD102F1A20667
:1023E00002211D4616F8010B4C1C3B28E1B264B2D9
:1023F0001AD1002C20DB01F1A0041444002314F8AE
:10240000010BD8B9FA2B28BFFA23FA2D13752B46E6
:1024100028BFFA23937582F8A00002E082F8A0306A
:102420000B2002B0BDE8F08105EB850300EB430310
:10243000303B80299DB2D5D10C20F2E703EB83031A
:1024400000EB43004E1C303883B23006F1B2F3D4B7
:10245000D5E711190134E4B2092C81F8A030A1D9D3
:10246000002382F8A0300420DBE700BFE075000005
:10247000CA7500000CB473B506AB044653F8046B80
:1024800001938368D3F848516D0719D5DD7E8D42DD
:1024900016D0B3F81B50FFF76DFE206901AA314634
:1024A00000F072FBE9B22046FFF764FE290A02D071
:1024B0002046FFF76FFE02B0BDE8704002B07047E3
:1024C000206901AA314600F05FFBF4E72DE9F04FE7
:1024D0008BB0836817466C4A009204466B4A5B686F
:1024E0000D460821FFF7C6FFA6687068FFF714FEC7
:1024F000B168033082B211B12046FFF7BBFE644AD7
:1025000000212046FFF7B6FF002F3DD0002D3BD025
:102510004FF00C0AA9460AFB075A0826D9F804000E
:10252000FFF7FAFD8046D9F80000FFF7F5FD4044BB
:10253000B04209F10C0988BF86B2CA45EED106F156
:102540000408544B544A00931FFA88F806F107090F
:102550000821204643461FFA89F9FFF78BFF4F49B0
:102560004A462046FFF786FE2DB1DFF82CB14FF02A
:10257000000ABA450AD1A368D3F80C80B8F1000F5D
:102580003ED10BB0BDE8F08F0826D8E7D5E900238F
:1025900073B32AB30192424A00920821414A20466D
:1025A000FFF768FF6868FFF7B7FD03902868FFF73B
:1025B000B3FD0399B31C591A091AC9B22046FFF793
:1025C00039FE394920693A2200F05FFAA96899B1C9
:1025D0004A462046FFF74EFE0AF1010A0C35C8E7CD
:1025E000009343465A4608212046FFF743FFEDE794
:1025F000002AEBD00092F4E72069FFF721FEEBE719
:1026000000220592174606AE009605AB0121404612
:1026100002F10109FFF740FD059D3DB12868FFF774
:102620007BFDB84200D987B24A46EDE7B9F1010F08
:10263000A7D01E4ADFF860A029462046FFF71AFF00
:102640002A46BD1CADB205AB00960121404602F101
:102650000109FFF721FD059B002B92D01B68009319
:1026600008212B4652462046FFF704FF059B596878
:1026700031B17A1D92B22046FFF7FCFD4A46E2E7EF
:102680002069FFF7DDFDF9E7CF750000207200003B
:1026900029720000E6750000337200003B720000F2
:1026A0004C7700004E720000A071000057720000CD
:1026B00000221146FFF70ABF022910B5044608D1CF
:1026C0008368D3F848319B0703D5BDE81040FFF776
:1026D000EFBF2069054A064900F0D7F92069054A8D
:1026E0000349BDE8104000F0D0B900BFC675000036
:1026F00026720000C1750000012906D0022906D10A
:102700008368D3F848319B0701D5FFF7D1BF024A50
:102710000221FFF7AFBE00BFD571000038B5836856
:10272000D3F84821C2F3400592070C4606D5002293
:102730001146FFF7CBFE2C46204638BD0029FBD0C2
:102740005B68024A0221FFF795FEF5E7657200001B
:10275000012937B50546144604D103B0BDE8304021
:10276000FFF7A6BF023918BF0121FFF7D7FF48B90D
:1027700063680193044B0093044A236802212846AE
:10278000FFF778FE03B030BD897200008072000050
:10279000012907B504D103B05DF804EBFFF788BF4A
:1027A00002290AD153680193084B00931368084A21
:1027B000FFF760FE03B05DF804FB8CBF0121002130
:1027C00003B05DF804EBFFF7A9BF00BF89720000FA
:1027D00080720000013910B518BF01210446FFF7CF
:1027E0009DFF40B9044A0549206900F04EF9A368ED
:1027F00045F218021A8310BDB7750000267200005A
:102800000129F7B50446154633D18568FFF7A4FDC5
:1028100018BBA36820691F7D9E7DFA21FFF704FD88
:1028200020691D49FA2200F030F92046FFF794FD97
:1028300098B9A368197D6976A368C91B9B7D2B761F
:102840002046C9B2FFF70CFD297E891BC9B220467C
:1028500003B0BDE8F040FFF7F9BCA36845F21802E9
:102860001A830E4A0421204603B0BDE8F040FFF76A
:1028700001BE022994BF00210121FFF74FFF48B993
:102880006B680193064B00932B68064A0221204691
:10289000FFF7F0FD03B0F0BD9A7100009E720000DA
:1028A00089720000807200002DE9F041013986B084
:1028B00018BF01210546FFF731FF40BBAB68DFF8C9
:1028C0005480D3F840610446EEB1082C1BD030464A
:1028D0000023092203A900F091FC9DF81420A968A7
:1028E000304609230132A03100F088FCAB68049E19
:1028F000A0330093671C2346424600212846FFF779
:10290000B9FD3C46E0E7AB68002283F8A02006B0A2
:10291000BDE8F081D8720000013910B518BF01215F
:102920000446FFF7FBFE30B9A368B3F8482160F313
:102930008202A3F8482110BD013910B518BF01214A
:102940000446FFF7EBFE30B9A268B2F8483143F015
:102950000403A2F8483110BD013910B518BF012198
:102960000446FFF7DBFE30B9A368B3F8482160F3F3
:10297000C302A3F8482110BD013910B518BF0121C9
:102980000446FFF7CBFE30B9A268B2F8483143F0F5
:102990000803A2F8483110BD022973B50D4694BF53
:1029A0000021012104461646FFF7B8FE014658B93A
:1029B000022D0BD1736801930C4B00930C4A3368C2
:1029C00029462046FFF756FD02B070BDA368094AAC
:1029D000D3F8483113F0080F074B18BF1346074AC6
:1029E000204602B0BDE87040FFF744BD8972000088
:1029F00080720000906B0000E2720000E67200003E
:102A0000013910B518BF01210446FFF787FE48B908
:102A1000A368C3F83801E3685B68BDE81040186834
:102A200000F075BC10BD00007FB5013918BF012151
:102A30000446FFF773FE0546B8B9E3685B681E6895
:102A4000304600F061FCB268A168C3B2CDE9013242
:102A500064204343B3FBF2F3DBB20093D1F8383187
:102A6000034A29462046FFF705FD04B070BD00BFAC
:102A7000F7720000826810B504462AB14369016804
:102A8000006998470023A36010BD0EB403B50399F5
:102A900021B104AB01AA019300F076F802B05DF811
:102AA00004EB03B070470A2938B504460D4602D13D
:102AB0000D21FFF7F8FFA3682268591CA160D554C7
:102AC000D4E901329A4204D32046BDE83840FFF7EA
:102AD000D1BF38BD2DE9F84F9846DDE90A431546C8
:102AE00082460F460A464FF00109AA420FD2C1455D
:102AF00038BFC14613F0010B01D16CB90024012687
:102B0000B8F1010F1BD908F1FF386E43F8E709F15E
:102B10000109B2FBF5F2E8E79B070ED5B8F1000F0B
:102B20000CBF30262026A145E9D2013C3146504653
:102B3000FFF7B9FF002CF6D1E0E72026F3E7B7FB5B
:102B4000F6F39D42E1D9DFF83C80B7FBF6F350463F
:102B500018F8031006FB1377FFF7A5FF3346AB42C7
:102B6000B6FBF5F6F1D2BBF1000F02D00CB1A145D6
:102B700001D3BDE8F88F20215046013CFFF793FFB9
:102B8000F4E700BF737700002DE9F74F05461746BD
:102B90008846002900F03E8118F8011B49B92B7BBB
:102BA000002B00F03781284603B0BDE8F04FFFF757
:102BB00061BF252940F0B780002698F800302D2B02
:102BC000424608F1010823D0302B24D02B2B25D0EE
:102BD00000242A2B02F1010123D13B681A1D1B6836
:102BE0003A601C440A4613782E2B26D101324FF04E
:102BF000000A104610F8011BA1F1300CBCF1090FBE
:102C00001DD80A2303FB0A13A3F1300A0246F0E79A
:102C100046F00106D1E746F00206CEE746F004068C
:102C2000CBE711F8013CA3F130000928DBD80A22D8
:102C300002FB0434303C0A46CBE74FF0000A12F89E
:102C4000011B01F0FB0068289046F8D0782909D8CC
:102C50006F290CD8632962D022D8252963D058293E
:102C600000F0888098F80030002B95D197E77039F4
:102C70000829F7D801A353F821F000BFEF2D000079
:102C8000652C0000652C0000852D0000652C0000DF
:102C9000632D0000652C0000652C0000752D0000E0
:102CA000642901D06929DDD13A68D2F80090111D5C
:102CB00089EAE9723960A2EBE9724FF0010B092A47
:102CC00035DCD34538BFD3462CB1B9F1000F01DB59
:102CD000720700D5013CB30702D5BAF1000F03D04B
:102CE000F00701D44CBB0024B9F1000F2DDAC9F173
:102CF00000092D212846FFF7D6FE06F00302022A1E
:102D000004D1BAF1000F01D11CBB0024CDE900466B
:102D100053460A2249462846FFF7DCFEA2E73B68F5
:102D20001A1D19783A602846FFF7BDFE9AE70A2374
:102D30000BF1010BB2FBF3F2C1E7A345D4D2202182
:102D40002846013CFFF7AFFECCE77107D5D52B2114
:102D5000D0E7A345DAD230212846013CFFF7A3FE95
:102D6000D2E73968CDE900460A1D3A6053460A2287
:102D70000968D0E739680A1D3A60CDE90046534634
:102D80001022F5E73B681A1D3A6016F00106D3F8E9
:102D9000009024D1B9F1000F03D0484603F04FFB57
:102DA0000646B4421DD809F1FF3919F8011F002960
:102DB0003FF458AF2846FFF776FEF6E7284601367F
:102DC000FFF771FE19F806100029F7D1A642BFF4EB
:102DD00049AF20212846013CFFF765FEF6E70026B3
:102DE000F0E720212846013CFFF75DFED9E73B686C
:102DF0001A1D3A60302128461C68FFF754FE7821DE
:102E00002846FFF750FE00220823CDE90032214674
:102E1000102280E703B0BDE8F08F00BF2DE9F74333
:102E2000DDF82880B0B9524B5B88002B00F097800A
:102E3000504B5148514AC01AC0080E24504B0094C0
:102E40000004504940F0010001F021F8204603B091
:102E5000BDE8F0836AB9464B5B88002B7FD0454BB9
:102E60004548494AC01AC0080E24454B0094000446
:102E7000E7E7D0F800E0BEF1000F0DD13C4B5B88D6
:102E8000002B6ED03B4B3C48404AC01AC008082477
:102E90003B4B00940004D4E76BB9354B5B88002BA7
:102EA00061D0344B34483A4AC01AC0080924344B24
:102EB00000940004C5E74568D5F80490B3FBF9F524
:102EC00009FB15356DB12A4B5B88002B4BD0294B84
:102ED0002948304AC01AC0080924294B009400042C
:102EE000AFE78D070DD0224B5B88002B3DD0214BE7
:102EF0002148294AC01AC0081024214B009400041C
:102F00009FE712F0030F0CD0194B5B886BB3194B82
:102F10001948224AC01AC0081024194B0094000412
:102F20008FE7C568A9420DD34D1EEC180569AC4268
:102F300008D8CDF82880DEF80C40A44603B0BDE8E0
:102F4000F04360470A4B5B887BB10A4B0A48144A3E
:102F5000C01AC00810240A4B0094000471E70E2424
:102F600074E7082472E7092470E710246EE700BFB5
:102F7000B4000020BC640000FC6500008377000002
:102F80002C7900008877000005780000B1770000F8
:102F9000C47700000B780000357800004D78000001
:102FA00070780000F7B5A0B9374B5B88002B63D071
:102FB000364B3748374AC01AC0080E24364B0094A7
:102FC0000004364940F0010000F061FF204603B0E4
:102FD000F0BDD0F800C0BCF1000F0DD12A4B5B88CA
:102FE000002B4BD0294B2A482D4AC01AC008082470
:102FF000294B00940004E4E76AB9234B5B88002B5B
:103000003ED0224B2248274AC01AC0080924224B2E
:1030100000940004D5E74568D5F800E00EF1FF35CF
:103020000D420CD0184B5B8863B3184B18481E4AEE
:10303000C01AC0081024184B00940004C1E7C568EA
:10304000A9420CD34D1E0EFB02540569AC4206D8B2
:10305000DCF81040A44603B0BDE8F04060470A4BDE
:103060005B887BB1094B0A48104AC01AC00810247B
:10307000094B00940004A4E70E24A7E70824A5E761
:103080000924A3E71024A1E7B4000020BC640000D9
:10309000FC65000083770000197900008877000044
:1030A000B1770000C477000097780000BD78000079
:1030B0002DE9F84FB0F806A04579D2F800B09DF898
:1030C00028900AFB05F5043D88460BEB0301A94255
:1030D00003F1040488BFA5EB030BB4FBFAF6074623
:1030E0000AFB1644C2F800B04EB9AAEB04055D45D0
:1030F00028BF5D46BBF1000F04D1BDE8F88F3F68E3
:10310000013EF1E7043408EB06003C442A46B9F1DD
:10311000000F0DD02146ABEB050B03F00DF9DA459E
:103120002E443F6855464FF0000428BF5D46E1E756
:1031300001462046EFE7FEF763BFF8B54679014642
:10314000721E0546002393422D6803D30024A64235
:1031500002D8F8BD0133F6E70F682846FEF787FF6F
:1031600001343946F3E72DE9F843068BCD1C0746B9
:10317000FEF75DFF043E35440446B5FBF6F5F0B1BD
:103180004FF48073EDB28380C680013D07608146B5
:103190004FF00008A84512D23846FEF748FF064611
:1031A00048B163790133637108F10108C9F800007F
:1031B00007608146EEE72046FFF7BFFF3446204612
:1031C000BDE8F88301210430FEF7A1BE10B501214E
:1031D00004460430FEF7A7FEC0B220B92046BDE881
:1031E0001040FFF7AABF10BD1FB503920022009246
:1031F00003AAFFF75DFF05B05DF804FB1FB503925E
:103200000122009203AAFFF753FF05B05DF804FB0B
:10321000026813685268934291BFD01A80680130E7
:10322000801888BFC01A704710B504460020FDF70B
:10323000A3FE2046FFF7ECFF04460020FDF79EFEAC
:10324000204610BD2DE9F04F8368D3F84831C3F311
:1032500040059B078BB0064606D5002211460BB0F1
:10326000BDE8F04FFFF732B9012906D9204A022103
:103270000BB0BDE8F04FFFF7FDB81E4C1E4BDFF85A
:103280008090DFF880A01B1B1C22B3FBF2F8A8453E
:1032900002D10BB0BDE8F08FE36809932368A768FB
:1032A000D3F808B02046FFF7BFFF94F810E0134AA8
:1032B000642303FB00F1BEF1000F18BF4A4603FB75
:1032C0000BF3B3FBF7F3CDE9043BB1FBF7F1099B3B
:1032D0000191CDE90672CDE9020700935246636978
:1032E00008213046FFF7C6F801351C34CFE700BF90
:1032F00066700000A0640000BC6400004C7900000F
:103300005579000061790000036898687047036888
:1033100000229A607047836800225A60C3E9042241
:103320009A60DA601A60704770B5446806460D46C8
:10333000206818B1B3682946984718B923682B60EC
:10334000256070BD2468F3E74368186808B1026817
:103350001A6070474368186870474368186800B976
:103360007047884203D102681A6001207047034603
:103370000068F4E700230428CB604B6098BF044B3F
:10338000044A98BF53F820308A600B60704700BF32
:10339000607F00003C7F0000CB6800225A717047BC
:1033A000C368DB6800225A717047CB6801225A71EA
:1033B0007047C368DB6801225A7170470D4A8A6002
:1033C00070B50D4A0D4C0023121BCB604B600B6097
:1033D00012091D469A4207D0E6683679FF2E05D0BD
:1033E000854202D1A3680B6070BD013501331034F2
:1033F000F0E700BF747F0000A06600009066000048
:103400002DE9F3478368D3F84831C3F340059B07A0
:10341000074606D50022114602B0BDE8F047FFF787
:1034200055B8144E144CDFF85880DFF85890DFF888
:1034300058A0A41B2409A54202D102B0BDE8F08720
:10344000F168B3680A79FF2A07D10C4A0821384687
:10345000FFF710F801351036EDE74879002814BF62
:1034600041464946CDE90012384652460821FFF749
:1034700001F8EFE790660000A0660000527A0000B5
:10348000417A0000497A0000717A00002DE9F74F77
:10349000154D164C9946641B52F8043C0646884666
:1034A000174624094FF0000B5C4507D1104A022152
:1034B000304603B0BDE8F04FFEF7DCBFA9680193CA
:1034C000184602F095FFAA46019B103540B93B46CD
:1034D000424651463046CC4603B0BDE8F04F604707
:1034E0000BF1010BE0E700BF90660000A066000052
:1034F000927A0000014BFFF7C9BF00BFD53800002A
:10350000014BFFF7C3BF00BF99330000014BFFF72A
:10351000BDBF00BFAB330000014BFFF7B7BF00BF1B
:10352000B1390000037813F0040216D003F003034E
:10353000012B03D0022B09D0012070470A680088B4
:103540000232C0F3831002440A60F5E70B68428838
:10355000023303EB92130B60EEE710467047000056
:103560002DE9F04FDFF824A10F4685B00446861CF4
:1035700000201546FDF700FDDAF800103960DAE9A1
:103580000132134401335B1A0AF21C470AF58369BE
:103590000AF21448B3421BD30020002D72D004F06D
:1035A0000F039B0143F0050363F30F00DAF80020DB
:1035B000DAF808301340033332444AF8230000207D
:1035C000CAF80020FDF7DAFC012005B0BDE8F08F55
:1035D00001213846FEF79BFC4846FEF7B0FC40460A
:1035E000FEF7ADFCDAF80400DAF808B0009000EA63
:1035F0000B0003300AEB80006946FFF793FF009B46
:1036000050BB0BEA03020AEB820203F1020CD26800
:103610000192013303EA0B0B0AEB8B0B02F003025E
:10362000012ADBF80C10CDF800C023D0022A16D0F6
:1036300083464046FEF786FC10B1009BCAF8043072
:1036400059463846FEF763FCDAE901231344DAF8F9
:10365000002001339B1A9DE70BEA0300C9E7BDF880
:103660000630C3F3891303334FEA114B0CEB93037A
:103670000093DEE7BDF80430C3F383134FEA114B28
:103680006344F5E7A40544F006008FE7D404002066
:10369000012907B5034604D08168D1F8481189078C
:1036A00007D500221146184603B05DF804EBFEF77B
:1036B0000DBF53680193054B00931368044A022120
:1036C000FEF7D8FE03B05DF804FB00BF897200006E
:1036D000A87A000030B599B10A4B0B4A0B49D21AAF
:1036E000D20800239A4201D1052006E031F8235088
:1036F0000468A54202D10360002030BD0133F1E728
:103700000846FAE7BC6400003C6600001400002094
:103710002DE9F84F234B2448FF229A600022C3F87A
:103720001824C3E90022C3F81424012283F82024BA
:10373000FFF701FD814690BB1C48DFF880801C4CE0
:10374000DFF87CA0FFF7E7FDA4EB0804E4084D4692
:10375000A54208D10023174A19469C421AD022F8E4
:1037600023100133F9E700273E4608EBC50BB542AD
:1037700009D058F83610DBF80000142202F0B8FD2A
:103780000028C8BF01370136B442F0D12AF82570AD
:103790000135DDE70848A200002102F0F6FD4846A9
:1037A000BDE8F88FD40400203C660000307F0000A4
:1037B0003C66000016000020D4000020BC6400001D
:1037C0001400002007B5019001A8FFF783FF30B96E
:1037D000019A044B53F8320003B05DF804FB00205B
:1037E000FAE700BFBC640000002310B5CB604B605B
:1037F000034B8B600C460121FFF7E4FF206010BDF6
:103800003C7F0000094B013903EBC000032909D8B4
:10381000DFE801F00A0204060420704700797047CF
:10382000407970470020704702207047BC64000058
:1038300030B5124C00EB400054F8215002FA00F36E
:10384000072202FA00F06B400D4A03406B40C3F3BD
:10385000821044F8213002EB8101C3F3C20282429C
:1038600038BF0246C3F34220824203F0070338BF49
:103870000246934238BF13464B8030BDD40000202F
:103880001400002013B50446019101A8114693B11C
:10389000FFF720FF10B1002002B010BD01990B4AC4
:1038A00004EB440052F8212007238340134023FAFD
:1038B00000F0C0B2F0E7FFF70DFF0028EBD1019A4E
:1038C000034B03EBC2039879E6E700BFD400002066
:1038D000BC640000294B2A4A2DE9F04F9B1A4FEA9D
:1038E000D30ACB685B7985B005460E461BB9254ADD
:1038F0000221FEF7BFFD244B244ADFF8A4800821F3
:103900002846FEF7B7FD224A08212846FEF7B2FDF9
:103910000024544502D105B0BDE8F08FF36893F858
:10392000049001231A4621464846FFF7ABFF0023C7
:103930000746012221464846FFF7A4FF012103283C
:1039400081468346204628BF4FF00309FFF73AFF20
:103950005FFA89F90F4A58F82910034658F82700EA
:103960000D4F0090CB4598BF1746CDE901170B4A84
:1039700008212846FEF77EFD0134CAE73C660000B8
:10398000BC640000B47A0000C77A0000D37A00005B
:10399000F17A000006710000B27A00002E7B000070
:1039A0004C7F000013460A46C168FFF793BF000032
:1039B0002DE9F04F2DED028B054683B09B46164650
:1039C000002A5DD0DBF80070CB68554993F804A05D
:1039D000384602F00DFD0446F0B9012E09D1514AD6
:1039E0000221284603B0BDEC028BBDE8F04FFEF784
:1039F00041BDDBF804304C4F57F8041B00930A22FA
:103A0000184602F075FC002800F083800134052C74
:103A1000009BF1D1454A15E04549384602F0E8FCE3
:103A2000044668B9012E36D04FF00108414B424A96
:103A3000A3EB02094FEAD9030093DFF808914FE0A6
:103A40003E4A3B460221284603B0BDEC028BBDE84E
:103A5000F04FFEF70FBD00231A4631465046FFF7E0
:103A600011FFA04211D200213046FFF7ABFE4246C3
:103A7000034602212846FEF7FDFC0136BE42EAD18C
:103A800003B0BDEC028BBDE8F08F224631465046B4
:103A9000FFF7CEFEF1E7274F274BDFF8A480FF1A90
:103AA000FF080026EAE700213846FFF78BFE18EEF4
:103AB000101A202202F01CFC034608B1013716E060
:103AC0000246019039465046FFF7DCFEA042019BBA
:103AD00018D3224639465046FFF7AAFE08F10108DE
:103AE000B045CDD25BF8283008EE103A0027009B95
:103AF000BB42D8D15BF828304A4602212846FEF75F
:103B0000B9FCEBE719463846FFF75CFE0C4A034662
:103B1000F3E7022EE4B2BED04FF0020886E700BF02
:103B2000447B00004B7B00004C7F0000B67B000014
:103B3000627B00003C660000BC6400006A7B000001
:103B40007F7B0000A27B000013460A46C168FFF796
:103B50002FBF0000034BD3E90030C31A584258412D
:103B6000704700BFD40400202DE9FF47FFF7F2FFA4
:103B70000646002840F01F81904CC4F81804BFF39B
:103B80004F8F6368A56800932B40033304EB8300D9
:103B90006946FFF7C7FC009B18B1D4F81824002A27
:103BA0006CD005EA0302991C013304EB82022B401E
:103BB00004EB8303D268DB68029302F00303022B59
:103BC000019200916DD1BDF806307D489DF80460EA
:103BD000C3F38918B8F1500FC14628BF4FF0500900
:103BE00009F1080169F38F13C1F30901ADF806303B
:103BF000FFF7B9FAC6F3C2060746002800F0C280F4
:103C0000FFF7E0FA0023082201A93846FFF7ECFA93
:103C1000009925EA01020132B9EB820F4FEA8203D3
:103C200038D95FFA89F98BB32940DDB2A9EB0509D0
:103C300003315FFA89FAA946624D04EB810108233A
:103C40004A463846FFF7D0FA3DB109F10803DBB226
:103C5000524629463846FFF7C7FA009B08F1030889
:103C600003EB98030093D4F81834002B54D1D4F804
:103C70001054DFF864914FF0070872E022689A420E
:103C800082D86260304604B0BDE8F0874D491D46D9
:103C90009A46D4E72940033108234A4604EB8101C0
:103CA000D8E7012B6ED1BDF804604548C6F38311F7
:103CB000062928BF062161F38916023101F00F01A0
:103CC0008900ADF80460FFF74EFAC6F3C206074656
:103CD000002857D0FFF776FA0023082201A93846BA
:103CE000FFF782FA4FF00008BDF80420C2F38312F8
:103CF0004FEA8803904503F10803B4D200994A1CA7
:103D000029400331009204EB810104223846FFF779
:103D10006BFA08F10108E7E73846FFF757FAFFF7B3
:103D200019FF80F00100C6B2ACE7EB685A79B2B176
:103D30001B79BDF8081003EB430259F8211008FA6B
:103D400002F3052E03EA010323FA02F308BF032658
:103D5000B34204D32B6839461B6828469847EB6862
:103D60001D68002DE1D13846FFF730FA2846FDF7EF
:103D700003F9D4F818340BB9009B63600020FDF7F9
:103D8000FDF8CCE7D4F8104474B90F4B5B88012BD5
:103D9000C5D90E4B0E480F49C01AC008000440F0A8
:103DA000020000F067F8BAE7236820469B6898474E
:103DB000E3681C68E8E7002664E700BFD40400203D
:103DC0003C660000E00400206C000020BC640000A1
:103DD0006C650000D37B0000D40000202DE9F74F74
:103DE000224E04460F46924601A901221846D6F8F3
:103DF00008909B46FFF7B4FB20B3019D4FF00008ED
:103E0000AA1CD84508EB020126D119480021FEF76B
:103E10004FF880F31000000440EA1440E4006B1CEB
:103E200004F0380403EA090305EA090544F0010433
:103E300006EB8303033544EA881444EA8724D860F8
:103E400046F8254096F820341BB1FFF78DFE002878
:103E5000FBD103B0BDE8F08F09EA010106EB810157
:103E60005AF82830CB6008F10108CAE7D4040020D2
:103E7000F008002000231A46FFF7B0BF07B5012362
:103E8000019201AAFFF7AAFF03B05DF804FB1FB57A
:103E9000CDE90123069B039301AA0323FFF79EFFAD
:103EA00005B05DF804FB1FB5CDE90023069B029326
:103EB000079B03936A460423FFF790FF05B05DF864
:103EC00004FB00002DE9F84388461B49D1F8103463
:103ED000054600241A468AB9EA681471A3B9C1F8E4
:103EE00010541360154B164EF61AF608002703F10E
:103EF0000709B7420DD12046BDE8F883D268107992
:103F0000A04212D01268E6E7DB68196811601D60F4
:103F1000E8E719F83720EB6842453946187928BF99
:103F20004246FFF785FC0137E3E701340A2CD1D183
:103F30004FF0FF34DFE700BFD4040020BC64000072
:103F40003C66000038B5084B0125D3F8104483F8CF
:103F5000205404B938BDE3685D71236820465B686E
:103F60009847E3681C68F4E7D404002010B588B0D3
:103F70000023CDE90233CDE9003304931F4B204ADF
:103F80000593204B06929B1A9B08079302AA6B4647
:103F900043F2274141F26E00FDF736FEB0B905A9A4
:103FA00002A8FDF729FE184B5B88022B04460AD9AC
:103FB0001648174B1749C01AC0080004224640F0A3
:103FC0000300FFF75BFF204608B010BD48F209630D
:103FD000984210D105A902A8FDF70AFE0A4B5B889A
:103FE000022B0446EFD90948094B0B49C01AC008F7
:103FF00000042246E3E70324E5E700BF6E10273400
:10400000D4000020940100206C0000206C650000AA
:10401000BC640000E47B0000157C000010B58368E0
:10402000D3F848319B07044605D50022BDE810406F
:104030001146FEF74BBAFFF799FF30B9044A082141
:104040002046BDE81040FEF715BA024A0221F7E704
:10405000467C00005E7C000000B589B00023CDE9FD
:104060000533CDE90133079305AA01AB43F227419C
:1040700041F26E00FDF7C8FD90B9CDE9030003A938
:1040800005A8FDF76BFD40B91048114A0499121AB2
:1040900002F052F905A8FDF787FD09B05DF804FBB1
:1040A00048F2096398420FD10A4B5B88012B09D96A
:1040B00009480A4B0A49C01AC008000440F002002F
:1040C000FFF7D8FE0520E8E70320E6E7D40000204C
:1040D000940100206C0000206C650000BC640000AE
:1040E000837C000010B58368D3F848319B070446F1
:1040F00005D50022BDE810401146FEF7E7B9FFF7ED
:10410000ABFF30B9044A08212046BDE81040FEF755
:10411000B1B9024A0221F7E7A87C0000C07C000088
:1041200030B5C38885B004460D4633B1144A0092B9
:104130001449154A2846FEF7A8FC217A05291DD006
:10414000637A4BB1A088FFF75DFB104B104953F821
:1041500020202846FEF799FC227A0E4BA08853F8BF
:10416000222003920021FFF72DFB039A0A49034600
:10417000284605B0BDE83040FEF787BC05B030BD2D
:10418000DC800000C4800000BC80000030810000A2
:104190002672000054810000E180000007B503464C
:1041A0000846197A052911D05B7A2BB1094A0A49C8
:1041B0000190FEF76AFC019808490190FEF765FC42
:1041C000019803B05DF804EBFEF754BC002AF8D068
:1041D000F2E700BFDC8000002672000004710000DE
:1041E0002DE9F04385B01F460C9D002395F80C90F7
:1041F0002B7306460C46904629463846FFF790FF3B
:10420000B8F1060F09D8DFE808F00412181F2833A8
:10421000400031462846FEF738FC00222946384641
:10422000FFF7BCFF85F80C9005B0BDE8F08322686D
:1042300031462846FEF729FCEFE7D4E90023314652
:104240002846FEF722FCE8E7A36800933146D4E94C
:1042500000232846FEF719FCDFE7E3680193A36813
:1042600000933146D4E900232846FEF70EFCD4E73C
:1042700023690293E3680193A36800933146D4E96C
:1042800000232846FEF701FCC7E76369039323690F
:104290000293E3680193A36800933146D4E90023B5
:1042A0002846FEF7F2FBB8E708292DE9F74F8046CC
:1042B0000E4617461C463DD800251B7B257321461C
:1042C00010460193FFF72CFFDFF88CA0DFF88CB0CD
:1042D000AE4232D918F8052059462046FEF7D5FBE4
:1042E0000135082DF4D11B49DFF874A0DFF874B054
:1042F0002046FEF7CAFB4FF000094E4524D918F8B6
:1043000009507E2D1ED8284601F0EAFF002814BF70
:104310002A462E2259462046FEF7B7FB09F101092D
:10432000B9F1080FE9D1012221463846FFF736FFDF
:10433000019B237303B0BDE8F08F51462046FEF782
:10434000A4FBCDE72E22E5E751462046FEF79DFB74
:10435000E4E700BFF5800000F1800000EB80000082
:10436000F3800000A0710000F0B595B01D46164620
:1043700008460C46FEF726FF1A9B0D93CDE908650B
:1043800000252B46082205A920460A958DF82C50B9
:104390000C95FEF733FF079B0293069B03939DF852
:1043A00014308DF8115003F00302012A1DD1BDF81D
:1043B0001420059DC3F3C203C2F383168DF8103099
:1043C000B20008230EA92046FEF718FFC5F3952575
:1043D00008AB0093324602AB0EA92846FFF700FF58
:1043E0002046FEF7F3FE15B0F0BD022AF8D1BDF865
:1043F0001650C3F3C203C5F389158DF81030082792
:10440000082D2E4628BF08263B4632460EA92046D8
:10441000FEF7F4FEAD1B08AB02AA31460EA83744E6
:10442000FFF742FF002DEBD1DAE7704707B5044BE9
:104430000093044A4023FFF797FF03B05DF804FBA5
:10444000894400009109002030B50C4D0FCD89B092
:104450006C460FC495E80F0084E80F000623084857
:1044600000930022694600F0F1F808B1FCF774FBF4
:10447000044B00221A7009B030BD00BF68810000F3
:10448000800200209009002038B50D480D4C0E4DDB
:10449000002323700378EB5CD2B263B1043001F0E7
:1044A000FDFB08B1FCF758FB084B1A7812B12378D2
:1044B000002BFBD038BD0C3001F0B4F9F1E700BFA0
:1044C00080020020D1090020400A0020900900202D
:1044D00008B50848084A0378D35C33B1043001F0CA
:1044E0005BFBBDE80840FFF7AFBF0C3001F02CF9D3
:1044F000F7E700BF80020020400A0020FFF7A4BFBA
:1045000008B5FFF7FBFF04480421FFF7DBFC034B72
:1045100001225A7108BD00BF90660000940200207D
:1045200038B5074C051E04F1080318BF1C46236864
:104530002BB11A6822605B6828469847F7E738BDB8
:10454000DC09002020B9054B01225A70FFF7E8BFB3
:10455000012802D1014A9070F8E77047D409002081
:1045600038B5094C23786BB908486360A3602361B0
:10457000E36000F0A9F8054600F0B2F801232370CB
:10458000284638BD8525FBE7D409002045450000B5
:1045900038B5134CA378054603F0FF0073B115B18D
:1045A0006B68012098470020FCF7E6FCE3680133C4
:1045B000E3600020BDE83840FCF7E0BCFCF7DCFC21
:1045C00025B1226913463BB92A602561E368002BB7
:1045D000ECD100F09BF8E9E79D42F7D01B68F2E7C9
:1045E000D40900201FB503788DF80030436801938B
:1045F00083688DF80830C368054A0393054B684605
:1046000053F8213052F82110984705B05DF804FBAB
:10461000380A00203C0A00201FB503788DF80030CE
:104620004368019383688DF80830C368054A039393
:10463000054B684653F8213052F82110984705B0D1
:104640005DF804FB380A00203C0A0020F0B5194B45
:1046500090F800C091F81DE043F82C20164B164648
:104660000A6943F82C20154B03F80CE00C4607466A
:104670000FCC89B06D460FC594E80F0085E80F0098
:10468000CDF810C0BEF1000F09D0002E0C4A6946CB
:1046900008BF3246381D01F0B9F909B0F0BD002E4F
:1046A000084A694608BF324607F10C0000F092FF45
:1046B000F3E700BF3C0A0020380A0020400A00202F
:1046C000E545000019460000044A137923B9012189
:1046D000106091801846704785207047440A00207A
:1046E000084B1A68D2075FBFC02283F8002301225B
:1046F0001A604FF080420123C2F81835024A137045
:10470000704700BF00E100E04C0A002037B54FF0D1
:1047100080430022C3F80421D3F804210192019AB6
:104720000222C3F804230D4AD2F8FC0040F0807343
:10473000C2F8FC300A4B1C6844F0010119605D6846
:104740005968491BB1F50A5FFAD31C604FF08043EA
:10475000C2F8FC0001229A6003B030BD00ED00E019
:10476000001000E04FF0804307B5D3F800217AB184
:104770000022C3F80021D3F800210092009A012200
:10478000C3F808230F4B587910B95A711B68984722
:104790004FF08043D3F8042182B10022C3F80421F2
:1047A000D3F804210192019A0222C3F80823054B91
:1047B0001B68012003B05DF804EB184703B05DF8F7
:1047C00004FB00BF440A002000F1804000F5C04017
:1047D000002382B0036003680193019B02B070471D
:1047E000800000F1A040D0F8002722F44032C0F849
:1047F0000027D0F8003743EA0141C0F8001770479E
:10480000C208012300F0070003FA00F08B5C184394
:1048100088547047054B4FF0FF32072843F820209B
:1048200084BFC01880F84820704700BF500A00209D
:1048300038B5144D95F858400CBB2022FF2105F1E6
:10484000300001F0A2FDE0B20134FFF7E3FF0C2CD1
:10485000F9D10D4B0022C0216A6583F8061340216F
:1048600019604FF4BE70FFF7AFFF084B4FF00041E7
:10487000C3F80413012385F85830104638BD0820CA
:10488000FCE700BF500A002000E100E000600040AB
:10489000034B93F85800003818BF0120704700BF41
:1048A000500A00202DE9F041DFF8E48008EB000316
:1048B000054693F93030002B0F4664DA8B78C3F34A
:1048C0004003002B0BBF082400240C2108218C423C
:1048D00002D10420BDE8F08158F8240001303DD118
:1048E00008EB050166B248F8242081F830601BB956
:1048F00008EB040383F84850BB785A070ED4D90755
:104900002ED5AB0003F1A043D3F8002722F002021A
:10491000C3F800271D492846FFF772FFBB783A7895
:1049200013F0020325D0A40004F1804404F5C04430
:104930002D02D4F8103523F4473323F44073C4F820
:1049400010351204D4F8103505F4F85502F440324D
:1049500015431D43C4F810550020BBE70134B6E7EA
:104960007A7805F5E0734FF0A041920041F82320DA
:10497000D0E7083E48FA86F696F8505045EA82128B
:1049800086F85020E8E70820A4E700BFA40A00202A
:10499000500A002038B5204C251895F93020072AF8
:1049A00018DD083A44FA82F494F850309B09032B3E
:1049B0000BD14FF0A043D3F81015C14001F0010115
:1049C0000231BDE83840FFF70BBF012B0CBF0221BD
:1049D0000321F6E7D3B2072B1DD8930003F18043E0
:1049E00003F5C043D3F8100540F00100C3F81005EB
:1049F00002F1400040B2800080B2FFF7E5FE51B105
:104A000095F9303054F823302BB1012303FA02F228
:104A1000024BC3F8042338BD500A00200060004058
:104A20004FF0A043D3F8103523FA00F000F0010056
:104A3000704700002DE9F04F87B00024584D0394D3
:104A40004FF48072012102F1804303F5C04390B21C
:104A50001B68012B06D1D5F804330B4202D0FFF7B7
:104A6000B3FE0C430432B2F5907F4FEA4101EAD124
:104A70004B4BD3F87C31012B0AD14FF4BE70FFF7BA
:104A8000A3FE4FF0A04344F00044D3F81035039345
:104A9000E3B2D3B1434F00250126344210D0AB001E
:104AA00003F1804303F5C043D3F81005D3F8101584
:104AB00057F8253023B1C1F30141C0F304209847D2
:104AC0000135082D4FEA4606E7D1002C61DA0022B5
:104AD0004FF0FF33CDE90423DFF8C880DFF8C8903A
:104AE00000273E464FF0A04B19F9014B631C45D0FF
:104AF000C4F3C20318336B440122E5B204F03F0053
:104B000004F0070402FA04F413F8042C224235D00E
:104B100008EB0002AD0992F9302058F822A0BAF152
:104B2000000F09D1032D29D104A901930090FFF7AB
:104B300067FEDDE9000301E0032DF5D000F5E0712B
:104B400013F80C3C5BF821102342C1F3014105D05E
:104B5000022913D1032D0CD1294604E003290DD1DC
:104B6000032D06D1022100900136FFF739FE00988F
:104B7000F6B2BAF1000F01D02946D0470137042F11
:104B8000B2D136B14FF0A043039AD3F81035934217
:104B900002D107B0BDE8F08F0393049B05939DE716
:104BA00000600040500A0020A00A0020F0B53F4BF2
:104BB0003F4CD3F8142185B08AB10022C3F81421E8
:104BC000D3F814310093009B637943F0080303F09A
:104BD0001202122A637104BF43F020036371334B46
:104BE000D3F804218AB10022C3F80421D3F8043198
:104BF0000193019B637943F0040303F01102112A2E
:104C0000637104BF43F020036371284BD3F808217C
:104C1000BAB10025C3F80851D3F808210292029ACC
:104C200024480422C3F808232946C3F80055236802
:104C3000984723682048294698470123237105B0E7
:104C4000F0BD637903F00F020F2A08D0D80701D412
:104C5000190704D462799207F1D45B07EFD5627922
:104C6000276802F0F30312F020020BD023F0300388
:104C700043F010036371012100203B4605B0BDE8FD
:104C8000F04018470B4D95E8030002AE86E803009C
:104C900015E9030043F0100385E80300C4E902228C
:104CA000637101213046B847C9E700BF0050024098
:104CB000AC0A0020BC0A0020B40A002000F18040A9
:104CC00000F5E830002382B0036003680193019B84
:104CD00002B070471FB53C493C4CD1F80021002A76
:104CE00047D04FF48070FFF7E9FFA37CDA4302F06E
:104CF000010204EB8201496811B9617C02292DD1BE
:104D0000607C022818BF04EB83034FF000010BBF47
:104D100001235868637459604FF001038DF80C103B
:104D2000E1740EBF02910290A2748DF804302368E2
:104D300001A89847637C022B01D101236374237D72
:104D400053B101238DF80430002302938DF80C3009
:104D5000237501A82368984704B010BDE37C002B9D
:104D6000E8D18DF80430029301238DF80C30E37400
:104D7000DDE7D1F80431002BE1D04FF48270FFF76A
:104D80009DFFC1F80025A37C627404EB83038DF8BA
:104D90000C2059688DF8042021B15A6002912368D3
:104DA00001A89847A37CDB4303F0010304EB8303D2
:104DB0005A682AB1029200225A6001A823689847D3
:104DC0000023A374BBE700BF00D00140C40A002049
:104DD00000F18040002382B0036003680193019BCF
:104DE00002B070474FF0804310B5D3F80443610719
:104DF00009D5D3F8083133B14FF48470FFF7E8FFD9
:104E0000114B1B689847A2060CD54FF08043D3F88E
:104E100014313BB14FF48A70FFF7DAFF0B4B0020DF
:104E20001B68984763060ED54FF08043D3F81831BE
:104E30004BB14FF48C70FFF7CBFF044BBDE8104033
:104E40001B680120184710BDDC0A0020E00A002082
:104E500008B5FFF7C7FFBDE80840FFF783BC0000B7
:104E60000E4B9842024610D0B0F1402F0FD003F500
:104E7000003398420DD0A3F5803398420BD00849F7
:104E800008488A4218BF0020704707487047074803
:104E90007047074870470748704700BF0030004020
:104EA00000200040040B0020E40A0020EC0A00204F
:104EB000F40A0020FC0A0020014B1B68184700BFC1
:104EC000E40A0020014B1B68184700BFEC0A0020D1
:104ED000014B1B68184700BFF40A0020014B1B68F8
:104EE000184700BFFC0A0020014B1B68184700BF91
:104EF000040B002070B50D46FFF7B2FF044608B959
:104F0000002070BD0020FCF737F8267916B9012380
:104F1000256023710020FCF731F8002EF0D011201D
:104F2000EFE708B5FFF79CFF10B1002303600371A2
:104F300008BD0023435082B043580193019B02B047
:104F40007047D0F8103170B505460C4653B14FF498
:104F50008871FFF7EEFF63795A0703D523680BB119
:104F600001209847D5F814315BB14FF48A71284677
:104F7000FFF7DFFF63791B0703D523680BB102201E
:104F80009847D5F81C315BB128464FF48E71FFF776
:104F9000D0FF607910F0100002D1236803B1984768
:104FA000D5F8043163B14FF482712846FFF7C1FF91
:104FB0000123237123681BB1BDE87040032018470B
:104FC00070BD000001490248FFF7BBBF0C0B002079
:104FD00000C0014001490248FFF7B3BF140B002095
:104FE0000010024001490248FFF7ABBF1C0B002034
:104FF0000020024010B52D4CD4F8003186B0C3B16A
:10500000D4F80433D90714D50023C4F80031D4F8F8
:1050100000310193019B4FF48073ADF81030D4F848
:105020000C358DF81230224B06AA12E903001B68DA
:105030009847D4F80431E3B1D4F804339A0718D56B
:105040000023C4F80431D4F804310293029B4FF4D6
:105050008273ADF81030D4F81835ADF81230D4F8AA
:105060004835ADF81430124B06AA12E903001B684C
:105070009847D4F80831BBB1D4F804335B0713D593
:105080000023C4F80831D4F808310393039B4FF48C
:105090008473ADF8103006AA054B12E903001B68B3
:1050A00006B0BDE81040184706B010BD0020014012
:1050B000240B0020074B0022C3F8002182B0D3F854
:1050C00000210192019AD3F80805034B1B68C0B276
:1050D00002B0184700D00040280B002000234350A6
:1050E00082B043580193019B02B070472DE9F0470D
:1050F000DFF8988004460D46914600F5A07A4FF4FB
:1051000080370026D4F80433B10001F5A0713B428A
:1051100089B20DD0DAF8003053B1C4F84873204694
:10512000C4F80873FFF7DAFF58F82530F0B2984753
:105130000136B1454FEA47070AF1040AE2D1D4F833
:105140000433DA070CD5D4F800314BB120464FF4C4
:105150008071FFF7C3FF0D4B042053F825309847AB
:10516000D4F804339B070ED5D4F804315BB1204644
:105170004FF48271FFF7B2FF044B052053F825303E
:10518000BDE8F0471847BDE8F08700BF2C0B0020B2
:10519000024803220021FFF7A9BF00BF00B0004072
:1051A000024804220121FFF7A1BF00BF00400240D6
:1051B00000F1804000F5E040002382B00360036806
:1051C0000193019B02B07047F0B5524B524CD3F89B
:1051D000043185B0002B3DD094F82E204FF482701E
:1051E000FFF7E6FF2AB394F82F3013BB494AD2F8F1
:1051F0000031002B32D04FF48070FFF7D9FF638B62
:1052000094F82D00834250D921891B1A9BB289B290
:105210006383CB1A616801EB4303C2F82C36C2F8F2
:1052200030064FF48270FFF7C3FF3A4B01225A60F9
:1052300014E0636802932389ADF80C30E368002121
:105240008DF8041033BB2374236801A8984700230A
:1052500084F82F3094F82E30002BC7D12D4BD3F883
:1052600010315BB14FF48870FFF7A2FF0023237465
:1052700002238DF8043001A823689847254BD3F802
:105280001431EBB14FF48A70FFF792FF00232374BF
:1052900005B0F0BD208B608363602081E160002A4F
:1052A000D2D11C4B01221A60CEE7BAD1E3680121AA
:1052B00084F82F1013B100216183AEE76383B0E758
:1052C00066694FF000470125002EE1D0B6FA86F25C
:1052D00027FA02F34632920026EA030602F18043DF
:1052E00003F5E0431B68002BEED01046A2F58C724C
:1052F000FFF75EFFD30882F00402C2F380028DF84C
:1053000008308DF8045023688DF8092001A89847CB
:10531000DAE700BF00700040340B002030B4064ACA
:1053200052F82040054A002532F8101022F810509B
:10533000234630BC184700BF700B0020640B0020D0
:105340000020FFF7EBBF0120FFF7E8BF0220FFF7C7
:10535000E5BF0320FFF7E2BF0420FFF7DFBF052012
:10536000FFF7DCBF2DE9F347002406460F469046C1
:1053700000F5A0754FF48039A2462B688BB1D6F8A2
:10538000043309FA04F21A420BD0C5F800A02B68C6
:105390000193A000019B00F5A07398B2D7E90031FA
:1053A00098470134444505F10405E6D102B0BDE853
:1053B000F0870000024903480422FFF7D3BF00BF73
:1053C000880B002000800040024903480422FFF7B8
:1053D000C9BF00BF940B0020009000400249034861
:1053E0000422FFF7BFBF00BFA00B002000A00040B9
:1053F000024903480622FFF7B5BF00BFAC0B0020EF
:1054000000A00140024903480622FFF7ABBF00BFDE
:10541000B80B002000B001400023435082B0435835
:105420000193019B02B070470A4610B54FF48E718C
:10543000FFF7F2FF136A9168C95C136A01331362C4
:10544000C0F81C1510BD8B690A4610B54FF4847165
:1054500023B9FFF7E1FFD0F8183510BDFFF7DCFFE7
:10546000536AD168D0F81805C854536A013353629F
:10547000F3E700001FB501238DF80030044BCDE9A0
:105480000110D3E900126846904705B05DF804FBAF
:10549000C40B002030B54D4DD5F804339A0585B0C6
:1054A00051D5D5F82431002B4DD04FF492712846B8
:1054B000FFF7B2FF4FF40173C5F80833444B93F87C
:1054C00029200AB901226A60404902228DF8002091
:1054D000D1F88024C1F8802403929A690292DA6894
:1054E00001920022C3E906226846D3E900129047E0
:1054F0003648D0F81C315BB1354A5169136A99427C
:105500004DD992F82830002B49D11146FFF78CFF76
:105510002E48D0F84431002B56D04FF4A271FFF73B
:105520007BFF2B4B93F829200AB1012202609A6974
:10553000002A49D0586AD96800229A6105B0BDE8AE
:105540003040FFF797BFD5F804335B07D0D5D5F8C7
:105550000831002BCCD01E4C1C482146FFF773FFAE
:10556000636AA2699A42C3D1E369E1684BB1A3615E
:105570002369E3600023606AE3616362FFF77AFFF7
:10558000B6E794F829300BB901236B600F4B4FF449
:105590000172C3F808230023606AA361EEE70B4899
:1055A0004FF48E71FFF738FF5369002BB0D051696B
:1055B0000291002391688DF8003001915361684693
:1055C000D2E900139847A3E705B030BD00200040A2
:1055D000C40B00202DE9F843564D90F804802C238D
:1055E00003FB0853064693F82A300C469146002BDD
:1055F00040F09B8050490068FFF77CFC074600287C
:1056000040F0958022683068511C0BD04FF0A041CB
:1056100001239340C1F8083502F5E0734FF0030C05
:1056200041F823C061684B1C1FBF01F5E0734FF0C8
:10563000A04C4FF0000E4CF823E0A369C0F82435CD
:1056400094F814C0637DBCF1010F4CEA0303C0F869
:105650006C35C0F81415C0F80C251DD1A268531C78
:105660001FBF02F5E0734FF0A0414FF0000C41F86E
:1056700023C0E368591C0BD04FF0A04C0121994086
:10568000CCF8081503F5E0714FF0030E4CF821E05B
:10569000C0F80835C0F810252C2202FB08F2AB1820
:1056A000C3F804902369AB50B9F1000F2AD04FF42E
:1056B0008E71247FFFF7B0FE30684FF4A271FFF7C0
:1056C000ABFE32681D4BC2F80433130B42F30732B2
:1056D000002AA8BF02F160404FEA4411BABF18483F
:1056E00003F00F0400F56140C9B2B4BF015580F862
:1056F000001303F01F03012101FA03F352091149BA
:1057000041F8223033680422C3F800252C2303FB20
:1057100008530022C3E9062283F829205A61012296
:1057200083F82A203846BDE8F8830827FAE71127CE
:10573000F8E700BFC40B0020955400008000020071
:1057400014ED00E000E100E0F8B5057900682C4CAC
:105750000023C0F800352C2303FB05435B686BB1C5
:10576000284BC0F8083340F30733C0F304315B091A
:1057700001228A402033244941F82320D0F80C65C7
:10578000D0F81415D0F80835D0F810254FF0FF37B1
:10579000BE42C0F8147518BF06F5E076C0F80C7567
:1057A000C0F80875C0F810751EBF4FF0A0474FF045
:1057B000020C47F826C04E1C1FBF4FF0A04601F553
:1057C000E071022746F82170511C1FBF4FF0A04125
:1057D00002F5E072022641F822605A1C1FBF03F551
:1057E000E0734FF0A042022142F82310FFF799FB2B
:1057F0002C2303FB0544002384F82A306360F8BDA2
:10580000C40B00208402020000E100E00279044B96
:105810002C2101FB02335869003818BF0120704762
:10582000C40B00202DE9F84F064690F80480894605
:105830009246FFF7EBFF044600283CD1204F2C2571
:1058400008FB057B4FF48E71CBF814A0CBF80890C1
:10585000CBF820008BF828003068FFF7DDFD3068BA
:10586000012383605946FFF7DFFDDBF804305D4616
:105870001BBB3068DBF814402B6A9C4211D833689C
:10588000D3F81C21002AFBD00122DA6000202C234F
:1058900003FB087700237B61BDE8F88F95F828307B
:1058A0003BB9D0F81C31002BF8D05946FFF7BCFDAE
:1058B000E2E70F20EBE71120EEE72046ECE700BF20
:1058C000C40B00200023435082B043580193019B36
:1058D00002B070471FB501238DF80030044BCDE9AD
:1058E0000110D3E900126846904705B05DF804FB4B
:1058F000F00B00207FB5434AD2F82461002E60D01F
:1059000010464FF49271FFF7DDFF02238DF800304F
:10591000D2F88034C2F880340393D2F83C35029335
:10592000394BDA6801920022C3E906226846D3E9BE
:10593000001290473348D0F8443173B14FF4A2714C
:10594000FFF7C0FF304B9A693AB10022C3E9062243
:10595000D968D0F83C05FFF7BDFF2A48D0F82031C0
:10596000ABB14FF49071FFF7ADFF0123C360264B3D
:105970005A6962B1D0F84C150291002299688DF8ED
:10598000002001915A616846D3E9001290471D48F2
:10599000D0F858319BB14FF4AC71FFF793FF1A4B1D
:1059A0005A6962B1D0F84C150291002299688DF8BD
:1059B000002001915A616846D3E90012904704B073
:1059C00070BDD2F81031002BB4D04FF4887110465E
:1059D000FFF778FF0C4BD2F83C0599698842A9D1B2
:1059E000DC69D96864B1D2F8005225F02005C2F80C
:1059F00000521A699C61DA60DE61FFF76BFF99E77C
:105A00009C61FAE700200040F00B00202DE9F843EC
:105A10005C4E90F80480242303FB0863044693F84B
:105A200020300D469146002B40F0A8805649006872
:105A3000FFF760FA0746002840F0A2802A68206835
:105A4000511C0BD04FF0A04101239340C1F8083501
:105A500002F5E0734FF0030C41F823C069684B1C5A
:105A60001FBF01F5E0734FF0A04C4FF0000E4CF853
:105A700023E0AB69C0F8243595F814C06B7DBCF108
:105A8000010F4CEA0303C0F86C35C0F80C25C0F8D0
:105A900014151DD1AA68531C1FBF02F5E0734FF007
:105AA000A0414FF0000C41F823C0EB68591C0BD00B
:105AB0004FF0A04C01219940CCF8081503F5E07196
:105AC0004FF0030E4CF821E0C0F80835C0F810255F
:105AD000242202FB08F2B318C3F804902B69B350D8
